ARM GAS  /tmp/ccmMriQ8.s 			page 1


   1              		.cpu cortex-m7
   2              		.eabi_attribute 28, 1
   3              		.eabi_attribute 20, 1
   4              		.eabi_attribute 21, 1
   5              		.eabi_attribute 23, 3
   6              		.eabi_attribute 24, 1
   7              		.eabi_attribute 25, 1
   8              		.eabi_attribute 26, 1
   9              		.eabi_attribute 30, 1
  10              		.eabi_attribute 34, 1
  11              		.eabi_attribute 18, 4
  12              		.file	"stm32f7xx_hal_flash_ex.c"
  13              		.text
  14              	.Ltext0:
  15              		.cfi_sections	.debug_frame
  16              		.section	.text.FLASH_MassErase,"ax",%progbits
  17              		.align	1
  18              		.syntax unified
  19              		.thumb
  20              		.thumb_func
  21              		.fpu fpv5-d16
  23              	FLASH_MassErase:
  24              	.LFB140:
  25              		.file 1 "Drivers/STM32F7xx_HAL_Driver/Src/stm32f7xx_hal_flash_ex.c"
   1:Drivers/STM32F7xx_HAL_Driver/Src/stm32f7xx_hal_flash_ex.c **** /**
   2:Drivers/STM32F7xx_HAL_Driver/Src/stm32f7xx_hal_flash_ex.c ****   ******************************************************************************
   3:Drivers/STM32F7xx_HAL_Driver/Src/stm32f7xx_hal_flash_ex.c ****   * @file    stm32f7xx_hal_flash_ex.c
   4:Drivers/STM32F7xx_HAL_Driver/Src/stm32f7xx_hal_flash_ex.c ****   * @author  MCD Application Team
   5:Drivers/STM32F7xx_HAL_Driver/Src/stm32f7xx_hal_flash_ex.c ****   * @brief   Extended FLASH HAL module driver.
   6:Drivers/STM32F7xx_HAL_Driver/Src/stm32f7xx_hal_flash_ex.c ****   *          This file provides firmware functions to manage the following 
   7:Drivers/STM32F7xx_HAL_Driver/Src/stm32f7xx_hal_flash_ex.c ****   *          functionalities of the FLASH extension peripheral:
   8:Drivers/STM32F7xx_HAL_Driver/Src/stm32f7xx_hal_flash_ex.c ****   *           + Extended programming operations functions
   9:Drivers/STM32F7xx_HAL_Driver/Src/stm32f7xx_hal_flash_ex.c ****   *  
  10:Drivers/STM32F7xx_HAL_Driver/Src/stm32f7xx_hal_flash_ex.c ****   @verbatim
  11:Drivers/STM32F7xx_HAL_Driver/Src/stm32f7xx_hal_flash_ex.c ****   ==============================================================================
  12:Drivers/STM32F7xx_HAL_Driver/Src/stm32f7xx_hal_flash_ex.c ****                    ##### Flash Extension features #####
  13:Drivers/STM32F7xx_HAL_Driver/Src/stm32f7xx_hal_flash_ex.c ****   ==============================================================================
  14:Drivers/STM32F7xx_HAL_Driver/Src/stm32f7xx_hal_flash_ex.c ****            
  15:Drivers/STM32F7xx_HAL_Driver/Src/stm32f7xx_hal_flash_ex.c ****   [..] Comparing to other previous devices, the FLASH interface for STM32F76xx/STM32F77xx 
  16:Drivers/STM32F7xx_HAL_Driver/Src/stm32f7xx_hal_flash_ex.c ****        devices contains the following additional features 
  17:Drivers/STM32F7xx_HAL_Driver/Src/stm32f7xx_hal_flash_ex.c ****        
  18:Drivers/STM32F7xx_HAL_Driver/Src/stm32f7xx_hal_flash_ex.c ****        (+) Capacity up to 2 Mbyte with dual bank architecture supporting read-while-write
  19:Drivers/STM32F7xx_HAL_Driver/Src/stm32f7xx_hal_flash_ex.c ****            capability (RWW)
  20:Drivers/STM32F7xx_HAL_Driver/Src/stm32f7xx_hal_flash_ex.c ****        (+) Dual bank memory organization       
  21:Drivers/STM32F7xx_HAL_Driver/Src/stm32f7xx_hal_flash_ex.c ****        (+) Dual boot mode
  22:Drivers/STM32F7xx_HAL_Driver/Src/stm32f7xx_hal_flash_ex.c ****    
  23:Drivers/STM32F7xx_HAL_Driver/Src/stm32f7xx_hal_flash_ex.c ****                       ##### How to use this driver #####
  24:Drivers/STM32F7xx_HAL_Driver/Src/stm32f7xx_hal_flash_ex.c ****   ==============================================================================
  25:Drivers/STM32F7xx_HAL_Driver/Src/stm32f7xx_hal_flash_ex.c ****   [..] This driver provides functions to configure and program the FLASH memory 
  26:Drivers/STM32F7xx_HAL_Driver/Src/stm32f7xx_hal_flash_ex.c ****        of all STM32F7xx devices. It includes
  27:Drivers/STM32F7xx_HAL_Driver/Src/stm32f7xx_hal_flash_ex.c ****       (#) FLASH Memory Erase functions: 
  28:Drivers/STM32F7xx_HAL_Driver/Src/stm32f7xx_hal_flash_ex.c ****            (++) Lock and Unlock the FLASH interface using HAL_FLASH_Unlock() and 
  29:Drivers/STM32F7xx_HAL_Driver/Src/stm32f7xx_hal_flash_ex.c ****                 HAL_FLASH_Lock() functions
  30:Drivers/STM32F7xx_HAL_Driver/Src/stm32f7xx_hal_flash_ex.c ****            (++) Erase function: Erase sector, erase all sectors
  31:Drivers/STM32F7xx_HAL_Driver/Src/stm32f7xx_hal_flash_ex.c ****            (++) There are two modes of erase :
  32:Drivers/STM32F7xx_HAL_Driver/Src/stm32f7xx_hal_flash_ex.c ****              (+++) Polling Mode using HAL_FLASHEx_Erase()
  33:Drivers/STM32F7xx_HAL_Driver/Src/stm32f7xx_hal_flash_ex.c ****              (+++) Interrupt Mode using HAL_FLASHEx_Erase_IT()
ARM GAS  /tmp/ccmMriQ8.s 			page 2


  34:Drivers/STM32F7xx_HAL_Driver/Src/stm32f7xx_hal_flash_ex.c ****              
  35:Drivers/STM32F7xx_HAL_Driver/Src/stm32f7xx_hal_flash_ex.c ****       (#) Option Bytes Programming functions: Use HAL_FLASHEx_OBProgram() to :
  36:Drivers/STM32F7xx_HAL_Driver/Src/stm32f7xx_hal_flash_ex.c ****            (++) Set/Reset the write protection
  37:Drivers/STM32F7xx_HAL_Driver/Src/stm32f7xx_hal_flash_ex.c ****            (++) Set the Read protection Level
  38:Drivers/STM32F7xx_HAL_Driver/Src/stm32f7xx_hal_flash_ex.c ****            (++) Set the BOR level
  39:Drivers/STM32F7xx_HAL_Driver/Src/stm32f7xx_hal_flash_ex.c ****            (++) Program the user Option Bytes
  40:Drivers/STM32F7xx_HAL_Driver/Src/stm32f7xx_hal_flash_ex.c ****   
  41:Drivers/STM32F7xx_HAL_Driver/Src/stm32f7xx_hal_flash_ex.c ****   @endverbatim
  42:Drivers/STM32F7xx_HAL_Driver/Src/stm32f7xx_hal_flash_ex.c ****   ******************************************************************************
  43:Drivers/STM32F7xx_HAL_Driver/Src/stm32f7xx_hal_flash_ex.c ****   * @attention
  44:Drivers/STM32F7xx_HAL_Driver/Src/stm32f7xx_hal_flash_ex.c ****   *
  45:Drivers/STM32F7xx_HAL_Driver/Src/stm32f7xx_hal_flash_ex.c ****   * <h2><center>&copy; COPYRIGHT(c) 2017 STMicroelectronics</center></h2>
  46:Drivers/STM32F7xx_HAL_Driver/Src/stm32f7xx_hal_flash_ex.c ****   *
  47:Drivers/STM32F7xx_HAL_Driver/Src/stm32f7xx_hal_flash_ex.c ****   * Redistribution and use in source and binary forms, with or without modification,
  48:Drivers/STM32F7xx_HAL_Driver/Src/stm32f7xx_hal_flash_ex.c ****   * are permitted provided that the following conditions are met:
  49:Drivers/STM32F7xx_HAL_Driver/Src/stm32f7xx_hal_flash_ex.c ****   *   1. Redistributions of source code must retain the above copyright notice,
  50:Drivers/STM32F7xx_HAL_Driver/Src/stm32f7xx_hal_flash_ex.c ****   *      this list of conditions and the following disclaimer.
  51:Drivers/STM32F7xx_HAL_Driver/Src/stm32f7xx_hal_flash_ex.c ****   *   2. Redistributions in binary form must reproduce the above copyright notice,
  52:Drivers/STM32F7xx_HAL_Driver/Src/stm32f7xx_hal_flash_ex.c ****   *      this list of conditions and the following disclaimer in the documentation
  53:Drivers/STM32F7xx_HAL_Driver/Src/stm32f7xx_hal_flash_ex.c ****   *      and/or other materials provided with the distribution.
  54:Drivers/STM32F7xx_HAL_Driver/Src/stm32f7xx_hal_flash_ex.c ****   *   3. Neither the name of STMicroelectronics nor the names of its contributors
  55:Drivers/STM32F7xx_HAL_Driver/Src/stm32f7xx_hal_flash_ex.c ****   *      may be used to endorse or promote products derived from this software
  56:Drivers/STM32F7xx_HAL_Driver/Src/stm32f7xx_hal_flash_ex.c ****   *      without specific prior written permission.
  57:Drivers/STM32F7xx_HAL_Driver/Src/stm32f7xx_hal_flash_ex.c ****   *
  58:Drivers/STM32F7xx_HAL_Driver/Src/stm32f7xx_hal_flash_ex.c ****   * THIS SOFTWARE IS PROVIDED BY THE COPYRIGHT HOLDERS AND CONTRIBUTORS "AS IS"
  59:Drivers/STM32F7xx_HAL_Driver/Src/stm32f7xx_hal_flash_ex.c ****   * AND ANY EXPRESS OR IMPLIED WARRANTIES, INCLUDING, BUT NOT LIMITED TO, THE
  60:Drivers/STM32F7xx_HAL_Driver/Src/stm32f7xx_hal_flash_ex.c ****   * IMPLIED WARRANTIES OF MERCHANTABILITY AND FITNESS FOR A PARTICULAR PURPOSE ARE
  61:Drivers/STM32F7xx_HAL_Driver/Src/stm32f7xx_hal_flash_ex.c ****   * DISCLAIMED. IN NO EVENT SHALL THE COPYRIGHT HOLDER OR CONTRIBUTORS BE LIABLE
  62:Drivers/STM32F7xx_HAL_Driver/Src/stm32f7xx_hal_flash_ex.c ****   * FOR ANY DIRECT, INDIRECT, INCIDENTAL, SPECIAL, EXEMPLARY, OR CONSEQUENTIAL
  63:Drivers/STM32F7xx_HAL_Driver/Src/stm32f7xx_hal_flash_ex.c ****   * DAMAGES (INCLUDING, BUT NOT LIMITED TO, PROCUREMENT OF SUBSTITUTE GOODS OR
  64:Drivers/STM32F7xx_HAL_Driver/Src/stm32f7xx_hal_flash_ex.c ****   * SERVICES; LOSS OF USE, DATA, OR PROFITS; OR BUSINESS INTERRUPTION) HOWEVER
  65:Drivers/STM32F7xx_HAL_Driver/Src/stm32f7xx_hal_flash_ex.c ****   * CAUSED AND ON ANY THEORY OF LIABILITY, WHETHER IN CONTRACT, STRICT LIABILITY,
  66:Drivers/STM32F7xx_HAL_Driver/Src/stm32f7xx_hal_flash_ex.c ****   * OR TORT (INCLUDING NEGLIGENCE OR OTHERWISE) ARISING IN ANY WAY OUT OF THE USE
  67:Drivers/STM32F7xx_HAL_Driver/Src/stm32f7xx_hal_flash_ex.c ****   * OF THIS SOFTWARE, EVEN IF ADVISED OF THE POSSIBILITY OF SUCH DAMAGE.
  68:Drivers/STM32F7xx_HAL_Driver/Src/stm32f7xx_hal_flash_ex.c ****   *
  69:Drivers/STM32F7xx_HAL_Driver/Src/stm32f7xx_hal_flash_ex.c ****   ******************************************************************************
  70:Drivers/STM32F7xx_HAL_Driver/Src/stm32f7xx_hal_flash_ex.c ****   */ 
  71:Drivers/STM32F7xx_HAL_Driver/Src/stm32f7xx_hal_flash_ex.c **** 
  72:Drivers/STM32F7xx_HAL_Driver/Src/stm32f7xx_hal_flash_ex.c **** /* Includes ------------------------------------------------------------------*/
  73:Drivers/STM32F7xx_HAL_Driver/Src/stm32f7xx_hal_flash_ex.c **** #include "stm32f7xx_hal.h"
  74:Drivers/STM32F7xx_HAL_Driver/Src/stm32f7xx_hal_flash_ex.c **** 
  75:Drivers/STM32F7xx_HAL_Driver/Src/stm32f7xx_hal_flash_ex.c **** /** @addtogroup STM32F7xx_HAL_Driver
  76:Drivers/STM32F7xx_HAL_Driver/Src/stm32f7xx_hal_flash_ex.c ****   * @{
  77:Drivers/STM32F7xx_HAL_Driver/Src/stm32f7xx_hal_flash_ex.c ****   */
  78:Drivers/STM32F7xx_HAL_Driver/Src/stm32f7xx_hal_flash_ex.c **** 
  79:Drivers/STM32F7xx_HAL_Driver/Src/stm32f7xx_hal_flash_ex.c **** /** @defgroup FLASHEx FLASHEx
  80:Drivers/STM32F7xx_HAL_Driver/Src/stm32f7xx_hal_flash_ex.c ****   * @brief FLASH HAL Extension module driver
  81:Drivers/STM32F7xx_HAL_Driver/Src/stm32f7xx_hal_flash_ex.c ****   * @{
  82:Drivers/STM32F7xx_HAL_Driver/Src/stm32f7xx_hal_flash_ex.c ****   */
  83:Drivers/STM32F7xx_HAL_Driver/Src/stm32f7xx_hal_flash_ex.c **** 
  84:Drivers/STM32F7xx_HAL_Driver/Src/stm32f7xx_hal_flash_ex.c **** #ifdef HAL_FLASH_MODULE_ENABLED
  85:Drivers/STM32F7xx_HAL_Driver/Src/stm32f7xx_hal_flash_ex.c **** 
  86:Drivers/STM32F7xx_HAL_Driver/Src/stm32f7xx_hal_flash_ex.c **** /* Private typedef -----------------------------------------------------------*/
  87:Drivers/STM32F7xx_HAL_Driver/Src/stm32f7xx_hal_flash_ex.c **** /* Private define ------------------------------------------------------------*/
  88:Drivers/STM32F7xx_HAL_Driver/Src/stm32f7xx_hal_flash_ex.c **** /** @addtogroup FLASHEx_Private_Constants
  89:Drivers/STM32F7xx_HAL_Driver/Src/stm32f7xx_hal_flash_ex.c ****   * @{
  90:Drivers/STM32F7xx_HAL_Driver/Src/stm32f7xx_hal_flash_ex.c ****   */    
ARM GAS  /tmp/ccmMriQ8.s 			page 3


  91:Drivers/STM32F7xx_HAL_Driver/Src/stm32f7xx_hal_flash_ex.c **** #define SECTOR_MASK               0xFFFFFF07U
  92:Drivers/STM32F7xx_HAL_Driver/Src/stm32f7xx_hal_flash_ex.c **** #define FLASH_TIMEOUT_VALUE       50000U/* 50 s */
  93:Drivers/STM32F7xx_HAL_Driver/Src/stm32f7xx_hal_flash_ex.c **** /**
  94:Drivers/STM32F7xx_HAL_Driver/Src/stm32f7xx_hal_flash_ex.c ****   * @}
  95:Drivers/STM32F7xx_HAL_Driver/Src/stm32f7xx_hal_flash_ex.c ****   */
  96:Drivers/STM32F7xx_HAL_Driver/Src/stm32f7xx_hal_flash_ex.c ****     
  97:Drivers/STM32F7xx_HAL_Driver/Src/stm32f7xx_hal_flash_ex.c **** /* Private macro -------------------------------------------------------------*/
  98:Drivers/STM32F7xx_HAL_Driver/Src/stm32f7xx_hal_flash_ex.c **** /* Private variables ---------------------------------------------------------*/
  99:Drivers/STM32F7xx_HAL_Driver/Src/stm32f7xx_hal_flash_ex.c **** /** @addtogroup FLASHEx_Private_Variables
 100:Drivers/STM32F7xx_HAL_Driver/Src/stm32f7xx_hal_flash_ex.c ****   * @{
 101:Drivers/STM32F7xx_HAL_Driver/Src/stm32f7xx_hal_flash_ex.c ****   */    
 102:Drivers/STM32F7xx_HAL_Driver/Src/stm32f7xx_hal_flash_ex.c **** extern FLASH_ProcessTypeDef pFlash;
 103:Drivers/STM32F7xx_HAL_Driver/Src/stm32f7xx_hal_flash_ex.c **** /**
 104:Drivers/STM32F7xx_HAL_Driver/Src/stm32f7xx_hal_flash_ex.c ****   * @}
 105:Drivers/STM32F7xx_HAL_Driver/Src/stm32f7xx_hal_flash_ex.c ****   */
 106:Drivers/STM32F7xx_HAL_Driver/Src/stm32f7xx_hal_flash_ex.c **** 
 107:Drivers/STM32F7xx_HAL_Driver/Src/stm32f7xx_hal_flash_ex.c **** /* Private function prototypes -----------------------------------------------*/
 108:Drivers/STM32F7xx_HAL_Driver/Src/stm32f7xx_hal_flash_ex.c **** /** @addtogroup FLASHEx_Private_Functions
 109:Drivers/STM32F7xx_HAL_Driver/Src/stm32f7xx_hal_flash_ex.c ****   * @{
 110:Drivers/STM32F7xx_HAL_Driver/Src/stm32f7xx_hal_flash_ex.c ****   */
 111:Drivers/STM32F7xx_HAL_Driver/Src/stm32f7xx_hal_flash_ex.c **** /* Option bytes control */
 112:Drivers/STM32F7xx_HAL_Driver/Src/stm32f7xx_hal_flash_ex.c **** static HAL_StatusTypeDef  FLASH_OB_EnableWRP(uint32_t WRPSector);
 113:Drivers/STM32F7xx_HAL_Driver/Src/stm32f7xx_hal_flash_ex.c **** static HAL_StatusTypeDef  FLASH_OB_DisableWRP(uint32_t WRPSector);
 114:Drivers/STM32F7xx_HAL_Driver/Src/stm32f7xx_hal_flash_ex.c **** static HAL_StatusTypeDef  FLASH_OB_RDP_LevelConfig(uint8_t Level);
 115:Drivers/STM32F7xx_HAL_Driver/Src/stm32f7xx_hal_flash_ex.c **** static HAL_StatusTypeDef  FLASH_OB_BOR_LevelConfig(uint8_t Level);
 116:Drivers/STM32F7xx_HAL_Driver/Src/stm32f7xx_hal_flash_ex.c **** static HAL_StatusTypeDef  FLASH_OB_BootAddressConfig(uint32_t BootOption, uint32_t Address);
 117:Drivers/STM32F7xx_HAL_Driver/Src/stm32f7xx_hal_flash_ex.c **** static uint32_t           FLASH_OB_GetUser(void);
 118:Drivers/STM32F7xx_HAL_Driver/Src/stm32f7xx_hal_flash_ex.c **** static uint32_t           FLASH_OB_GetWRP(void);
 119:Drivers/STM32F7xx_HAL_Driver/Src/stm32f7xx_hal_flash_ex.c **** static uint8_t            FLASH_OB_GetRDP(void);
 120:Drivers/STM32F7xx_HAL_Driver/Src/stm32f7xx_hal_flash_ex.c **** static uint32_t           FLASH_OB_GetBOR(void);
 121:Drivers/STM32F7xx_HAL_Driver/Src/stm32f7xx_hal_flash_ex.c **** static uint32_t           FLASH_OB_GetBootAddress(uint32_t BootOption);
 122:Drivers/STM32F7xx_HAL_Driver/Src/stm32f7xx_hal_flash_ex.c **** 
 123:Drivers/STM32F7xx_HAL_Driver/Src/stm32f7xx_hal_flash_ex.c **** #if defined (FLASH_OPTCR_nDBANK)
 124:Drivers/STM32F7xx_HAL_Driver/Src/stm32f7xx_hal_flash_ex.c **** static void               FLASH_MassErase(uint8_t VoltageRange, uint32_t Banks);
 125:Drivers/STM32F7xx_HAL_Driver/Src/stm32f7xx_hal_flash_ex.c **** static HAL_StatusTypeDef  FLASH_OB_UserConfig(uint32_t Wwdg, uint32_t Iwdg, uint32_t Stop, uint32_t
 126:Drivers/STM32F7xx_HAL_Driver/Src/stm32f7xx_hal_flash_ex.c ****                                               uint32_t Iwdgstdby, uint32_t NDBank, uint32_t NDBoot)
 127:Drivers/STM32F7xx_HAL_Driver/Src/stm32f7xx_hal_flash_ex.c **** #else
 128:Drivers/STM32F7xx_HAL_Driver/Src/stm32f7xx_hal_flash_ex.c **** static void               FLASH_MassErase(uint8_t VoltageRange);
 129:Drivers/STM32F7xx_HAL_Driver/Src/stm32f7xx_hal_flash_ex.c **** static HAL_StatusTypeDef  FLASH_OB_UserConfig(uint32_t Wwdg, uint32_t Iwdg, uint32_t Stop, uint32_t
 130:Drivers/STM32F7xx_HAL_Driver/Src/stm32f7xx_hal_flash_ex.c **** #endif /* FLASH_OPTCR_nDBANK */
 131:Drivers/STM32F7xx_HAL_Driver/Src/stm32f7xx_hal_flash_ex.c **** 
 132:Drivers/STM32F7xx_HAL_Driver/Src/stm32f7xx_hal_flash_ex.c **** #if defined (FLASH_OPTCR2_PCROP)
 133:Drivers/STM32F7xx_HAL_Driver/Src/stm32f7xx_hal_flash_ex.c **** static HAL_StatusTypeDef  FLASH_OB_PCROP_Config(uint32_t PCROPSector);
 134:Drivers/STM32F7xx_HAL_Driver/Src/stm32f7xx_hal_flash_ex.c **** static HAL_StatusTypeDef  FLASH_OB_PCROP_RDP_Config(uint32_t Pcrop_Rdp);
 135:Drivers/STM32F7xx_HAL_Driver/Src/stm32f7xx_hal_flash_ex.c **** static uint32_t           FLASH_OB_GetPCROP(void);
 136:Drivers/STM32F7xx_HAL_Driver/Src/stm32f7xx_hal_flash_ex.c **** static uint32_t           FLASH_OB_GetPCROPRDP(void);
 137:Drivers/STM32F7xx_HAL_Driver/Src/stm32f7xx_hal_flash_ex.c **** #endif /* FLASH_OPTCR2_PCROP */
 138:Drivers/STM32F7xx_HAL_Driver/Src/stm32f7xx_hal_flash_ex.c **** 
 139:Drivers/STM32F7xx_HAL_Driver/Src/stm32f7xx_hal_flash_ex.c **** extern HAL_StatusTypeDef  FLASH_WaitForLastOperation(uint32_t Timeout);
 140:Drivers/STM32F7xx_HAL_Driver/Src/stm32f7xx_hal_flash_ex.c **** /**
 141:Drivers/STM32F7xx_HAL_Driver/Src/stm32f7xx_hal_flash_ex.c ****   * @}
 142:Drivers/STM32F7xx_HAL_Driver/Src/stm32f7xx_hal_flash_ex.c ****   */
 143:Drivers/STM32F7xx_HAL_Driver/Src/stm32f7xx_hal_flash_ex.c **** 
 144:Drivers/STM32F7xx_HAL_Driver/Src/stm32f7xx_hal_flash_ex.c **** /* Exported functions --------------------------------------------------------*/
 145:Drivers/STM32F7xx_HAL_Driver/Src/stm32f7xx_hal_flash_ex.c **** /** @defgroup FLASHEx_Exported_Functions FLASHEx Exported Functions
 146:Drivers/STM32F7xx_HAL_Driver/Src/stm32f7xx_hal_flash_ex.c ****   * @{
 147:Drivers/STM32F7xx_HAL_Driver/Src/stm32f7xx_hal_flash_ex.c ****   */
ARM GAS  /tmp/ccmMriQ8.s 			page 4


 148:Drivers/STM32F7xx_HAL_Driver/Src/stm32f7xx_hal_flash_ex.c **** 
 149:Drivers/STM32F7xx_HAL_Driver/Src/stm32f7xx_hal_flash_ex.c **** /** @defgroup FLASHEx_Exported_Functions_Group1 Extended IO operation functions
 150:Drivers/STM32F7xx_HAL_Driver/Src/stm32f7xx_hal_flash_ex.c ****  *  @brief   Extended IO operation functions 
 151:Drivers/STM32F7xx_HAL_Driver/Src/stm32f7xx_hal_flash_ex.c ****  *
 152:Drivers/STM32F7xx_HAL_Driver/Src/stm32f7xx_hal_flash_ex.c **** @verbatim   
 153:Drivers/STM32F7xx_HAL_Driver/Src/stm32f7xx_hal_flash_ex.c ****  ===============================================================================
 154:Drivers/STM32F7xx_HAL_Driver/Src/stm32f7xx_hal_flash_ex.c ****                 ##### Extended programming operation functions #####
 155:Drivers/STM32F7xx_HAL_Driver/Src/stm32f7xx_hal_flash_ex.c ****  ===============================================================================  
 156:Drivers/STM32F7xx_HAL_Driver/Src/stm32f7xx_hal_flash_ex.c ****     [..]
 157:Drivers/STM32F7xx_HAL_Driver/Src/stm32f7xx_hal_flash_ex.c ****     This subsection provides a set of functions allowing to manage the Extension FLASH 
 158:Drivers/STM32F7xx_HAL_Driver/Src/stm32f7xx_hal_flash_ex.c ****     programming operations Operations.
 159:Drivers/STM32F7xx_HAL_Driver/Src/stm32f7xx_hal_flash_ex.c **** 
 160:Drivers/STM32F7xx_HAL_Driver/Src/stm32f7xx_hal_flash_ex.c **** @endverbatim
 161:Drivers/STM32F7xx_HAL_Driver/Src/stm32f7xx_hal_flash_ex.c ****   * @{
 162:Drivers/STM32F7xx_HAL_Driver/Src/stm32f7xx_hal_flash_ex.c ****   */
 163:Drivers/STM32F7xx_HAL_Driver/Src/stm32f7xx_hal_flash_ex.c **** /**
 164:Drivers/STM32F7xx_HAL_Driver/Src/stm32f7xx_hal_flash_ex.c ****   * @brief  Perform a mass erase or erase the specified FLASH memory sectors 
 165:Drivers/STM32F7xx_HAL_Driver/Src/stm32f7xx_hal_flash_ex.c ****   * @param[in]  pEraseInit: pointer to an FLASH_EraseInitTypeDef structure that
 166:Drivers/STM32F7xx_HAL_Driver/Src/stm32f7xx_hal_flash_ex.c ****   *         contains the configuration information for the erasing.
 167:Drivers/STM32F7xx_HAL_Driver/Src/stm32f7xx_hal_flash_ex.c ****   * 
 168:Drivers/STM32F7xx_HAL_Driver/Src/stm32f7xx_hal_flash_ex.c ****   * @param[out]  SectorError: pointer to variable  that
 169:Drivers/STM32F7xx_HAL_Driver/Src/stm32f7xx_hal_flash_ex.c ****   *         contains the configuration information on faulty sector in case of error 
 170:Drivers/STM32F7xx_HAL_Driver/Src/stm32f7xx_hal_flash_ex.c ****   *         (0xFFFFFFFF means that all the sectors have been correctly erased)
 171:Drivers/STM32F7xx_HAL_Driver/Src/stm32f7xx_hal_flash_ex.c ****   * 
 172:Drivers/STM32F7xx_HAL_Driver/Src/stm32f7xx_hal_flash_ex.c ****   * @retval HAL Status
 173:Drivers/STM32F7xx_HAL_Driver/Src/stm32f7xx_hal_flash_ex.c ****   */
 174:Drivers/STM32F7xx_HAL_Driver/Src/stm32f7xx_hal_flash_ex.c **** HAL_StatusTypeDef HAL_FLASHEx_Erase(FLASH_EraseInitTypeDef *pEraseInit, uint32_t *SectorError)
 175:Drivers/STM32F7xx_HAL_Driver/Src/stm32f7xx_hal_flash_ex.c **** {
 176:Drivers/STM32F7xx_HAL_Driver/Src/stm32f7xx_hal_flash_ex.c ****   HAL_StatusTypeDef status = HAL_ERROR;
 177:Drivers/STM32F7xx_HAL_Driver/Src/stm32f7xx_hal_flash_ex.c ****   uint32_t index = 0;
 178:Drivers/STM32F7xx_HAL_Driver/Src/stm32f7xx_hal_flash_ex.c ****   
 179:Drivers/STM32F7xx_HAL_Driver/Src/stm32f7xx_hal_flash_ex.c ****   /* Process Locked */
 180:Drivers/STM32F7xx_HAL_Driver/Src/stm32f7xx_hal_flash_ex.c ****   __HAL_LOCK(&pFlash);
 181:Drivers/STM32F7xx_HAL_Driver/Src/stm32f7xx_hal_flash_ex.c **** 
 182:Drivers/STM32F7xx_HAL_Driver/Src/stm32f7xx_hal_flash_ex.c ****   /* Check the parameters */
 183:Drivers/STM32F7xx_HAL_Driver/Src/stm32f7xx_hal_flash_ex.c ****   assert_param(IS_FLASH_TYPEERASE(pEraseInit->TypeErase));
 184:Drivers/STM32F7xx_HAL_Driver/Src/stm32f7xx_hal_flash_ex.c **** 
 185:Drivers/STM32F7xx_HAL_Driver/Src/stm32f7xx_hal_flash_ex.c ****   /* Wait for last operation to be completed */
 186:Drivers/STM32F7xx_HAL_Driver/Src/stm32f7xx_hal_flash_ex.c ****   status = FLASH_WaitForLastOperation((uint32_t)FLASH_TIMEOUT_VALUE);
 187:Drivers/STM32F7xx_HAL_Driver/Src/stm32f7xx_hal_flash_ex.c **** 
 188:Drivers/STM32F7xx_HAL_Driver/Src/stm32f7xx_hal_flash_ex.c ****   if(status == HAL_OK)
 189:Drivers/STM32F7xx_HAL_Driver/Src/stm32f7xx_hal_flash_ex.c ****   {
 190:Drivers/STM32F7xx_HAL_Driver/Src/stm32f7xx_hal_flash_ex.c ****     /*Initialization of SectorError variable*/
 191:Drivers/STM32F7xx_HAL_Driver/Src/stm32f7xx_hal_flash_ex.c ****     *SectorError = 0xFFFFFFFFU;
 192:Drivers/STM32F7xx_HAL_Driver/Src/stm32f7xx_hal_flash_ex.c ****     
 193:Drivers/STM32F7xx_HAL_Driver/Src/stm32f7xx_hal_flash_ex.c ****     if(pEraseInit->TypeErase == FLASH_TYPEERASE_MASSERASE)
 194:Drivers/STM32F7xx_HAL_Driver/Src/stm32f7xx_hal_flash_ex.c ****     {
 195:Drivers/STM32F7xx_HAL_Driver/Src/stm32f7xx_hal_flash_ex.c ****       /*Mass erase to be done*/
 196:Drivers/STM32F7xx_HAL_Driver/Src/stm32f7xx_hal_flash_ex.c **** #if defined (FLASH_OPTCR_nDBANK)      
 197:Drivers/STM32F7xx_HAL_Driver/Src/stm32f7xx_hal_flash_ex.c ****       FLASH_MassErase((uint8_t) pEraseInit->VoltageRange, pEraseInit->Banks);
 198:Drivers/STM32F7xx_HAL_Driver/Src/stm32f7xx_hal_flash_ex.c **** #else
 199:Drivers/STM32F7xx_HAL_Driver/Src/stm32f7xx_hal_flash_ex.c ****       FLASH_MassErase((uint8_t) pEraseInit->VoltageRange);      
 200:Drivers/STM32F7xx_HAL_Driver/Src/stm32f7xx_hal_flash_ex.c **** #endif /* FLASH_OPTCR_nDBANK */
 201:Drivers/STM32F7xx_HAL_Driver/Src/stm32f7xx_hal_flash_ex.c ****                       
 202:Drivers/STM32F7xx_HAL_Driver/Src/stm32f7xx_hal_flash_ex.c ****       /* Wait for last operation to be completed */
 203:Drivers/STM32F7xx_HAL_Driver/Src/stm32f7xx_hal_flash_ex.c ****       status = FLASH_WaitForLastOperation((uint32_t)FLASH_TIMEOUT_VALUE);
 204:Drivers/STM32F7xx_HAL_Driver/Src/stm32f7xx_hal_flash_ex.c ****       
ARM GAS  /tmp/ccmMriQ8.s 			page 5


 205:Drivers/STM32F7xx_HAL_Driver/Src/stm32f7xx_hal_flash_ex.c ****       /* if the erase operation is completed, disable the MER Bit */
 206:Drivers/STM32F7xx_HAL_Driver/Src/stm32f7xx_hal_flash_ex.c ****       FLASH->CR &= (~FLASH_MER_BIT);
 207:Drivers/STM32F7xx_HAL_Driver/Src/stm32f7xx_hal_flash_ex.c ****     }
 208:Drivers/STM32F7xx_HAL_Driver/Src/stm32f7xx_hal_flash_ex.c ****     else
 209:Drivers/STM32F7xx_HAL_Driver/Src/stm32f7xx_hal_flash_ex.c ****     {
 210:Drivers/STM32F7xx_HAL_Driver/Src/stm32f7xx_hal_flash_ex.c ****       /* Check the parameters */
 211:Drivers/STM32F7xx_HAL_Driver/Src/stm32f7xx_hal_flash_ex.c ****       assert_param(IS_FLASH_NBSECTORS(pEraseInit->NbSectors + pEraseInit->Sector));
 212:Drivers/STM32F7xx_HAL_Driver/Src/stm32f7xx_hal_flash_ex.c **** 
 213:Drivers/STM32F7xx_HAL_Driver/Src/stm32f7xx_hal_flash_ex.c ****       /* Erase by sector by sector to be done*/
 214:Drivers/STM32F7xx_HAL_Driver/Src/stm32f7xx_hal_flash_ex.c ****       for(index = pEraseInit->Sector; index < (pEraseInit->NbSectors + pEraseInit->Sector); index++
 215:Drivers/STM32F7xx_HAL_Driver/Src/stm32f7xx_hal_flash_ex.c ****       {
 216:Drivers/STM32F7xx_HAL_Driver/Src/stm32f7xx_hal_flash_ex.c ****         FLASH_Erase_Sector(index, (uint8_t) pEraseInit->VoltageRange);
 217:Drivers/STM32F7xx_HAL_Driver/Src/stm32f7xx_hal_flash_ex.c **** 
 218:Drivers/STM32F7xx_HAL_Driver/Src/stm32f7xx_hal_flash_ex.c ****         /* Wait for last operation to be completed */
 219:Drivers/STM32F7xx_HAL_Driver/Src/stm32f7xx_hal_flash_ex.c ****         status = FLASH_WaitForLastOperation((uint32_t)FLASH_TIMEOUT_VALUE);
 220:Drivers/STM32F7xx_HAL_Driver/Src/stm32f7xx_hal_flash_ex.c ****         
 221:Drivers/STM32F7xx_HAL_Driver/Src/stm32f7xx_hal_flash_ex.c ****         /* If the erase operation is completed, disable the SER Bit and SNB Bits */
 222:Drivers/STM32F7xx_HAL_Driver/Src/stm32f7xx_hal_flash_ex.c ****         CLEAR_BIT(FLASH->CR, (FLASH_CR_SER | FLASH_CR_SNB)); 
 223:Drivers/STM32F7xx_HAL_Driver/Src/stm32f7xx_hal_flash_ex.c **** 
 224:Drivers/STM32F7xx_HAL_Driver/Src/stm32f7xx_hal_flash_ex.c ****         if(status != HAL_OK) 
 225:Drivers/STM32F7xx_HAL_Driver/Src/stm32f7xx_hal_flash_ex.c ****         {
 226:Drivers/STM32F7xx_HAL_Driver/Src/stm32f7xx_hal_flash_ex.c ****           /* In case of error, stop erase procedure and return the faulty sector*/
 227:Drivers/STM32F7xx_HAL_Driver/Src/stm32f7xx_hal_flash_ex.c ****           *SectorError = index;
 228:Drivers/STM32F7xx_HAL_Driver/Src/stm32f7xx_hal_flash_ex.c ****           break;
 229:Drivers/STM32F7xx_HAL_Driver/Src/stm32f7xx_hal_flash_ex.c ****         }
 230:Drivers/STM32F7xx_HAL_Driver/Src/stm32f7xx_hal_flash_ex.c ****       }
 231:Drivers/STM32F7xx_HAL_Driver/Src/stm32f7xx_hal_flash_ex.c ****     }
 232:Drivers/STM32F7xx_HAL_Driver/Src/stm32f7xx_hal_flash_ex.c ****   }
 233:Drivers/STM32F7xx_HAL_Driver/Src/stm32f7xx_hal_flash_ex.c **** 
 234:Drivers/STM32F7xx_HAL_Driver/Src/stm32f7xx_hal_flash_ex.c ****   /* Process Unlocked */
 235:Drivers/STM32F7xx_HAL_Driver/Src/stm32f7xx_hal_flash_ex.c ****   __HAL_UNLOCK(&pFlash);
 236:Drivers/STM32F7xx_HAL_Driver/Src/stm32f7xx_hal_flash_ex.c **** 
 237:Drivers/STM32F7xx_HAL_Driver/Src/stm32f7xx_hal_flash_ex.c ****   return status;
 238:Drivers/STM32F7xx_HAL_Driver/Src/stm32f7xx_hal_flash_ex.c **** }
 239:Drivers/STM32F7xx_HAL_Driver/Src/stm32f7xx_hal_flash_ex.c **** 
 240:Drivers/STM32F7xx_HAL_Driver/Src/stm32f7xx_hal_flash_ex.c **** /**
 241:Drivers/STM32F7xx_HAL_Driver/Src/stm32f7xx_hal_flash_ex.c ****   * @brief  Perform a mass erase or erase the specified FLASH memory sectors  with interrupt enable
 242:Drivers/STM32F7xx_HAL_Driver/Src/stm32f7xx_hal_flash_ex.c ****   * @param  pEraseInit: pointer to an FLASH_EraseInitTypeDef structure that
 243:Drivers/STM32F7xx_HAL_Driver/Src/stm32f7xx_hal_flash_ex.c ****   *         contains the configuration information for the erasing.
 244:Drivers/STM32F7xx_HAL_Driver/Src/stm32f7xx_hal_flash_ex.c ****   * 
 245:Drivers/STM32F7xx_HAL_Driver/Src/stm32f7xx_hal_flash_ex.c ****   * @retval HAL Status
 246:Drivers/STM32F7xx_HAL_Driver/Src/stm32f7xx_hal_flash_ex.c ****   */
 247:Drivers/STM32F7xx_HAL_Driver/Src/stm32f7xx_hal_flash_ex.c **** HAL_StatusTypeDef HAL_FLASHEx_Erase_IT(FLASH_EraseInitTypeDef *pEraseInit)
 248:Drivers/STM32F7xx_HAL_Driver/Src/stm32f7xx_hal_flash_ex.c **** {
 249:Drivers/STM32F7xx_HAL_Driver/Src/stm32f7xx_hal_flash_ex.c ****   HAL_StatusTypeDef status = HAL_OK;
 250:Drivers/STM32F7xx_HAL_Driver/Src/stm32f7xx_hal_flash_ex.c **** 
 251:Drivers/STM32F7xx_HAL_Driver/Src/stm32f7xx_hal_flash_ex.c ****   /* Process Locked */
 252:Drivers/STM32F7xx_HAL_Driver/Src/stm32f7xx_hal_flash_ex.c ****   __HAL_LOCK(&pFlash);
 253:Drivers/STM32F7xx_HAL_Driver/Src/stm32f7xx_hal_flash_ex.c **** 
 254:Drivers/STM32F7xx_HAL_Driver/Src/stm32f7xx_hal_flash_ex.c ****   /* Check the parameters */
 255:Drivers/STM32F7xx_HAL_Driver/Src/stm32f7xx_hal_flash_ex.c ****   assert_param(IS_FLASH_TYPEERASE(pEraseInit->TypeErase));
 256:Drivers/STM32F7xx_HAL_Driver/Src/stm32f7xx_hal_flash_ex.c **** 
 257:Drivers/STM32F7xx_HAL_Driver/Src/stm32f7xx_hal_flash_ex.c ****   /* Enable End of FLASH Operation interrupt */
 258:Drivers/STM32F7xx_HAL_Driver/Src/stm32f7xx_hal_flash_ex.c ****   __HAL_FLASH_ENABLE_IT(FLASH_IT_EOP);
 259:Drivers/STM32F7xx_HAL_Driver/Src/stm32f7xx_hal_flash_ex.c ****   
 260:Drivers/STM32F7xx_HAL_Driver/Src/stm32f7xx_hal_flash_ex.c ****   /* Enable Error source interrupt */
 261:Drivers/STM32F7xx_HAL_Driver/Src/stm32f7xx_hal_flash_ex.c ****   __HAL_FLASH_ENABLE_IT(FLASH_IT_ERR);
ARM GAS  /tmp/ccmMriQ8.s 			page 6


 262:Drivers/STM32F7xx_HAL_Driver/Src/stm32f7xx_hal_flash_ex.c ****   
 263:Drivers/STM32F7xx_HAL_Driver/Src/stm32f7xx_hal_flash_ex.c ****   /* Clear pending flags (if any) */  
 264:Drivers/STM32F7xx_HAL_Driver/Src/stm32f7xx_hal_flash_ex.c ****   __HAL_FLASH_CLEAR_FLAG(FLASH_FLAG_EOP    | FLASH_FLAG_OPERR | FLASH_FLAG_WRPERR |\
 265:Drivers/STM32F7xx_HAL_Driver/Src/stm32f7xx_hal_flash_ex.c ****                          FLASH_FLAG_PGAERR | FLASH_FLAG_PGPERR| FLASH_FLAG_ERSERR);  
 266:Drivers/STM32F7xx_HAL_Driver/Src/stm32f7xx_hal_flash_ex.c ****   
 267:Drivers/STM32F7xx_HAL_Driver/Src/stm32f7xx_hal_flash_ex.c ****   if(pEraseInit->TypeErase == FLASH_TYPEERASE_MASSERASE)
 268:Drivers/STM32F7xx_HAL_Driver/Src/stm32f7xx_hal_flash_ex.c ****   {
 269:Drivers/STM32F7xx_HAL_Driver/Src/stm32f7xx_hal_flash_ex.c ****     /*Mass erase to be done*/
 270:Drivers/STM32F7xx_HAL_Driver/Src/stm32f7xx_hal_flash_ex.c ****     pFlash.ProcedureOnGoing = FLASH_PROC_MASSERASE;
 271:Drivers/STM32F7xx_HAL_Driver/Src/stm32f7xx_hal_flash_ex.c **** #if defined (FLASH_OPTCR_nDBANK)    
 272:Drivers/STM32F7xx_HAL_Driver/Src/stm32f7xx_hal_flash_ex.c ****     FLASH_MassErase((uint8_t) pEraseInit->VoltageRange, pEraseInit->Banks);
 273:Drivers/STM32F7xx_HAL_Driver/Src/stm32f7xx_hal_flash_ex.c **** #else
 274:Drivers/STM32F7xx_HAL_Driver/Src/stm32f7xx_hal_flash_ex.c ****     FLASH_MassErase((uint8_t) pEraseInit->VoltageRange);      
 275:Drivers/STM32F7xx_HAL_Driver/Src/stm32f7xx_hal_flash_ex.c **** #endif /* FLASH_OPTCR_nDBANK */    
 276:Drivers/STM32F7xx_HAL_Driver/Src/stm32f7xx_hal_flash_ex.c ****   }
 277:Drivers/STM32F7xx_HAL_Driver/Src/stm32f7xx_hal_flash_ex.c ****   else
 278:Drivers/STM32F7xx_HAL_Driver/Src/stm32f7xx_hal_flash_ex.c ****   {
 279:Drivers/STM32F7xx_HAL_Driver/Src/stm32f7xx_hal_flash_ex.c ****     /* Erase by sector to be done*/
 280:Drivers/STM32F7xx_HAL_Driver/Src/stm32f7xx_hal_flash_ex.c **** 
 281:Drivers/STM32F7xx_HAL_Driver/Src/stm32f7xx_hal_flash_ex.c ****     /* Check the parameters */
 282:Drivers/STM32F7xx_HAL_Driver/Src/stm32f7xx_hal_flash_ex.c ****     assert_param(IS_FLASH_NBSECTORS(pEraseInit->NbSectors + pEraseInit->Sector));
 283:Drivers/STM32F7xx_HAL_Driver/Src/stm32f7xx_hal_flash_ex.c **** 
 284:Drivers/STM32F7xx_HAL_Driver/Src/stm32f7xx_hal_flash_ex.c ****     pFlash.ProcedureOnGoing = FLASH_PROC_SECTERASE;
 285:Drivers/STM32F7xx_HAL_Driver/Src/stm32f7xx_hal_flash_ex.c ****     pFlash.NbSectorsToErase = pEraseInit->NbSectors;
 286:Drivers/STM32F7xx_HAL_Driver/Src/stm32f7xx_hal_flash_ex.c ****     pFlash.Sector = pEraseInit->Sector;
 287:Drivers/STM32F7xx_HAL_Driver/Src/stm32f7xx_hal_flash_ex.c ****     pFlash.VoltageForErase = (uint8_t)pEraseInit->VoltageRange;
 288:Drivers/STM32F7xx_HAL_Driver/Src/stm32f7xx_hal_flash_ex.c **** 
 289:Drivers/STM32F7xx_HAL_Driver/Src/stm32f7xx_hal_flash_ex.c ****     /*Erase 1st sector and wait for IT*/
 290:Drivers/STM32F7xx_HAL_Driver/Src/stm32f7xx_hal_flash_ex.c ****     FLASH_Erase_Sector(pEraseInit->Sector, pEraseInit->VoltageRange);
 291:Drivers/STM32F7xx_HAL_Driver/Src/stm32f7xx_hal_flash_ex.c ****   }
 292:Drivers/STM32F7xx_HAL_Driver/Src/stm32f7xx_hal_flash_ex.c **** 
 293:Drivers/STM32F7xx_HAL_Driver/Src/stm32f7xx_hal_flash_ex.c ****   return status;
 294:Drivers/STM32F7xx_HAL_Driver/Src/stm32f7xx_hal_flash_ex.c **** }
 295:Drivers/STM32F7xx_HAL_Driver/Src/stm32f7xx_hal_flash_ex.c **** 
 296:Drivers/STM32F7xx_HAL_Driver/Src/stm32f7xx_hal_flash_ex.c **** /**
 297:Drivers/STM32F7xx_HAL_Driver/Src/stm32f7xx_hal_flash_ex.c ****   * @brief  Program option bytes
 298:Drivers/STM32F7xx_HAL_Driver/Src/stm32f7xx_hal_flash_ex.c ****   * @param  pOBInit: pointer to an FLASH_OBInitStruct structure that
 299:Drivers/STM32F7xx_HAL_Driver/Src/stm32f7xx_hal_flash_ex.c ****   *         contains the configuration information for the programming.
 300:Drivers/STM32F7xx_HAL_Driver/Src/stm32f7xx_hal_flash_ex.c ****   * 
 301:Drivers/STM32F7xx_HAL_Driver/Src/stm32f7xx_hal_flash_ex.c ****   * @retval HAL Status
 302:Drivers/STM32F7xx_HAL_Driver/Src/stm32f7xx_hal_flash_ex.c ****   */
 303:Drivers/STM32F7xx_HAL_Driver/Src/stm32f7xx_hal_flash_ex.c **** HAL_StatusTypeDef HAL_FLASHEx_OBProgram(FLASH_OBProgramInitTypeDef *pOBInit)
 304:Drivers/STM32F7xx_HAL_Driver/Src/stm32f7xx_hal_flash_ex.c **** {
 305:Drivers/STM32F7xx_HAL_Driver/Src/stm32f7xx_hal_flash_ex.c ****   HAL_StatusTypeDef status = HAL_ERROR;
 306:Drivers/STM32F7xx_HAL_Driver/Src/stm32f7xx_hal_flash_ex.c ****   
 307:Drivers/STM32F7xx_HAL_Driver/Src/stm32f7xx_hal_flash_ex.c ****   /* Process Locked */
 308:Drivers/STM32F7xx_HAL_Driver/Src/stm32f7xx_hal_flash_ex.c ****   __HAL_LOCK(&pFlash);
 309:Drivers/STM32F7xx_HAL_Driver/Src/stm32f7xx_hal_flash_ex.c **** 
 310:Drivers/STM32F7xx_HAL_Driver/Src/stm32f7xx_hal_flash_ex.c ****   /* Check the parameters */
 311:Drivers/STM32F7xx_HAL_Driver/Src/stm32f7xx_hal_flash_ex.c ****   assert_param(IS_OPTIONBYTE(pOBInit->OptionType));
 312:Drivers/STM32F7xx_HAL_Driver/Src/stm32f7xx_hal_flash_ex.c **** 
 313:Drivers/STM32F7xx_HAL_Driver/Src/stm32f7xx_hal_flash_ex.c ****   /* Write protection configuration */
 314:Drivers/STM32F7xx_HAL_Driver/Src/stm32f7xx_hal_flash_ex.c ****   if((pOBInit->OptionType & OPTIONBYTE_WRP) == OPTIONBYTE_WRP)
 315:Drivers/STM32F7xx_HAL_Driver/Src/stm32f7xx_hal_flash_ex.c ****   {
 316:Drivers/STM32F7xx_HAL_Driver/Src/stm32f7xx_hal_flash_ex.c ****     assert_param(IS_WRPSTATE(pOBInit->WRPState));
 317:Drivers/STM32F7xx_HAL_Driver/Src/stm32f7xx_hal_flash_ex.c ****     if(pOBInit->WRPState == OB_WRPSTATE_ENABLE)
 318:Drivers/STM32F7xx_HAL_Driver/Src/stm32f7xx_hal_flash_ex.c ****     {
ARM GAS  /tmp/ccmMriQ8.s 			page 7


 319:Drivers/STM32F7xx_HAL_Driver/Src/stm32f7xx_hal_flash_ex.c ****       /*Enable of Write protection on the selected Sector*/
 320:Drivers/STM32F7xx_HAL_Driver/Src/stm32f7xx_hal_flash_ex.c ****       status = FLASH_OB_EnableWRP(pOBInit->WRPSector);
 321:Drivers/STM32F7xx_HAL_Driver/Src/stm32f7xx_hal_flash_ex.c ****     }
 322:Drivers/STM32F7xx_HAL_Driver/Src/stm32f7xx_hal_flash_ex.c ****     else
 323:Drivers/STM32F7xx_HAL_Driver/Src/stm32f7xx_hal_flash_ex.c ****     {
 324:Drivers/STM32F7xx_HAL_Driver/Src/stm32f7xx_hal_flash_ex.c ****       /*Disable of Write protection on the selected Sector*/
 325:Drivers/STM32F7xx_HAL_Driver/Src/stm32f7xx_hal_flash_ex.c ****       status = FLASH_OB_DisableWRP(pOBInit->WRPSector);
 326:Drivers/STM32F7xx_HAL_Driver/Src/stm32f7xx_hal_flash_ex.c ****     }
 327:Drivers/STM32F7xx_HAL_Driver/Src/stm32f7xx_hal_flash_ex.c ****   }
 328:Drivers/STM32F7xx_HAL_Driver/Src/stm32f7xx_hal_flash_ex.c **** 
 329:Drivers/STM32F7xx_HAL_Driver/Src/stm32f7xx_hal_flash_ex.c ****   /* Read protection configuration */
 330:Drivers/STM32F7xx_HAL_Driver/Src/stm32f7xx_hal_flash_ex.c ****   if((pOBInit->OptionType & OPTIONBYTE_RDP) == OPTIONBYTE_RDP)
 331:Drivers/STM32F7xx_HAL_Driver/Src/stm32f7xx_hal_flash_ex.c ****   {
 332:Drivers/STM32F7xx_HAL_Driver/Src/stm32f7xx_hal_flash_ex.c ****     status = FLASH_OB_RDP_LevelConfig(pOBInit->RDPLevel);
 333:Drivers/STM32F7xx_HAL_Driver/Src/stm32f7xx_hal_flash_ex.c ****   }
 334:Drivers/STM32F7xx_HAL_Driver/Src/stm32f7xx_hal_flash_ex.c **** 
 335:Drivers/STM32F7xx_HAL_Driver/Src/stm32f7xx_hal_flash_ex.c ****   /* USER  configuration */
 336:Drivers/STM32F7xx_HAL_Driver/Src/stm32f7xx_hal_flash_ex.c ****   if((pOBInit->OptionType & OPTIONBYTE_USER) == OPTIONBYTE_USER)
 337:Drivers/STM32F7xx_HAL_Driver/Src/stm32f7xx_hal_flash_ex.c ****   {
 338:Drivers/STM32F7xx_HAL_Driver/Src/stm32f7xx_hal_flash_ex.c **** #if defined (FLASH_OPTCR_nDBANK)
 339:Drivers/STM32F7xx_HAL_Driver/Src/stm32f7xx_hal_flash_ex.c ****     status = FLASH_OB_UserConfig(pOBInit->USERConfig & OB_WWDG_SW, 
 340:Drivers/STM32F7xx_HAL_Driver/Src/stm32f7xx_hal_flash_ex.c ****                                  pOBInit->USERConfig & OB_IWDG_SW,
 341:Drivers/STM32F7xx_HAL_Driver/Src/stm32f7xx_hal_flash_ex.c ****                                  pOBInit->USERConfig & OB_STOP_NO_RST,
 342:Drivers/STM32F7xx_HAL_Driver/Src/stm32f7xx_hal_flash_ex.c ****                                  pOBInit->USERConfig & OB_STDBY_NO_RST, 
 343:Drivers/STM32F7xx_HAL_Driver/Src/stm32f7xx_hal_flash_ex.c ****                                  pOBInit->USERConfig & OB_IWDG_STOP_ACTIVE,
 344:Drivers/STM32F7xx_HAL_Driver/Src/stm32f7xx_hal_flash_ex.c ****                                  pOBInit->USERConfig & OB_IWDG_STDBY_ACTIVE,
 345:Drivers/STM32F7xx_HAL_Driver/Src/stm32f7xx_hal_flash_ex.c ****                                  pOBInit->USERConfig & OB_NDBANK_SINGLE_BANK,
 346:Drivers/STM32F7xx_HAL_Driver/Src/stm32f7xx_hal_flash_ex.c ****                                  pOBInit->USERConfig & OB_DUAL_BOOT_DISABLE);
 347:Drivers/STM32F7xx_HAL_Driver/Src/stm32f7xx_hal_flash_ex.c **** #else
 348:Drivers/STM32F7xx_HAL_Driver/Src/stm32f7xx_hal_flash_ex.c ****     status = FLASH_OB_UserConfig(pOBInit->USERConfig & OB_WWDG_SW, 
 349:Drivers/STM32F7xx_HAL_Driver/Src/stm32f7xx_hal_flash_ex.c ****                                  pOBInit->USERConfig & OB_IWDG_SW,
 350:Drivers/STM32F7xx_HAL_Driver/Src/stm32f7xx_hal_flash_ex.c ****                                  pOBInit->USERConfig & OB_STOP_NO_RST,
 351:Drivers/STM32F7xx_HAL_Driver/Src/stm32f7xx_hal_flash_ex.c ****                                  pOBInit->USERConfig & OB_STDBY_NO_RST, 
 352:Drivers/STM32F7xx_HAL_Driver/Src/stm32f7xx_hal_flash_ex.c ****                                  pOBInit->USERConfig & OB_IWDG_STOP_ACTIVE,
 353:Drivers/STM32F7xx_HAL_Driver/Src/stm32f7xx_hal_flash_ex.c ****                                  pOBInit->USERConfig & OB_IWDG_STDBY_ACTIVE);    
 354:Drivers/STM32F7xx_HAL_Driver/Src/stm32f7xx_hal_flash_ex.c **** #endif /* FLASH_OPTCR_nDBANK */
 355:Drivers/STM32F7xx_HAL_Driver/Src/stm32f7xx_hal_flash_ex.c ****   }
 356:Drivers/STM32F7xx_HAL_Driver/Src/stm32f7xx_hal_flash_ex.c ****   
 357:Drivers/STM32F7xx_HAL_Driver/Src/stm32f7xx_hal_flash_ex.c ****   /* BOR Level  configuration */
 358:Drivers/STM32F7xx_HAL_Driver/Src/stm32f7xx_hal_flash_ex.c ****   if((pOBInit->OptionType & OPTIONBYTE_BOR) == OPTIONBYTE_BOR)
 359:Drivers/STM32F7xx_HAL_Driver/Src/stm32f7xx_hal_flash_ex.c ****   {
 360:Drivers/STM32F7xx_HAL_Driver/Src/stm32f7xx_hal_flash_ex.c ****     status = FLASH_OB_BOR_LevelConfig(pOBInit->BORLevel);
 361:Drivers/STM32F7xx_HAL_Driver/Src/stm32f7xx_hal_flash_ex.c ****   }
 362:Drivers/STM32F7xx_HAL_Driver/Src/stm32f7xx_hal_flash_ex.c ****   
 363:Drivers/STM32F7xx_HAL_Driver/Src/stm32f7xx_hal_flash_ex.c ****   /* Boot 0 Address configuration */
 364:Drivers/STM32F7xx_HAL_Driver/Src/stm32f7xx_hal_flash_ex.c ****   if((pOBInit->OptionType & OPTIONBYTE_BOOTADDR_0) == OPTIONBYTE_BOOTADDR_0)
 365:Drivers/STM32F7xx_HAL_Driver/Src/stm32f7xx_hal_flash_ex.c ****   {
 366:Drivers/STM32F7xx_HAL_Driver/Src/stm32f7xx_hal_flash_ex.c ****     status = FLASH_OB_BootAddressConfig(OPTIONBYTE_BOOTADDR_0, pOBInit->BootAddr0);
 367:Drivers/STM32F7xx_HAL_Driver/Src/stm32f7xx_hal_flash_ex.c ****   }
 368:Drivers/STM32F7xx_HAL_Driver/Src/stm32f7xx_hal_flash_ex.c ****   
 369:Drivers/STM32F7xx_HAL_Driver/Src/stm32f7xx_hal_flash_ex.c ****   /* Boot 1 Address configuration */
 370:Drivers/STM32F7xx_HAL_Driver/Src/stm32f7xx_hal_flash_ex.c ****   if((pOBInit->OptionType & OPTIONBYTE_BOOTADDR_1) == OPTIONBYTE_BOOTADDR_1)
 371:Drivers/STM32F7xx_HAL_Driver/Src/stm32f7xx_hal_flash_ex.c ****   {
 372:Drivers/STM32F7xx_HAL_Driver/Src/stm32f7xx_hal_flash_ex.c ****     status = FLASH_OB_BootAddressConfig(OPTIONBYTE_BOOTADDR_1, pOBInit->BootAddr1);
 373:Drivers/STM32F7xx_HAL_Driver/Src/stm32f7xx_hal_flash_ex.c ****   }
 374:Drivers/STM32F7xx_HAL_Driver/Src/stm32f7xx_hal_flash_ex.c ****   
 375:Drivers/STM32F7xx_HAL_Driver/Src/stm32f7xx_hal_flash_ex.c **** #if defined (FLASH_OPTCR2_PCROP)
ARM GAS  /tmp/ccmMriQ8.s 			page 8


 376:Drivers/STM32F7xx_HAL_Driver/Src/stm32f7xx_hal_flash_ex.c ****   /* PCROP configuration */
 377:Drivers/STM32F7xx_HAL_Driver/Src/stm32f7xx_hal_flash_ex.c ****   if((pOBInit->OptionType & OPTIONBYTE_PCROP) == OPTIONBYTE_PCROP)
 378:Drivers/STM32F7xx_HAL_Driver/Src/stm32f7xx_hal_flash_ex.c ****   {
 379:Drivers/STM32F7xx_HAL_Driver/Src/stm32f7xx_hal_flash_ex.c ****     status = FLASH_OB_PCROP_Config(pOBInit->PCROPSector);
 380:Drivers/STM32F7xx_HAL_Driver/Src/stm32f7xx_hal_flash_ex.c ****   }
 381:Drivers/STM32F7xx_HAL_Driver/Src/stm32f7xx_hal_flash_ex.c ****   
 382:Drivers/STM32F7xx_HAL_Driver/Src/stm32f7xx_hal_flash_ex.c ****   /* PCROP_RDP configuration */
 383:Drivers/STM32F7xx_HAL_Driver/Src/stm32f7xx_hal_flash_ex.c ****   if((pOBInit->OptionType & OPTIONBYTE_PCROP_RDP) == OPTIONBYTE_PCROP_RDP)
 384:Drivers/STM32F7xx_HAL_Driver/Src/stm32f7xx_hal_flash_ex.c ****   {
 385:Drivers/STM32F7xx_HAL_Driver/Src/stm32f7xx_hal_flash_ex.c ****     status = FLASH_OB_PCROP_RDP_Config(pOBInit->PCROPRdp);
 386:Drivers/STM32F7xx_HAL_Driver/Src/stm32f7xx_hal_flash_ex.c ****   }
 387:Drivers/STM32F7xx_HAL_Driver/Src/stm32f7xx_hal_flash_ex.c **** #endif /* FLASH_OPTCR2_PCROP */
 388:Drivers/STM32F7xx_HAL_Driver/Src/stm32f7xx_hal_flash_ex.c **** 
 389:Drivers/STM32F7xx_HAL_Driver/Src/stm32f7xx_hal_flash_ex.c ****   /* Process Unlocked */
 390:Drivers/STM32F7xx_HAL_Driver/Src/stm32f7xx_hal_flash_ex.c ****   __HAL_UNLOCK(&pFlash);
 391:Drivers/STM32F7xx_HAL_Driver/Src/stm32f7xx_hal_flash_ex.c **** 
 392:Drivers/STM32F7xx_HAL_Driver/Src/stm32f7xx_hal_flash_ex.c ****   return status;
 393:Drivers/STM32F7xx_HAL_Driver/Src/stm32f7xx_hal_flash_ex.c **** }
 394:Drivers/STM32F7xx_HAL_Driver/Src/stm32f7xx_hal_flash_ex.c **** 
 395:Drivers/STM32F7xx_HAL_Driver/Src/stm32f7xx_hal_flash_ex.c **** /**
 396:Drivers/STM32F7xx_HAL_Driver/Src/stm32f7xx_hal_flash_ex.c ****   * @brief  Get the Option byte configuration
 397:Drivers/STM32F7xx_HAL_Driver/Src/stm32f7xx_hal_flash_ex.c ****   * @param  pOBInit: pointer to an FLASH_OBInitStruct structure that
 398:Drivers/STM32F7xx_HAL_Driver/Src/stm32f7xx_hal_flash_ex.c ****   *         contains the configuration information for the programming.
 399:Drivers/STM32F7xx_HAL_Driver/Src/stm32f7xx_hal_flash_ex.c ****   * 
 400:Drivers/STM32F7xx_HAL_Driver/Src/stm32f7xx_hal_flash_ex.c ****   * @retval None
 401:Drivers/STM32F7xx_HAL_Driver/Src/stm32f7xx_hal_flash_ex.c ****   */
 402:Drivers/STM32F7xx_HAL_Driver/Src/stm32f7xx_hal_flash_ex.c **** void HAL_FLASHEx_OBGetConfig(FLASH_OBProgramInitTypeDef *pOBInit)
 403:Drivers/STM32F7xx_HAL_Driver/Src/stm32f7xx_hal_flash_ex.c **** {
 404:Drivers/STM32F7xx_HAL_Driver/Src/stm32f7xx_hal_flash_ex.c ****   pOBInit->OptionType = OPTIONBYTE_WRP | OPTIONBYTE_RDP | OPTIONBYTE_USER |\
 405:Drivers/STM32F7xx_HAL_Driver/Src/stm32f7xx_hal_flash_ex.c **** 	                OPTIONBYTE_BOR | OPTIONBYTE_BOOTADDR_0 | OPTIONBYTE_BOOTADDR_1;
 406:Drivers/STM32F7xx_HAL_Driver/Src/stm32f7xx_hal_flash_ex.c **** 
 407:Drivers/STM32F7xx_HAL_Driver/Src/stm32f7xx_hal_flash_ex.c ****   /*Get WRP*/
 408:Drivers/STM32F7xx_HAL_Driver/Src/stm32f7xx_hal_flash_ex.c ****   pOBInit->WRPSector = FLASH_OB_GetWRP();
 409:Drivers/STM32F7xx_HAL_Driver/Src/stm32f7xx_hal_flash_ex.c **** 
 410:Drivers/STM32F7xx_HAL_Driver/Src/stm32f7xx_hal_flash_ex.c ****   /*Get RDP Level*/
 411:Drivers/STM32F7xx_HAL_Driver/Src/stm32f7xx_hal_flash_ex.c ****   pOBInit->RDPLevel = FLASH_OB_GetRDP();
 412:Drivers/STM32F7xx_HAL_Driver/Src/stm32f7xx_hal_flash_ex.c **** 
 413:Drivers/STM32F7xx_HAL_Driver/Src/stm32f7xx_hal_flash_ex.c ****   /*Get USER*/
 414:Drivers/STM32F7xx_HAL_Driver/Src/stm32f7xx_hal_flash_ex.c ****   pOBInit->USERConfig = FLASH_OB_GetUser();
 415:Drivers/STM32F7xx_HAL_Driver/Src/stm32f7xx_hal_flash_ex.c **** 
 416:Drivers/STM32F7xx_HAL_Driver/Src/stm32f7xx_hal_flash_ex.c ****   /*Get BOR Level*/
 417:Drivers/STM32F7xx_HAL_Driver/Src/stm32f7xx_hal_flash_ex.c ****   pOBInit->BORLevel = FLASH_OB_GetBOR();
 418:Drivers/STM32F7xx_HAL_Driver/Src/stm32f7xx_hal_flash_ex.c ****   
 419:Drivers/STM32F7xx_HAL_Driver/Src/stm32f7xx_hal_flash_ex.c ****   /*Get Boot Address when Boot pin = 0 */
 420:Drivers/STM32F7xx_HAL_Driver/Src/stm32f7xx_hal_flash_ex.c ****   pOBInit->BootAddr0 = FLASH_OB_GetBootAddress(OPTIONBYTE_BOOTADDR_0);
 421:Drivers/STM32F7xx_HAL_Driver/Src/stm32f7xx_hal_flash_ex.c ****   
 422:Drivers/STM32F7xx_HAL_Driver/Src/stm32f7xx_hal_flash_ex.c ****   /*Get Boot Address when Boot pin = 1 */
 423:Drivers/STM32F7xx_HAL_Driver/Src/stm32f7xx_hal_flash_ex.c ****   pOBInit->BootAddr1 = FLASH_OB_GetBootAddress(OPTIONBYTE_BOOTADDR_1);
 424:Drivers/STM32F7xx_HAL_Driver/Src/stm32f7xx_hal_flash_ex.c **** 
 425:Drivers/STM32F7xx_HAL_Driver/Src/stm32f7xx_hal_flash_ex.c **** #if defined (FLASH_OPTCR2_PCROP)
 426:Drivers/STM32F7xx_HAL_Driver/Src/stm32f7xx_hal_flash_ex.c ****   /*Get PCROP Sectors */
 427:Drivers/STM32F7xx_HAL_Driver/Src/stm32f7xx_hal_flash_ex.c ****   pOBInit->PCROPSector = FLASH_OB_GetPCROP();
 428:Drivers/STM32F7xx_HAL_Driver/Src/stm32f7xx_hal_flash_ex.c ****   
 429:Drivers/STM32F7xx_HAL_Driver/Src/stm32f7xx_hal_flash_ex.c ****   /*Get PCROP_RDP Value */
 430:Drivers/STM32F7xx_HAL_Driver/Src/stm32f7xx_hal_flash_ex.c ****   pOBInit->PCROPRdp = FLASH_OB_GetPCROPRDP();
 431:Drivers/STM32F7xx_HAL_Driver/Src/stm32f7xx_hal_flash_ex.c **** #endif /* FLASH_OPTCR2_PCROP */
 432:Drivers/STM32F7xx_HAL_Driver/Src/stm32f7xx_hal_flash_ex.c **** }
ARM GAS  /tmp/ccmMriQ8.s 			page 9


 433:Drivers/STM32F7xx_HAL_Driver/Src/stm32f7xx_hal_flash_ex.c **** /**
 434:Drivers/STM32F7xx_HAL_Driver/Src/stm32f7xx_hal_flash_ex.c ****   * @}
 435:Drivers/STM32F7xx_HAL_Driver/Src/stm32f7xx_hal_flash_ex.c ****   */
 436:Drivers/STM32F7xx_HAL_Driver/Src/stm32f7xx_hal_flash_ex.c **** 
 437:Drivers/STM32F7xx_HAL_Driver/Src/stm32f7xx_hal_flash_ex.c **** #if defined (FLASH_OPTCR_nDBANK)
 438:Drivers/STM32F7xx_HAL_Driver/Src/stm32f7xx_hal_flash_ex.c **** /**
 439:Drivers/STM32F7xx_HAL_Driver/Src/stm32f7xx_hal_flash_ex.c ****   * @brief  Full erase of FLASH memory sectors 
 440:Drivers/STM32F7xx_HAL_Driver/Src/stm32f7xx_hal_flash_ex.c ****   * @param  VoltageRange: The device voltage range which defines the erase parallelism.  
 441:Drivers/STM32F7xx_HAL_Driver/Src/stm32f7xx_hal_flash_ex.c ****   *          This parameter can be one of the following values:
 442:Drivers/STM32F7xx_HAL_Driver/Src/stm32f7xx_hal_flash_ex.c ****   *            @arg VOLTAGE_RANGE_1: when the device voltage range is 1.8V to 2.1V, 
 443:Drivers/STM32F7xx_HAL_Driver/Src/stm32f7xx_hal_flash_ex.c ****   *                                  the operation will be done by byte (8-bit) 
 444:Drivers/STM32F7xx_HAL_Driver/Src/stm32f7xx_hal_flash_ex.c ****   *            @arg VOLTAGE_RANGE_2: when the device voltage range is 2.1V to 2.7V,
 445:Drivers/STM32F7xx_HAL_Driver/Src/stm32f7xx_hal_flash_ex.c ****   *                                  the operation will be done by half word (16-bit)
 446:Drivers/STM32F7xx_HAL_Driver/Src/stm32f7xx_hal_flash_ex.c ****   *            @arg VOLTAGE_RANGE_3: when the device voltage range is 2.7V to 3.6V,
 447:Drivers/STM32F7xx_HAL_Driver/Src/stm32f7xx_hal_flash_ex.c ****   *                                  the operation will be done by word (32-bit)
 448:Drivers/STM32F7xx_HAL_Driver/Src/stm32f7xx_hal_flash_ex.c ****   *            @arg VOLTAGE_RANGE_4: when the device voltage range is 2.7V to 3.6V + External Vpp, 
 449:Drivers/STM32F7xx_HAL_Driver/Src/stm32f7xx_hal_flash_ex.c ****   *                                  the operation will be done by double word (64-bit)
 450:Drivers/STM32F7xx_HAL_Driver/Src/stm32f7xx_hal_flash_ex.c ****   * @param  Banks: Banks to be erased
 451:Drivers/STM32F7xx_HAL_Driver/Src/stm32f7xx_hal_flash_ex.c ****   *          This parameter can be one of the following values:
 452:Drivers/STM32F7xx_HAL_Driver/Src/stm32f7xx_hal_flash_ex.c ****   *            @arg FLASH_BANK_1: Bank1 to be erased
 453:Drivers/STM32F7xx_HAL_Driver/Src/stm32f7xx_hal_flash_ex.c ****   *            @arg FLASH_BANK_2: Bank2 to be erased
 454:Drivers/STM32F7xx_HAL_Driver/Src/stm32f7xx_hal_flash_ex.c ****   *            @arg FLASH_BANK_BOTH: Bank1 and Bank2 to be erased
 455:Drivers/STM32F7xx_HAL_Driver/Src/stm32f7xx_hal_flash_ex.c ****   *
 456:Drivers/STM32F7xx_HAL_Driver/Src/stm32f7xx_hal_flash_ex.c ****   * @retval HAL Status
 457:Drivers/STM32F7xx_HAL_Driver/Src/stm32f7xx_hal_flash_ex.c ****   */
 458:Drivers/STM32F7xx_HAL_Driver/Src/stm32f7xx_hal_flash_ex.c **** static void FLASH_MassErase(uint8_t VoltageRange, uint32_t Banks)
 459:Drivers/STM32F7xx_HAL_Driver/Src/stm32f7xx_hal_flash_ex.c **** {
  26              		.loc 1 459 0
  27              		.cfi_startproc
  28              		@ args = 0, pretend = 0, frame = 0
  29              		@ frame_needed = 0, uses_anonymous_args = 0
  30              		@ link register save eliminated.
  31              	.LVL0:
 460:Drivers/STM32F7xx_HAL_Driver/Src/stm32f7xx_hal_flash_ex.c ****   /* Check the parameters */
 461:Drivers/STM32F7xx_HAL_Driver/Src/stm32f7xx_hal_flash_ex.c ****   assert_param(IS_VOLTAGERANGE(VoltageRange));
 462:Drivers/STM32F7xx_HAL_Driver/Src/stm32f7xx_hal_flash_ex.c ****   assert_param(IS_FLASH_BANK(Banks));
 463:Drivers/STM32F7xx_HAL_Driver/Src/stm32f7xx_hal_flash_ex.c **** 
 464:Drivers/STM32F7xx_HAL_Driver/Src/stm32f7xx_hal_flash_ex.c ****   /* if the previous operation is completed, proceed to erase all sectors */
 465:Drivers/STM32F7xx_HAL_Driver/Src/stm32f7xx_hal_flash_ex.c ****   FLASH->CR &= CR_PSIZE_MASK;
  32              		.loc 1 465 0
  33 0000 114A     		ldr	r2, .L7
  34 0002 1369     		ldr	r3, [r2, #16]
  35 0004 23F44073 		bic	r3, r3, #768
  36 0008 1361     		str	r3, [r2, #16]
 466:Drivers/STM32F7xx_HAL_Driver/Src/stm32f7xx_hal_flash_ex.c ****   if(Banks == FLASH_BANK_BOTH)
  37              		.loc 1 466 0
  38 000a 0329     		cmp	r1, #3
  39 000c 10D0     		beq	.L5
 467:Drivers/STM32F7xx_HAL_Driver/Src/stm32f7xx_hal_flash_ex.c ****   {
 468:Drivers/STM32F7xx_HAL_Driver/Src/stm32f7xx_hal_flash_ex.c ****     /* bank1 & bank2 will be erased*/
 469:Drivers/STM32F7xx_HAL_Driver/Src/stm32f7xx_hal_flash_ex.c ****     FLASH->CR |= FLASH_MER_BIT;
 470:Drivers/STM32F7xx_HAL_Driver/Src/stm32f7xx_hal_flash_ex.c ****   }
 471:Drivers/STM32F7xx_HAL_Driver/Src/stm32f7xx_hal_flash_ex.c ****   else if(Banks == FLASH_BANK_2)
  40              		.loc 1 471 0
  41 000e 0229     		cmp	r1, #2
  42 0010 14D0     		beq	.L6
 472:Drivers/STM32F7xx_HAL_Driver/Src/stm32f7xx_hal_flash_ex.c ****   {
ARM GAS  /tmp/ccmMriQ8.s 			page 10


 473:Drivers/STM32F7xx_HAL_Driver/Src/stm32f7xx_hal_flash_ex.c ****     /*Only bank2 will be erased*/
 474:Drivers/STM32F7xx_HAL_Driver/Src/stm32f7xx_hal_flash_ex.c ****     FLASH->CR |= FLASH_CR_MER2;
 475:Drivers/STM32F7xx_HAL_Driver/Src/stm32f7xx_hal_flash_ex.c ****   }
 476:Drivers/STM32F7xx_HAL_Driver/Src/stm32f7xx_hal_flash_ex.c ****   else
 477:Drivers/STM32F7xx_HAL_Driver/Src/stm32f7xx_hal_flash_ex.c ****   {
 478:Drivers/STM32F7xx_HAL_Driver/Src/stm32f7xx_hal_flash_ex.c ****     /*Only bank1 will be erased*/
 479:Drivers/STM32F7xx_HAL_Driver/Src/stm32f7xx_hal_flash_ex.c ****     FLASH->CR |= FLASH_CR_MER1;    
  43              		.loc 1 479 0
  44 0012 0D4A     		ldr	r2, .L7
  45 0014 1369     		ldr	r3, [r2, #16]
  46 0016 43F00403 		orr	r3, r3, #4
  47 001a 1361     		str	r3, [r2, #16]
  48              	.LVL1:
  49              	.L3:
 480:Drivers/STM32F7xx_HAL_Driver/Src/stm32f7xx_hal_flash_ex.c ****   }
 481:Drivers/STM32F7xx_HAL_Driver/Src/stm32f7xx_hal_flash_ex.c ****   FLASH->CR |= FLASH_CR_STRT | ((uint32_t)VoltageRange <<8);
  50              		.loc 1 481 0
  51 001c 0A4A     		ldr	r2, .L7
  52 001e 1369     		ldr	r3, [r2, #16]
  53 0020 43EA0020 		orr	r0, r3, r0, lsl #8
  54              	.LVL2:
  55 0024 40F48030 		orr	r0, r0, #65536
  56 0028 1061     		str	r0, [r2, #16]
  57              	.LBB6:
  58              	.LBB7:
  59              		.file 2 "Drivers/CMSIS/Include/cmsis_gcc.h"
   1:Drivers/CMSIS/Include/cmsis_gcc.h **** /**************************************************************************//**
   2:Drivers/CMSIS/Include/cmsis_gcc.h ****  * @file     cmsis_gcc.h
   3:Drivers/CMSIS/Include/cmsis_gcc.h ****  * @brief    CMSIS Cortex-M Core Function/Instruction Header File
   4:Drivers/CMSIS/Include/cmsis_gcc.h ****  * @version  V4.30
   5:Drivers/CMSIS/Include/cmsis_gcc.h ****  * @date     20. October 2015
   6:Drivers/CMSIS/Include/cmsis_gcc.h ****  ******************************************************************************/
   7:Drivers/CMSIS/Include/cmsis_gcc.h **** /* Copyright (c) 2009 - 2015 ARM LIMITED
   8:Drivers/CMSIS/Include/cmsis_gcc.h **** 
   9:Drivers/CMSIS/Include/cmsis_gcc.h ****    All rights reserved.
  10:Drivers/CMSIS/Include/cmsis_gcc.h ****    Redistribution and use in source and binary forms, with or without
  11:Drivers/CMSIS/Include/cmsis_gcc.h ****    modification, are permitted provided that the following conditions are met:
  12:Drivers/CMSIS/Include/cmsis_gcc.h ****    - Redistributions of source code must retain the above copyright
  13:Drivers/CMSIS/Include/cmsis_gcc.h ****      notice, this list of conditions and the following disclaimer.
  14:Drivers/CMSIS/Include/cmsis_gcc.h ****    - Redistributions in binary form must reproduce the above copyright
  15:Drivers/CMSIS/Include/cmsis_gcc.h ****      notice, this list of conditions and the following disclaimer in the
  16:Drivers/CMSIS/Include/cmsis_gcc.h ****      documentation and/or other materials provided with the distribution.
  17:Drivers/CMSIS/Include/cmsis_gcc.h ****    - Neither the name of ARM nor the names of its contributors may be used
  18:Drivers/CMSIS/Include/cmsis_gcc.h ****      to endorse or promote products derived from this software without
  19:Drivers/CMSIS/Include/cmsis_gcc.h ****      specific prior written permission.
  20:Drivers/CMSIS/Include/cmsis_gcc.h ****    *
  21:Drivers/CMSIS/Include/cmsis_gcc.h ****    THIS SOFTWARE IS PROVIDED BY THE COPYRIGHT HOLDERS AND CONTRIBUTORS "AS IS"
  22:Drivers/CMSIS/Include/cmsis_gcc.h ****    AND ANY EXPRESS OR IMPLIED WARRANTIES, INCLUDING, BUT NOT LIMITED TO, THE
  23:Drivers/CMSIS/Include/cmsis_gcc.h ****    IMPLIED WARRANTIES OF MERCHANTABILITY AND FITNESS FOR A PARTICULAR PURPOSE
  24:Drivers/CMSIS/Include/cmsis_gcc.h ****    ARE DISCLAIMED. IN NO EVENT SHALL COPYRIGHT HOLDERS AND CONTRIBUTORS BE
  25:Drivers/CMSIS/Include/cmsis_gcc.h ****    LIABLE FOR ANY DIRECT, INDIRECT, INCIDENTAL, SPECIAL, EXEMPLARY, OR
  26:Drivers/CMSIS/Include/cmsis_gcc.h ****    CONSEQUENTIAL DAMAGES (INCLUDING, BUT NOT LIMITED TO, PROCUREMENT OF
  27:Drivers/CMSIS/Include/cmsis_gcc.h ****    SUBSTITUTE GOODS OR SERVICES; LOSS OF USE, DATA, OR PROFITS; OR BUSINESS
  28:Drivers/CMSIS/Include/cmsis_gcc.h ****    INTERRUPTION) HOWEVER CAUSED AND ON ANY THEORY OF LIABILITY, WHETHER IN
  29:Drivers/CMSIS/Include/cmsis_gcc.h ****    CONTRACT, STRICT LIABILITY, OR TORT (INCLUDING NEGLIGENCE OR OTHERWISE)
  30:Drivers/CMSIS/Include/cmsis_gcc.h ****    ARISING IN ANY WAY OUT OF THE USE OF THIS SOFTWARE, EVEN IF ADVISED OF THE
  31:Drivers/CMSIS/Include/cmsis_gcc.h ****    POSSIBILITY OF SUCH DAMAGE.
ARM GAS  /tmp/ccmMriQ8.s 			page 11


  32:Drivers/CMSIS/Include/cmsis_gcc.h ****    ---------------------------------------------------------------------------*/
  33:Drivers/CMSIS/Include/cmsis_gcc.h **** 
  34:Drivers/CMSIS/Include/cmsis_gcc.h **** 
  35:Drivers/CMSIS/Include/cmsis_gcc.h **** #ifndef __CMSIS_GCC_H
  36:Drivers/CMSIS/Include/cmsis_gcc.h **** #define __CMSIS_GCC_H
  37:Drivers/CMSIS/Include/cmsis_gcc.h **** 
  38:Drivers/CMSIS/Include/cmsis_gcc.h **** /* ignore some GCC warnings */
  39:Drivers/CMSIS/Include/cmsis_gcc.h **** #if defined ( __GNUC__ )
  40:Drivers/CMSIS/Include/cmsis_gcc.h **** #pragma GCC diagnostic push
  41:Drivers/CMSIS/Include/cmsis_gcc.h **** #pragma GCC diagnostic ignored "-Wsign-conversion"
  42:Drivers/CMSIS/Include/cmsis_gcc.h **** #pragma GCC diagnostic ignored "-Wconversion"
  43:Drivers/CMSIS/Include/cmsis_gcc.h **** #pragma GCC diagnostic ignored "-Wunused-parameter"
  44:Drivers/CMSIS/Include/cmsis_gcc.h **** #endif
  45:Drivers/CMSIS/Include/cmsis_gcc.h **** 
  46:Drivers/CMSIS/Include/cmsis_gcc.h **** 
  47:Drivers/CMSIS/Include/cmsis_gcc.h **** /* ###########################  Core Function Access  ########################### */
  48:Drivers/CMSIS/Include/cmsis_gcc.h **** /** \ingroup  CMSIS_Core_FunctionInterface
  49:Drivers/CMSIS/Include/cmsis_gcc.h ****     \defgroup CMSIS_Core_RegAccFunctions CMSIS Core Register Access Functions
  50:Drivers/CMSIS/Include/cmsis_gcc.h ****   @{
  51:Drivers/CMSIS/Include/cmsis_gcc.h ****  */
  52:Drivers/CMSIS/Include/cmsis_gcc.h **** 
  53:Drivers/CMSIS/Include/cmsis_gcc.h **** /**
  54:Drivers/CMSIS/Include/cmsis_gcc.h ****   \brief   Enable IRQ Interrupts
  55:Drivers/CMSIS/Include/cmsis_gcc.h ****   \details Enables IRQ interrupts by clearing the I-bit in the CPSR.
  56:Drivers/CMSIS/Include/cmsis_gcc.h ****            Can only be executed in Privileged modes.
  57:Drivers/CMSIS/Include/cmsis_gcc.h ****  */
  58:Drivers/CMSIS/Include/cmsis_gcc.h **** __attribute__( ( always_inline ) ) __STATIC_INLINE void __enable_irq(void)
  59:Drivers/CMSIS/Include/cmsis_gcc.h **** {
  60:Drivers/CMSIS/Include/cmsis_gcc.h ****   __ASM volatile ("cpsie i" : : : "memory");
  61:Drivers/CMSIS/Include/cmsis_gcc.h **** }
  62:Drivers/CMSIS/Include/cmsis_gcc.h **** 
  63:Drivers/CMSIS/Include/cmsis_gcc.h **** 
  64:Drivers/CMSIS/Include/cmsis_gcc.h **** /**
  65:Drivers/CMSIS/Include/cmsis_gcc.h ****   \brief   Disable IRQ Interrupts
  66:Drivers/CMSIS/Include/cmsis_gcc.h ****   \details Disables IRQ interrupts by setting the I-bit in the CPSR.
  67:Drivers/CMSIS/Include/cmsis_gcc.h ****   Can only be executed in Privileged modes.
  68:Drivers/CMSIS/Include/cmsis_gcc.h ****  */
  69:Drivers/CMSIS/Include/cmsis_gcc.h **** __attribute__( ( always_inline ) ) __STATIC_INLINE void __disable_irq(void)
  70:Drivers/CMSIS/Include/cmsis_gcc.h **** {
  71:Drivers/CMSIS/Include/cmsis_gcc.h ****   __ASM volatile ("cpsid i" : : : "memory");
  72:Drivers/CMSIS/Include/cmsis_gcc.h **** }
  73:Drivers/CMSIS/Include/cmsis_gcc.h **** 
  74:Drivers/CMSIS/Include/cmsis_gcc.h **** 
  75:Drivers/CMSIS/Include/cmsis_gcc.h **** /**
  76:Drivers/CMSIS/Include/cmsis_gcc.h ****   \brief   Get Control Register
  77:Drivers/CMSIS/Include/cmsis_gcc.h ****   \details Returns the content of the Control Register.
  78:Drivers/CMSIS/Include/cmsis_gcc.h ****   \return               Control Register value
  79:Drivers/CMSIS/Include/cmsis_gcc.h ****  */
  80:Drivers/CMSIS/Include/cmsis_gcc.h **** __attribute__( ( always_inline ) ) __STATIC_INLINE uint32_t __get_CONTROL(void)
  81:Drivers/CMSIS/Include/cmsis_gcc.h **** {
  82:Drivers/CMSIS/Include/cmsis_gcc.h ****   uint32_t result;
  83:Drivers/CMSIS/Include/cmsis_gcc.h **** 
  84:Drivers/CMSIS/Include/cmsis_gcc.h ****   __ASM volatile ("MRS %0, control" : "=r" (result) );
  85:Drivers/CMSIS/Include/cmsis_gcc.h ****   return(result);
  86:Drivers/CMSIS/Include/cmsis_gcc.h **** }
  87:Drivers/CMSIS/Include/cmsis_gcc.h **** 
  88:Drivers/CMSIS/Include/cmsis_gcc.h **** 
ARM GAS  /tmp/ccmMriQ8.s 			page 12


  89:Drivers/CMSIS/Include/cmsis_gcc.h **** /**
  90:Drivers/CMSIS/Include/cmsis_gcc.h ****   \brief   Set Control Register
  91:Drivers/CMSIS/Include/cmsis_gcc.h ****   \details Writes the given value to the Control Register.
  92:Drivers/CMSIS/Include/cmsis_gcc.h ****   \param [in]    control  Control Register value to set
  93:Drivers/CMSIS/Include/cmsis_gcc.h ****  */
  94:Drivers/CMSIS/Include/cmsis_gcc.h **** __attribute__( ( always_inline ) ) __STATIC_INLINE void __set_CONTROL(uint32_t control)
  95:Drivers/CMSIS/Include/cmsis_gcc.h **** {
  96:Drivers/CMSIS/Include/cmsis_gcc.h ****   __ASM volatile ("MSR control, %0" : : "r" (control) : "memory");
  97:Drivers/CMSIS/Include/cmsis_gcc.h **** }
  98:Drivers/CMSIS/Include/cmsis_gcc.h **** 
  99:Drivers/CMSIS/Include/cmsis_gcc.h **** 
 100:Drivers/CMSIS/Include/cmsis_gcc.h **** /**
 101:Drivers/CMSIS/Include/cmsis_gcc.h ****   \brief   Get IPSR Register
 102:Drivers/CMSIS/Include/cmsis_gcc.h ****   \details Returns the content of the IPSR Register.
 103:Drivers/CMSIS/Include/cmsis_gcc.h ****   \return               IPSR Register value
 104:Drivers/CMSIS/Include/cmsis_gcc.h ****  */
 105:Drivers/CMSIS/Include/cmsis_gcc.h **** __attribute__( ( always_inline ) ) __STATIC_INLINE uint32_t __get_IPSR(void)
 106:Drivers/CMSIS/Include/cmsis_gcc.h **** {
 107:Drivers/CMSIS/Include/cmsis_gcc.h ****   uint32_t result;
 108:Drivers/CMSIS/Include/cmsis_gcc.h **** 
 109:Drivers/CMSIS/Include/cmsis_gcc.h ****   __ASM volatile ("MRS %0, ipsr" : "=r" (result) );
 110:Drivers/CMSIS/Include/cmsis_gcc.h ****   return(result);
 111:Drivers/CMSIS/Include/cmsis_gcc.h **** }
 112:Drivers/CMSIS/Include/cmsis_gcc.h **** 
 113:Drivers/CMSIS/Include/cmsis_gcc.h **** 
 114:Drivers/CMSIS/Include/cmsis_gcc.h **** /**
 115:Drivers/CMSIS/Include/cmsis_gcc.h ****   \brief   Get APSR Register
 116:Drivers/CMSIS/Include/cmsis_gcc.h ****   \details Returns the content of the APSR Register.
 117:Drivers/CMSIS/Include/cmsis_gcc.h ****   \return               APSR Register value
 118:Drivers/CMSIS/Include/cmsis_gcc.h ****  */
 119:Drivers/CMSIS/Include/cmsis_gcc.h **** __attribute__( ( always_inline ) ) __STATIC_INLINE uint32_t __get_APSR(void)
 120:Drivers/CMSIS/Include/cmsis_gcc.h **** {
 121:Drivers/CMSIS/Include/cmsis_gcc.h ****   uint32_t result;
 122:Drivers/CMSIS/Include/cmsis_gcc.h **** 
 123:Drivers/CMSIS/Include/cmsis_gcc.h ****   __ASM volatile ("MRS %0, apsr" : "=r" (result) );
 124:Drivers/CMSIS/Include/cmsis_gcc.h ****   return(result);
 125:Drivers/CMSIS/Include/cmsis_gcc.h **** }
 126:Drivers/CMSIS/Include/cmsis_gcc.h **** 
 127:Drivers/CMSIS/Include/cmsis_gcc.h **** 
 128:Drivers/CMSIS/Include/cmsis_gcc.h **** /**
 129:Drivers/CMSIS/Include/cmsis_gcc.h ****   \brief   Get xPSR Register
 130:Drivers/CMSIS/Include/cmsis_gcc.h ****   \details Returns the content of the xPSR Register.
 131:Drivers/CMSIS/Include/cmsis_gcc.h **** 
 132:Drivers/CMSIS/Include/cmsis_gcc.h ****     \return               xPSR Register value
 133:Drivers/CMSIS/Include/cmsis_gcc.h ****  */
 134:Drivers/CMSIS/Include/cmsis_gcc.h **** __attribute__( ( always_inline ) ) __STATIC_INLINE uint32_t __get_xPSR(void)
 135:Drivers/CMSIS/Include/cmsis_gcc.h **** {
 136:Drivers/CMSIS/Include/cmsis_gcc.h ****   uint32_t result;
 137:Drivers/CMSIS/Include/cmsis_gcc.h **** 
 138:Drivers/CMSIS/Include/cmsis_gcc.h ****   __ASM volatile ("MRS %0, xpsr" : "=r" (result) );
 139:Drivers/CMSIS/Include/cmsis_gcc.h ****   return(result);
 140:Drivers/CMSIS/Include/cmsis_gcc.h **** }
 141:Drivers/CMSIS/Include/cmsis_gcc.h **** 
 142:Drivers/CMSIS/Include/cmsis_gcc.h **** 
 143:Drivers/CMSIS/Include/cmsis_gcc.h **** /**
 144:Drivers/CMSIS/Include/cmsis_gcc.h ****   \brief   Get Process Stack Pointer
 145:Drivers/CMSIS/Include/cmsis_gcc.h ****   \details Returns the current value of the Process Stack Pointer (PSP).
ARM GAS  /tmp/ccmMriQ8.s 			page 13


 146:Drivers/CMSIS/Include/cmsis_gcc.h ****   \return               PSP Register value
 147:Drivers/CMSIS/Include/cmsis_gcc.h ****  */
 148:Drivers/CMSIS/Include/cmsis_gcc.h **** __attribute__( ( always_inline ) ) __STATIC_INLINE uint32_t __get_PSP(void)
 149:Drivers/CMSIS/Include/cmsis_gcc.h **** {
 150:Drivers/CMSIS/Include/cmsis_gcc.h ****   register uint32_t result;
 151:Drivers/CMSIS/Include/cmsis_gcc.h **** 
 152:Drivers/CMSIS/Include/cmsis_gcc.h ****   __ASM volatile ("MRS %0, psp\n"  : "=r" (result) );
 153:Drivers/CMSIS/Include/cmsis_gcc.h ****   return(result);
 154:Drivers/CMSIS/Include/cmsis_gcc.h **** }
 155:Drivers/CMSIS/Include/cmsis_gcc.h **** 
 156:Drivers/CMSIS/Include/cmsis_gcc.h **** 
 157:Drivers/CMSIS/Include/cmsis_gcc.h **** /**
 158:Drivers/CMSIS/Include/cmsis_gcc.h ****   \brief   Set Process Stack Pointer
 159:Drivers/CMSIS/Include/cmsis_gcc.h ****   \details Assigns the given value to the Process Stack Pointer (PSP).
 160:Drivers/CMSIS/Include/cmsis_gcc.h ****   \param [in]    topOfProcStack  Process Stack Pointer value to set
 161:Drivers/CMSIS/Include/cmsis_gcc.h ****  */
 162:Drivers/CMSIS/Include/cmsis_gcc.h **** __attribute__( ( always_inline ) ) __STATIC_INLINE void __set_PSP(uint32_t topOfProcStack)
 163:Drivers/CMSIS/Include/cmsis_gcc.h **** {
 164:Drivers/CMSIS/Include/cmsis_gcc.h ****   __ASM volatile ("MSR psp, %0\n" : : "r" (topOfProcStack) : "sp");
 165:Drivers/CMSIS/Include/cmsis_gcc.h **** }
 166:Drivers/CMSIS/Include/cmsis_gcc.h **** 
 167:Drivers/CMSIS/Include/cmsis_gcc.h **** 
 168:Drivers/CMSIS/Include/cmsis_gcc.h **** /**
 169:Drivers/CMSIS/Include/cmsis_gcc.h ****   \brief   Get Main Stack Pointer
 170:Drivers/CMSIS/Include/cmsis_gcc.h ****   \details Returns the current value of the Main Stack Pointer (MSP).
 171:Drivers/CMSIS/Include/cmsis_gcc.h ****   \return               MSP Register value
 172:Drivers/CMSIS/Include/cmsis_gcc.h ****  */
 173:Drivers/CMSIS/Include/cmsis_gcc.h **** __attribute__( ( always_inline ) ) __STATIC_INLINE uint32_t __get_MSP(void)
 174:Drivers/CMSIS/Include/cmsis_gcc.h **** {
 175:Drivers/CMSIS/Include/cmsis_gcc.h ****   register uint32_t result;
 176:Drivers/CMSIS/Include/cmsis_gcc.h **** 
 177:Drivers/CMSIS/Include/cmsis_gcc.h ****   __ASM volatile ("MRS %0, msp\n" : "=r" (result) );
 178:Drivers/CMSIS/Include/cmsis_gcc.h ****   return(result);
 179:Drivers/CMSIS/Include/cmsis_gcc.h **** }
 180:Drivers/CMSIS/Include/cmsis_gcc.h **** 
 181:Drivers/CMSIS/Include/cmsis_gcc.h **** 
 182:Drivers/CMSIS/Include/cmsis_gcc.h **** /**
 183:Drivers/CMSIS/Include/cmsis_gcc.h ****   \brief   Set Main Stack Pointer
 184:Drivers/CMSIS/Include/cmsis_gcc.h ****   \details Assigns the given value to the Main Stack Pointer (MSP).
 185:Drivers/CMSIS/Include/cmsis_gcc.h **** 
 186:Drivers/CMSIS/Include/cmsis_gcc.h ****     \param [in]    topOfMainStack  Main Stack Pointer value to set
 187:Drivers/CMSIS/Include/cmsis_gcc.h ****  */
 188:Drivers/CMSIS/Include/cmsis_gcc.h **** __attribute__( ( always_inline ) ) __STATIC_INLINE void __set_MSP(uint32_t topOfMainStack)
 189:Drivers/CMSIS/Include/cmsis_gcc.h **** {
 190:Drivers/CMSIS/Include/cmsis_gcc.h ****   __ASM volatile ("MSR msp, %0\n" : : "r" (topOfMainStack) : "sp");
 191:Drivers/CMSIS/Include/cmsis_gcc.h **** }
 192:Drivers/CMSIS/Include/cmsis_gcc.h **** 
 193:Drivers/CMSIS/Include/cmsis_gcc.h **** 
 194:Drivers/CMSIS/Include/cmsis_gcc.h **** /**
 195:Drivers/CMSIS/Include/cmsis_gcc.h ****   \brief   Get Priority Mask
 196:Drivers/CMSIS/Include/cmsis_gcc.h ****   \details Returns the current state of the priority mask bit from the Priority Mask Register.
 197:Drivers/CMSIS/Include/cmsis_gcc.h ****   \return               Priority Mask value
 198:Drivers/CMSIS/Include/cmsis_gcc.h ****  */
 199:Drivers/CMSIS/Include/cmsis_gcc.h **** __attribute__( ( always_inline ) ) __STATIC_INLINE uint32_t __get_PRIMASK(void)
 200:Drivers/CMSIS/Include/cmsis_gcc.h **** {
 201:Drivers/CMSIS/Include/cmsis_gcc.h ****   uint32_t result;
 202:Drivers/CMSIS/Include/cmsis_gcc.h **** 
ARM GAS  /tmp/ccmMriQ8.s 			page 14


 203:Drivers/CMSIS/Include/cmsis_gcc.h ****   __ASM volatile ("MRS %0, primask" : "=r" (result) );
 204:Drivers/CMSIS/Include/cmsis_gcc.h ****   return(result);
 205:Drivers/CMSIS/Include/cmsis_gcc.h **** }
 206:Drivers/CMSIS/Include/cmsis_gcc.h **** 
 207:Drivers/CMSIS/Include/cmsis_gcc.h **** 
 208:Drivers/CMSIS/Include/cmsis_gcc.h **** /**
 209:Drivers/CMSIS/Include/cmsis_gcc.h ****   \brief   Set Priority Mask
 210:Drivers/CMSIS/Include/cmsis_gcc.h ****   \details Assigns the given value to the Priority Mask Register.
 211:Drivers/CMSIS/Include/cmsis_gcc.h ****   \param [in]    priMask  Priority Mask
 212:Drivers/CMSIS/Include/cmsis_gcc.h ****  */
 213:Drivers/CMSIS/Include/cmsis_gcc.h **** __attribute__( ( always_inline ) ) __STATIC_INLINE void __set_PRIMASK(uint32_t priMask)
 214:Drivers/CMSIS/Include/cmsis_gcc.h **** {
 215:Drivers/CMSIS/Include/cmsis_gcc.h ****   __ASM volatile ("MSR primask, %0" : : "r" (priMask) : "memory");
 216:Drivers/CMSIS/Include/cmsis_gcc.h **** }
 217:Drivers/CMSIS/Include/cmsis_gcc.h **** 
 218:Drivers/CMSIS/Include/cmsis_gcc.h **** 
 219:Drivers/CMSIS/Include/cmsis_gcc.h **** #if       (__CORTEX_M >= 0x03U)
 220:Drivers/CMSIS/Include/cmsis_gcc.h **** 
 221:Drivers/CMSIS/Include/cmsis_gcc.h **** /**
 222:Drivers/CMSIS/Include/cmsis_gcc.h ****   \brief   Enable FIQ
 223:Drivers/CMSIS/Include/cmsis_gcc.h ****   \details Enables FIQ interrupts by clearing the F-bit in the CPSR.
 224:Drivers/CMSIS/Include/cmsis_gcc.h ****            Can only be executed in Privileged modes.
 225:Drivers/CMSIS/Include/cmsis_gcc.h ****  */
 226:Drivers/CMSIS/Include/cmsis_gcc.h **** __attribute__( ( always_inline ) ) __STATIC_INLINE void __enable_fault_irq(void)
 227:Drivers/CMSIS/Include/cmsis_gcc.h **** {
 228:Drivers/CMSIS/Include/cmsis_gcc.h ****   __ASM volatile ("cpsie f" : : : "memory");
 229:Drivers/CMSIS/Include/cmsis_gcc.h **** }
 230:Drivers/CMSIS/Include/cmsis_gcc.h **** 
 231:Drivers/CMSIS/Include/cmsis_gcc.h **** 
 232:Drivers/CMSIS/Include/cmsis_gcc.h **** /**
 233:Drivers/CMSIS/Include/cmsis_gcc.h ****   \brief   Disable FIQ
 234:Drivers/CMSIS/Include/cmsis_gcc.h ****   \details Disables FIQ interrupts by setting the F-bit in the CPSR.
 235:Drivers/CMSIS/Include/cmsis_gcc.h ****            Can only be executed in Privileged modes.
 236:Drivers/CMSIS/Include/cmsis_gcc.h ****  */
 237:Drivers/CMSIS/Include/cmsis_gcc.h **** __attribute__( ( always_inline ) ) __STATIC_INLINE void __disable_fault_irq(void)
 238:Drivers/CMSIS/Include/cmsis_gcc.h **** {
 239:Drivers/CMSIS/Include/cmsis_gcc.h ****   __ASM volatile ("cpsid f" : : : "memory");
 240:Drivers/CMSIS/Include/cmsis_gcc.h **** }
 241:Drivers/CMSIS/Include/cmsis_gcc.h **** 
 242:Drivers/CMSIS/Include/cmsis_gcc.h **** 
 243:Drivers/CMSIS/Include/cmsis_gcc.h **** /**
 244:Drivers/CMSIS/Include/cmsis_gcc.h ****   \brief   Get Base Priority
 245:Drivers/CMSIS/Include/cmsis_gcc.h ****   \details Returns the current value of the Base Priority register.
 246:Drivers/CMSIS/Include/cmsis_gcc.h ****   \return               Base Priority register value
 247:Drivers/CMSIS/Include/cmsis_gcc.h ****  */
 248:Drivers/CMSIS/Include/cmsis_gcc.h **** __attribute__( ( always_inline ) ) __STATIC_INLINE uint32_t __get_BASEPRI(void)
 249:Drivers/CMSIS/Include/cmsis_gcc.h **** {
 250:Drivers/CMSIS/Include/cmsis_gcc.h ****   uint32_t result;
 251:Drivers/CMSIS/Include/cmsis_gcc.h **** 
 252:Drivers/CMSIS/Include/cmsis_gcc.h ****   __ASM volatile ("MRS %0, basepri" : "=r" (result) );
 253:Drivers/CMSIS/Include/cmsis_gcc.h ****   return(result);
 254:Drivers/CMSIS/Include/cmsis_gcc.h **** }
 255:Drivers/CMSIS/Include/cmsis_gcc.h **** 
 256:Drivers/CMSIS/Include/cmsis_gcc.h **** 
 257:Drivers/CMSIS/Include/cmsis_gcc.h **** /**
 258:Drivers/CMSIS/Include/cmsis_gcc.h ****   \brief   Set Base Priority
 259:Drivers/CMSIS/Include/cmsis_gcc.h ****   \details Assigns the given value to the Base Priority register.
ARM GAS  /tmp/ccmMriQ8.s 			page 15


 260:Drivers/CMSIS/Include/cmsis_gcc.h ****   \param [in]    basePri  Base Priority value to set
 261:Drivers/CMSIS/Include/cmsis_gcc.h ****  */
 262:Drivers/CMSIS/Include/cmsis_gcc.h **** __attribute__( ( always_inline ) ) __STATIC_INLINE void __set_BASEPRI(uint32_t value)
 263:Drivers/CMSIS/Include/cmsis_gcc.h **** {
 264:Drivers/CMSIS/Include/cmsis_gcc.h ****   __ASM volatile ("MSR basepri, %0" : : "r" (value) : "memory");
 265:Drivers/CMSIS/Include/cmsis_gcc.h **** }
 266:Drivers/CMSIS/Include/cmsis_gcc.h **** 
 267:Drivers/CMSIS/Include/cmsis_gcc.h **** 
 268:Drivers/CMSIS/Include/cmsis_gcc.h **** /**
 269:Drivers/CMSIS/Include/cmsis_gcc.h ****   \brief   Set Base Priority with condition
 270:Drivers/CMSIS/Include/cmsis_gcc.h ****   \details Assigns the given value to the Base Priority register only if BASEPRI masking is disable
 271:Drivers/CMSIS/Include/cmsis_gcc.h ****            or the new value increases the BASEPRI priority level.
 272:Drivers/CMSIS/Include/cmsis_gcc.h ****   \param [in]    basePri  Base Priority value to set
 273:Drivers/CMSIS/Include/cmsis_gcc.h ****  */
 274:Drivers/CMSIS/Include/cmsis_gcc.h **** __attribute__( ( always_inline ) ) __STATIC_INLINE void __set_BASEPRI_MAX(uint32_t value)
 275:Drivers/CMSIS/Include/cmsis_gcc.h **** {
 276:Drivers/CMSIS/Include/cmsis_gcc.h ****   __ASM volatile ("MSR basepri_max, %0" : : "r" (value) : "memory");
 277:Drivers/CMSIS/Include/cmsis_gcc.h **** }
 278:Drivers/CMSIS/Include/cmsis_gcc.h **** 
 279:Drivers/CMSIS/Include/cmsis_gcc.h **** 
 280:Drivers/CMSIS/Include/cmsis_gcc.h **** /**
 281:Drivers/CMSIS/Include/cmsis_gcc.h ****   \brief   Get Fault Mask
 282:Drivers/CMSIS/Include/cmsis_gcc.h ****   \details Returns the current value of the Fault Mask register.
 283:Drivers/CMSIS/Include/cmsis_gcc.h ****   \return               Fault Mask register value
 284:Drivers/CMSIS/Include/cmsis_gcc.h ****  */
 285:Drivers/CMSIS/Include/cmsis_gcc.h **** __attribute__( ( always_inline ) ) __STATIC_INLINE uint32_t __get_FAULTMASK(void)
 286:Drivers/CMSIS/Include/cmsis_gcc.h **** {
 287:Drivers/CMSIS/Include/cmsis_gcc.h ****   uint32_t result;
 288:Drivers/CMSIS/Include/cmsis_gcc.h **** 
 289:Drivers/CMSIS/Include/cmsis_gcc.h ****   __ASM volatile ("MRS %0, faultmask" : "=r" (result) );
 290:Drivers/CMSIS/Include/cmsis_gcc.h ****   return(result);
 291:Drivers/CMSIS/Include/cmsis_gcc.h **** }
 292:Drivers/CMSIS/Include/cmsis_gcc.h **** 
 293:Drivers/CMSIS/Include/cmsis_gcc.h **** 
 294:Drivers/CMSIS/Include/cmsis_gcc.h **** /**
 295:Drivers/CMSIS/Include/cmsis_gcc.h ****   \brief   Set Fault Mask
 296:Drivers/CMSIS/Include/cmsis_gcc.h ****   \details Assigns the given value to the Fault Mask register.
 297:Drivers/CMSIS/Include/cmsis_gcc.h ****   \param [in]    faultMask  Fault Mask value to set
 298:Drivers/CMSIS/Include/cmsis_gcc.h ****  */
 299:Drivers/CMSIS/Include/cmsis_gcc.h **** __attribute__( ( always_inline ) ) __STATIC_INLINE void __set_FAULTMASK(uint32_t faultMask)
 300:Drivers/CMSIS/Include/cmsis_gcc.h **** {
 301:Drivers/CMSIS/Include/cmsis_gcc.h ****   __ASM volatile ("MSR faultmask, %0" : : "r" (faultMask) : "memory");
 302:Drivers/CMSIS/Include/cmsis_gcc.h **** }
 303:Drivers/CMSIS/Include/cmsis_gcc.h **** 
 304:Drivers/CMSIS/Include/cmsis_gcc.h **** #endif /* (__CORTEX_M >= 0x03U) */
 305:Drivers/CMSIS/Include/cmsis_gcc.h **** 
 306:Drivers/CMSIS/Include/cmsis_gcc.h **** 
 307:Drivers/CMSIS/Include/cmsis_gcc.h **** #if       (__CORTEX_M == 0x04U) || (__CORTEX_M == 0x07U)
 308:Drivers/CMSIS/Include/cmsis_gcc.h **** 
 309:Drivers/CMSIS/Include/cmsis_gcc.h **** /**
 310:Drivers/CMSIS/Include/cmsis_gcc.h ****   \brief   Get FPSCR
 311:Drivers/CMSIS/Include/cmsis_gcc.h ****   \details Returns the current value of the Floating Point Status/Control register.
 312:Drivers/CMSIS/Include/cmsis_gcc.h ****   \return               Floating Point Status/Control register value
 313:Drivers/CMSIS/Include/cmsis_gcc.h ****  */
 314:Drivers/CMSIS/Include/cmsis_gcc.h **** __attribute__( ( always_inline ) ) __STATIC_INLINE uint32_t __get_FPSCR(void)
 315:Drivers/CMSIS/Include/cmsis_gcc.h **** {
 316:Drivers/CMSIS/Include/cmsis_gcc.h **** #if (__FPU_PRESENT == 1U) && (__FPU_USED == 1U)
ARM GAS  /tmp/ccmMriQ8.s 			page 16


 317:Drivers/CMSIS/Include/cmsis_gcc.h ****   uint32_t result;
 318:Drivers/CMSIS/Include/cmsis_gcc.h **** 
 319:Drivers/CMSIS/Include/cmsis_gcc.h ****   /* Empty asm statement works as a scheduling barrier */
 320:Drivers/CMSIS/Include/cmsis_gcc.h ****   __ASM volatile ("");
 321:Drivers/CMSIS/Include/cmsis_gcc.h ****   __ASM volatile ("VMRS %0, fpscr" : "=r" (result) );
 322:Drivers/CMSIS/Include/cmsis_gcc.h ****   __ASM volatile ("");
 323:Drivers/CMSIS/Include/cmsis_gcc.h ****   return(result);
 324:Drivers/CMSIS/Include/cmsis_gcc.h **** #else
 325:Drivers/CMSIS/Include/cmsis_gcc.h ****    return(0);
 326:Drivers/CMSIS/Include/cmsis_gcc.h **** #endif
 327:Drivers/CMSIS/Include/cmsis_gcc.h **** }
 328:Drivers/CMSIS/Include/cmsis_gcc.h **** 
 329:Drivers/CMSIS/Include/cmsis_gcc.h **** 
 330:Drivers/CMSIS/Include/cmsis_gcc.h **** /**
 331:Drivers/CMSIS/Include/cmsis_gcc.h ****   \brief   Set FPSCR
 332:Drivers/CMSIS/Include/cmsis_gcc.h ****   \details Assigns the given value to the Floating Point Status/Control register.
 333:Drivers/CMSIS/Include/cmsis_gcc.h ****   \param [in]    fpscr  Floating Point Status/Control value to set
 334:Drivers/CMSIS/Include/cmsis_gcc.h ****  */
 335:Drivers/CMSIS/Include/cmsis_gcc.h **** __attribute__( ( always_inline ) ) __STATIC_INLINE void __set_FPSCR(uint32_t fpscr)
 336:Drivers/CMSIS/Include/cmsis_gcc.h **** {
 337:Drivers/CMSIS/Include/cmsis_gcc.h **** #if (__FPU_PRESENT == 1U) && (__FPU_USED == 1U)
 338:Drivers/CMSIS/Include/cmsis_gcc.h ****   /* Empty asm statement works as a scheduling barrier */
 339:Drivers/CMSIS/Include/cmsis_gcc.h ****   __ASM volatile ("");
 340:Drivers/CMSIS/Include/cmsis_gcc.h ****   __ASM volatile ("VMSR fpscr, %0" : : "r" (fpscr) : "vfpcc");
 341:Drivers/CMSIS/Include/cmsis_gcc.h ****   __ASM volatile ("");
 342:Drivers/CMSIS/Include/cmsis_gcc.h **** #endif
 343:Drivers/CMSIS/Include/cmsis_gcc.h **** }
 344:Drivers/CMSIS/Include/cmsis_gcc.h **** 
 345:Drivers/CMSIS/Include/cmsis_gcc.h **** #endif /* (__CORTEX_M == 0x04U) || (__CORTEX_M == 0x07U) */
 346:Drivers/CMSIS/Include/cmsis_gcc.h **** 
 347:Drivers/CMSIS/Include/cmsis_gcc.h **** 
 348:Drivers/CMSIS/Include/cmsis_gcc.h **** 
 349:Drivers/CMSIS/Include/cmsis_gcc.h **** /*@} end of CMSIS_Core_RegAccFunctions */
 350:Drivers/CMSIS/Include/cmsis_gcc.h **** 
 351:Drivers/CMSIS/Include/cmsis_gcc.h **** 
 352:Drivers/CMSIS/Include/cmsis_gcc.h **** /* ##########################  Core Instruction Access  ######################### */
 353:Drivers/CMSIS/Include/cmsis_gcc.h **** /** \defgroup CMSIS_Core_InstructionInterface CMSIS Core Instruction Interface
 354:Drivers/CMSIS/Include/cmsis_gcc.h ****   Access to dedicated instructions
 355:Drivers/CMSIS/Include/cmsis_gcc.h ****   @{
 356:Drivers/CMSIS/Include/cmsis_gcc.h **** */
 357:Drivers/CMSIS/Include/cmsis_gcc.h **** 
 358:Drivers/CMSIS/Include/cmsis_gcc.h **** /* Define macros for porting to both thumb1 and thumb2.
 359:Drivers/CMSIS/Include/cmsis_gcc.h ****  * For thumb1, use low register (r0-r7), specified by constraint "l"
 360:Drivers/CMSIS/Include/cmsis_gcc.h ****  * Otherwise, use general registers, specified by constraint "r" */
 361:Drivers/CMSIS/Include/cmsis_gcc.h **** #if defined (__thumb__) && !defined (__thumb2__)
 362:Drivers/CMSIS/Include/cmsis_gcc.h **** #define __CMSIS_GCC_OUT_REG(r) "=l" (r)
 363:Drivers/CMSIS/Include/cmsis_gcc.h **** #define __CMSIS_GCC_USE_REG(r) "l" (r)
 364:Drivers/CMSIS/Include/cmsis_gcc.h **** #else
 365:Drivers/CMSIS/Include/cmsis_gcc.h **** #define __CMSIS_GCC_OUT_REG(r) "=r" (r)
 366:Drivers/CMSIS/Include/cmsis_gcc.h **** #define __CMSIS_GCC_USE_REG(r) "r" (r)
 367:Drivers/CMSIS/Include/cmsis_gcc.h **** #endif
 368:Drivers/CMSIS/Include/cmsis_gcc.h **** 
 369:Drivers/CMSIS/Include/cmsis_gcc.h **** /**
 370:Drivers/CMSIS/Include/cmsis_gcc.h ****   \brief   No Operation
 371:Drivers/CMSIS/Include/cmsis_gcc.h ****   \details No Operation does nothing. This instruction can be used for code alignment purposes.
 372:Drivers/CMSIS/Include/cmsis_gcc.h ****  */
 373:Drivers/CMSIS/Include/cmsis_gcc.h **** __attribute__((always_inline)) __STATIC_INLINE void __NOP(void)
ARM GAS  /tmp/ccmMriQ8.s 			page 17


 374:Drivers/CMSIS/Include/cmsis_gcc.h **** {
 375:Drivers/CMSIS/Include/cmsis_gcc.h ****   __ASM volatile ("nop");
 376:Drivers/CMSIS/Include/cmsis_gcc.h **** }
 377:Drivers/CMSIS/Include/cmsis_gcc.h **** 
 378:Drivers/CMSIS/Include/cmsis_gcc.h **** 
 379:Drivers/CMSIS/Include/cmsis_gcc.h **** /**
 380:Drivers/CMSIS/Include/cmsis_gcc.h ****   \brief   Wait For Interrupt
 381:Drivers/CMSIS/Include/cmsis_gcc.h ****   \details Wait For Interrupt is a hint instruction that suspends execution until one of a number o
 382:Drivers/CMSIS/Include/cmsis_gcc.h ****  */
 383:Drivers/CMSIS/Include/cmsis_gcc.h **** __attribute__((always_inline)) __STATIC_INLINE void __WFI(void)
 384:Drivers/CMSIS/Include/cmsis_gcc.h **** {
 385:Drivers/CMSIS/Include/cmsis_gcc.h ****   __ASM volatile ("wfi");
 386:Drivers/CMSIS/Include/cmsis_gcc.h **** }
 387:Drivers/CMSIS/Include/cmsis_gcc.h **** 
 388:Drivers/CMSIS/Include/cmsis_gcc.h **** 
 389:Drivers/CMSIS/Include/cmsis_gcc.h **** /**
 390:Drivers/CMSIS/Include/cmsis_gcc.h ****   \brief   Wait For Event
 391:Drivers/CMSIS/Include/cmsis_gcc.h ****   \details Wait For Event is a hint instruction that permits the processor to enter
 392:Drivers/CMSIS/Include/cmsis_gcc.h ****     a low-power state until one of a number of events occurs.
 393:Drivers/CMSIS/Include/cmsis_gcc.h ****  */
 394:Drivers/CMSIS/Include/cmsis_gcc.h **** __attribute__((always_inline)) __STATIC_INLINE void __WFE(void)
 395:Drivers/CMSIS/Include/cmsis_gcc.h **** {
 396:Drivers/CMSIS/Include/cmsis_gcc.h ****   __ASM volatile ("wfe");
 397:Drivers/CMSIS/Include/cmsis_gcc.h **** }
 398:Drivers/CMSIS/Include/cmsis_gcc.h **** 
 399:Drivers/CMSIS/Include/cmsis_gcc.h **** 
 400:Drivers/CMSIS/Include/cmsis_gcc.h **** /**
 401:Drivers/CMSIS/Include/cmsis_gcc.h ****   \brief   Send Event
 402:Drivers/CMSIS/Include/cmsis_gcc.h ****   \details Send Event is a hint instruction. It causes an event to be signaled to the CPU.
 403:Drivers/CMSIS/Include/cmsis_gcc.h ****  */
 404:Drivers/CMSIS/Include/cmsis_gcc.h **** __attribute__((always_inline)) __STATIC_INLINE void __SEV(void)
 405:Drivers/CMSIS/Include/cmsis_gcc.h **** {
 406:Drivers/CMSIS/Include/cmsis_gcc.h ****   __ASM volatile ("sev");
 407:Drivers/CMSIS/Include/cmsis_gcc.h **** }
 408:Drivers/CMSIS/Include/cmsis_gcc.h **** 
 409:Drivers/CMSIS/Include/cmsis_gcc.h **** 
 410:Drivers/CMSIS/Include/cmsis_gcc.h **** /**
 411:Drivers/CMSIS/Include/cmsis_gcc.h ****   \brief   Instruction Synchronization Barrier
 412:Drivers/CMSIS/Include/cmsis_gcc.h ****   \details Instruction Synchronization Barrier flushes the pipeline in the processor,
 413:Drivers/CMSIS/Include/cmsis_gcc.h ****            so that all instructions following the ISB are fetched from cache or memory,
 414:Drivers/CMSIS/Include/cmsis_gcc.h ****            after the instruction has been completed.
 415:Drivers/CMSIS/Include/cmsis_gcc.h ****  */
 416:Drivers/CMSIS/Include/cmsis_gcc.h **** __attribute__((always_inline)) __STATIC_INLINE void __ISB(void)
 417:Drivers/CMSIS/Include/cmsis_gcc.h **** {
 418:Drivers/CMSIS/Include/cmsis_gcc.h ****   __ASM volatile ("isb 0xF":::"memory");
 419:Drivers/CMSIS/Include/cmsis_gcc.h **** }
 420:Drivers/CMSIS/Include/cmsis_gcc.h **** 
 421:Drivers/CMSIS/Include/cmsis_gcc.h **** 
 422:Drivers/CMSIS/Include/cmsis_gcc.h **** /**
 423:Drivers/CMSIS/Include/cmsis_gcc.h ****   \brief   Data Synchronization Barrier
 424:Drivers/CMSIS/Include/cmsis_gcc.h ****   \details Acts as a special kind of Data Memory Barrier.
 425:Drivers/CMSIS/Include/cmsis_gcc.h ****            It completes when all explicit memory accesses before this instruction complete.
 426:Drivers/CMSIS/Include/cmsis_gcc.h ****  */
 427:Drivers/CMSIS/Include/cmsis_gcc.h **** __attribute__((always_inline)) __STATIC_INLINE void __DSB(void)
 428:Drivers/CMSIS/Include/cmsis_gcc.h **** {
 429:Drivers/CMSIS/Include/cmsis_gcc.h ****   __ASM volatile ("dsb 0xF":::"memory");
  60              		.loc 2 429 0
ARM GAS  /tmp/ccmMriQ8.s 			page 18


  61              		.syntax unified
  62              	@ 429 "Drivers/CMSIS/Include/cmsis_gcc.h" 1
  63 002a BFF34F8F 		dsb 0xF
  64              	@ 0 "" 2
  65              		.thumb
  66              		.syntax unified
  67 002e 7047     		bx	lr
  68              	.LVL3:
  69              	.L5:
  70              	.LBE7:
  71              	.LBE6:
 469:Drivers/STM32F7xx_HAL_Driver/Src/stm32f7xx_hal_flash_ex.c ****   }
  72              		.loc 1 469 0
  73 0030 1169     		ldr	r1, [r2, #16]
  74              	.LVL4:
  75 0032 48F20403 		movw	r3, #32772
  76 0036 0B43     		orrs	r3, r3, r1
  77 0038 1361     		str	r3, [r2, #16]
  78 003a EFE7     		b	.L3
  79              	.LVL5:
  80              	.L6:
 474:Drivers/STM32F7xx_HAL_Driver/Src/stm32f7xx_hal_flash_ex.c ****   }
  81              		.loc 1 474 0
  82 003c 024A     		ldr	r2, .L7
  83 003e 1369     		ldr	r3, [r2, #16]
  84 0040 43F40043 		orr	r3, r3, #32768
  85 0044 1361     		str	r3, [r2, #16]
  86 0046 E9E7     		b	.L3
  87              	.L8:
  88              		.align	2
  89              	.L7:
  90 0048 003C0240 		.word	1073888256
  91              		.cfi_endproc
  92              	.LFE140:
  94              		.section	.text.FLASH_OB_GetWRP,"ax",%progbits
  95              		.align	1
  96              		.syntax unified
  97              		.thumb
  98              		.thumb_func
  99              		.fpu fpv5-d16
 101              	FLASH_OB_GetWRP:
 102              	.LFB142:
 482:Drivers/STM32F7xx_HAL_Driver/Src/stm32f7xx_hal_flash_ex.c ****   /* Data synchronous Barrier (DSB) Just after the write operation
 483:Drivers/STM32F7xx_HAL_Driver/Src/stm32f7xx_hal_flash_ex.c ****      This will force the CPU to respect the sequence of instruction (no optimization).*/
 484:Drivers/STM32F7xx_HAL_Driver/Src/stm32f7xx_hal_flash_ex.c ****   __DSB();
 485:Drivers/STM32F7xx_HAL_Driver/Src/stm32f7xx_hal_flash_ex.c **** }
 486:Drivers/STM32F7xx_HAL_Driver/Src/stm32f7xx_hal_flash_ex.c **** 
 487:Drivers/STM32F7xx_HAL_Driver/Src/stm32f7xx_hal_flash_ex.c **** /**
 488:Drivers/STM32F7xx_HAL_Driver/Src/stm32f7xx_hal_flash_ex.c ****   * @brief  Erase the specified FLASH memory sector
 489:Drivers/STM32F7xx_HAL_Driver/Src/stm32f7xx_hal_flash_ex.c ****   * @param  Sector: FLASH sector to erase
 490:Drivers/STM32F7xx_HAL_Driver/Src/stm32f7xx_hal_flash_ex.c ****   *         The value of this parameter depend on device used within the same series      
 491:Drivers/STM32F7xx_HAL_Driver/Src/stm32f7xx_hal_flash_ex.c ****   * @param  VoltageRange: The device voltage range which defines the erase parallelism.  
 492:Drivers/STM32F7xx_HAL_Driver/Src/stm32f7xx_hal_flash_ex.c ****   *          This parameter can be one of the following values:
 493:Drivers/STM32F7xx_HAL_Driver/Src/stm32f7xx_hal_flash_ex.c ****   *            @arg FLASH_VOLTAGE_RANGE_1: when the device voltage range is 1.8V to 2.1V, 
 494:Drivers/STM32F7xx_HAL_Driver/Src/stm32f7xx_hal_flash_ex.c ****   *                                  the operation will be done by byte (8-bit) 
 495:Drivers/STM32F7xx_HAL_Driver/Src/stm32f7xx_hal_flash_ex.c ****   *            @arg FLASH_VOLTAGE_RANGE_2: when the device voltage range is 2.1V to 2.7V,
 496:Drivers/STM32F7xx_HAL_Driver/Src/stm32f7xx_hal_flash_ex.c ****   *                                  the operation will be done by half word (16-bit)
ARM GAS  /tmp/ccmMriQ8.s 			page 19


 497:Drivers/STM32F7xx_HAL_Driver/Src/stm32f7xx_hal_flash_ex.c ****   *            @arg FLASH_VOLTAGE_RANGE_3: when the device voltage range is 2.7V to 3.6V,
 498:Drivers/STM32F7xx_HAL_Driver/Src/stm32f7xx_hal_flash_ex.c ****   *                                  the operation will be done by word (32-bit)
 499:Drivers/STM32F7xx_HAL_Driver/Src/stm32f7xx_hal_flash_ex.c ****   *            @arg FLASH_VOLTAGE_RANGE_4: when the device voltage range is 2.7V to 3.6V + External
 500:Drivers/STM32F7xx_HAL_Driver/Src/stm32f7xx_hal_flash_ex.c ****   *                                  the operation will be done by double word (64-bit)
 501:Drivers/STM32F7xx_HAL_Driver/Src/stm32f7xx_hal_flash_ex.c ****   * 
 502:Drivers/STM32F7xx_HAL_Driver/Src/stm32f7xx_hal_flash_ex.c ****   * @retval None
 503:Drivers/STM32F7xx_HAL_Driver/Src/stm32f7xx_hal_flash_ex.c ****   */
 504:Drivers/STM32F7xx_HAL_Driver/Src/stm32f7xx_hal_flash_ex.c **** void FLASH_Erase_Sector(uint32_t Sector, uint8_t VoltageRange)
 505:Drivers/STM32F7xx_HAL_Driver/Src/stm32f7xx_hal_flash_ex.c **** {
 506:Drivers/STM32F7xx_HAL_Driver/Src/stm32f7xx_hal_flash_ex.c ****   uint32_t tmp_psize = 0;
 507:Drivers/STM32F7xx_HAL_Driver/Src/stm32f7xx_hal_flash_ex.c **** 
 508:Drivers/STM32F7xx_HAL_Driver/Src/stm32f7xx_hal_flash_ex.c ****   /* Check the parameters */
 509:Drivers/STM32F7xx_HAL_Driver/Src/stm32f7xx_hal_flash_ex.c ****   assert_param(IS_FLASH_SECTOR(Sector));
 510:Drivers/STM32F7xx_HAL_Driver/Src/stm32f7xx_hal_flash_ex.c ****   assert_param(IS_VOLTAGERANGE(VoltageRange));
 511:Drivers/STM32F7xx_HAL_Driver/Src/stm32f7xx_hal_flash_ex.c ****   
 512:Drivers/STM32F7xx_HAL_Driver/Src/stm32f7xx_hal_flash_ex.c ****   if(VoltageRange == FLASH_VOLTAGE_RANGE_1)
 513:Drivers/STM32F7xx_HAL_Driver/Src/stm32f7xx_hal_flash_ex.c ****   {
 514:Drivers/STM32F7xx_HAL_Driver/Src/stm32f7xx_hal_flash_ex.c ****      tmp_psize = FLASH_PSIZE_BYTE;
 515:Drivers/STM32F7xx_HAL_Driver/Src/stm32f7xx_hal_flash_ex.c ****   }
 516:Drivers/STM32F7xx_HAL_Driver/Src/stm32f7xx_hal_flash_ex.c ****   else if(VoltageRange == FLASH_VOLTAGE_RANGE_2)
 517:Drivers/STM32F7xx_HAL_Driver/Src/stm32f7xx_hal_flash_ex.c ****   {
 518:Drivers/STM32F7xx_HAL_Driver/Src/stm32f7xx_hal_flash_ex.c ****     tmp_psize = FLASH_PSIZE_HALF_WORD;
 519:Drivers/STM32F7xx_HAL_Driver/Src/stm32f7xx_hal_flash_ex.c ****   }
 520:Drivers/STM32F7xx_HAL_Driver/Src/stm32f7xx_hal_flash_ex.c ****   else if(VoltageRange == FLASH_VOLTAGE_RANGE_3)
 521:Drivers/STM32F7xx_HAL_Driver/Src/stm32f7xx_hal_flash_ex.c ****   {
 522:Drivers/STM32F7xx_HAL_Driver/Src/stm32f7xx_hal_flash_ex.c ****     tmp_psize = FLASH_PSIZE_WORD;
 523:Drivers/STM32F7xx_HAL_Driver/Src/stm32f7xx_hal_flash_ex.c ****   }
 524:Drivers/STM32F7xx_HAL_Driver/Src/stm32f7xx_hal_flash_ex.c ****   else
 525:Drivers/STM32F7xx_HAL_Driver/Src/stm32f7xx_hal_flash_ex.c ****   {
 526:Drivers/STM32F7xx_HAL_Driver/Src/stm32f7xx_hal_flash_ex.c ****     tmp_psize = FLASH_PSIZE_DOUBLE_WORD;
 527:Drivers/STM32F7xx_HAL_Driver/Src/stm32f7xx_hal_flash_ex.c ****   }
 528:Drivers/STM32F7xx_HAL_Driver/Src/stm32f7xx_hal_flash_ex.c ****   
 529:Drivers/STM32F7xx_HAL_Driver/Src/stm32f7xx_hal_flash_ex.c ****   /* Need to add offset of 4 when sector higher than FLASH_SECTOR_11 */
 530:Drivers/STM32F7xx_HAL_Driver/Src/stm32f7xx_hal_flash_ex.c ****   if(Sector > FLASH_SECTOR_11) 
 531:Drivers/STM32F7xx_HAL_Driver/Src/stm32f7xx_hal_flash_ex.c ****   {
 532:Drivers/STM32F7xx_HAL_Driver/Src/stm32f7xx_hal_flash_ex.c ****     Sector += 4;
 533:Drivers/STM32F7xx_HAL_Driver/Src/stm32f7xx_hal_flash_ex.c ****   }  
 534:Drivers/STM32F7xx_HAL_Driver/Src/stm32f7xx_hal_flash_ex.c **** 
 535:Drivers/STM32F7xx_HAL_Driver/Src/stm32f7xx_hal_flash_ex.c ****   /* If the previous operation is completed, proceed to erase the sector */
 536:Drivers/STM32F7xx_HAL_Driver/Src/stm32f7xx_hal_flash_ex.c ****   FLASH->CR &= CR_PSIZE_MASK;
 537:Drivers/STM32F7xx_HAL_Driver/Src/stm32f7xx_hal_flash_ex.c ****   FLASH->CR |= tmp_psize;
 538:Drivers/STM32F7xx_HAL_Driver/Src/stm32f7xx_hal_flash_ex.c ****   CLEAR_BIT(FLASH->CR, FLASH_CR_SNB);
 539:Drivers/STM32F7xx_HAL_Driver/Src/stm32f7xx_hal_flash_ex.c ****   FLASH->CR |= FLASH_CR_SER | (Sector << FLASH_CR_SNB_Pos);
 540:Drivers/STM32F7xx_HAL_Driver/Src/stm32f7xx_hal_flash_ex.c ****   FLASH->CR |= FLASH_CR_STRT;
 541:Drivers/STM32F7xx_HAL_Driver/Src/stm32f7xx_hal_flash_ex.c ****   
 542:Drivers/STM32F7xx_HAL_Driver/Src/stm32f7xx_hal_flash_ex.c ****   /* Data synchronous Barrier (DSB) Just after the write operation
 543:Drivers/STM32F7xx_HAL_Driver/Src/stm32f7xx_hal_flash_ex.c ****      This will force the CPU to respect the sequence of instruction (no optimization).*/
 544:Drivers/STM32F7xx_HAL_Driver/Src/stm32f7xx_hal_flash_ex.c ****   __DSB();
 545:Drivers/STM32F7xx_HAL_Driver/Src/stm32f7xx_hal_flash_ex.c **** }
 546:Drivers/STM32F7xx_HAL_Driver/Src/stm32f7xx_hal_flash_ex.c **** 
 547:Drivers/STM32F7xx_HAL_Driver/Src/stm32f7xx_hal_flash_ex.c **** /**
 548:Drivers/STM32F7xx_HAL_Driver/Src/stm32f7xx_hal_flash_ex.c ****   * @brief  Return the FLASH Write Protection Option Bytes value.
 549:Drivers/STM32F7xx_HAL_Driver/Src/stm32f7xx_hal_flash_ex.c ****   * @retval uint32_t FLASH Write Protection Option Bytes value
 550:Drivers/STM32F7xx_HAL_Driver/Src/stm32f7xx_hal_flash_ex.c ****   */
 551:Drivers/STM32F7xx_HAL_Driver/Src/stm32f7xx_hal_flash_ex.c **** static uint32_t FLASH_OB_GetWRP(void)
 552:Drivers/STM32F7xx_HAL_Driver/Src/stm32f7xx_hal_flash_ex.c **** {
 103              		.loc 1 552 0
ARM GAS  /tmp/ccmMriQ8.s 			page 20


 104              		.cfi_startproc
 105              		@ args = 0, pretend = 0, frame = 0
 106              		@ frame_needed = 0, uses_anonymous_args = 0
 107              		@ link register save eliminated.
 553:Drivers/STM32F7xx_HAL_Driver/Src/stm32f7xx_hal_flash_ex.c ****   /* Return the FLASH write protection Register value */
 554:Drivers/STM32F7xx_HAL_Driver/Src/stm32f7xx_hal_flash_ex.c ****   return ((uint32_t)(FLASH->OPTCR & 0x0FFF0000));
 108              		.loc 1 554 0
 109 0000 024B     		ldr	r3, .L10
 110 0002 5B69     		ldr	r3, [r3, #20]
 555:Drivers/STM32F7xx_HAL_Driver/Src/stm32f7xx_hal_flash_ex.c **** }
 111              		.loc 1 555 0
 112 0004 0248     		ldr	r0, .L10+4
 113 0006 1840     		ands	r0, r0, r3
 114 0008 7047     		bx	lr
 115              	.L11:
 116 000a 00BF     		.align	2
 117              	.L10:
 118 000c 003C0240 		.word	1073888256
 119 0010 0000FF0F 		.word	268369920
 120              		.cfi_endproc
 121              	.LFE142:
 123              		.section	.text.FLASH_OB_GetUser,"ax",%progbits
 124              		.align	1
 125              		.syntax unified
 126              		.thumb
 127              		.thumb_func
 128              		.fpu fpv5-d16
 130              	FLASH_OB_GetUser:
 131              	.LFB144:
 556:Drivers/STM32F7xx_HAL_Driver/Src/stm32f7xx_hal_flash_ex.c **** 
 557:Drivers/STM32F7xx_HAL_Driver/Src/stm32f7xx_hal_flash_ex.c **** /**
 558:Drivers/STM32F7xx_HAL_Driver/Src/stm32f7xx_hal_flash_ex.c ****   * @brief  Program the FLASH User Option Byte: IWDG_SW / RST_STOP / RST_STDBY.    
 559:Drivers/STM32F7xx_HAL_Driver/Src/stm32f7xx_hal_flash_ex.c ****   * @param  Wwdg: Selects the IWDG mode
 560:Drivers/STM32F7xx_HAL_Driver/Src/stm32f7xx_hal_flash_ex.c ****   *          This parameter can be one of the following values:
 561:Drivers/STM32F7xx_HAL_Driver/Src/stm32f7xx_hal_flash_ex.c ****   *            @arg OB_WWDG_SW: Software WWDG selected
 562:Drivers/STM32F7xx_HAL_Driver/Src/stm32f7xx_hal_flash_ex.c ****   *            @arg OB_WWDG_HW: Hardware WWDG selected
 563:Drivers/STM32F7xx_HAL_Driver/Src/stm32f7xx_hal_flash_ex.c ****   * @param  Iwdg: Selects the WWDG mode
 564:Drivers/STM32F7xx_HAL_Driver/Src/stm32f7xx_hal_flash_ex.c ****   *          This parameter can be one of the following values:
 565:Drivers/STM32F7xx_HAL_Driver/Src/stm32f7xx_hal_flash_ex.c ****   *            @arg OB_IWDG_SW: Software IWDG selected
 566:Drivers/STM32F7xx_HAL_Driver/Src/stm32f7xx_hal_flash_ex.c ****   *            @arg OB_IWDG_HW: Hardware IWDG selected
 567:Drivers/STM32F7xx_HAL_Driver/Src/stm32f7xx_hal_flash_ex.c ****   * @param  Stop: Reset event when entering STOP mode.
 568:Drivers/STM32F7xx_HAL_Driver/Src/stm32f7xx_hal_flash_ex.c ****   *          This parameter  can be one of the following values:
 569:Drivers/STM32F7xx_HAL_Driver/Src/stm32f7xx_hal_flash_ex.c ****   *            @arg OB_STOP_NO_RST: No reset generated when entering in STOP
 570:Drivers/STM32F7xx_HAL_Driver/Src/stm32f7xx_hal_flash_ex.c ****   *            @arg OB_STOP_RST: Reset generated when entering in STOP
 571:Drivers/STM32F7xx_HAL_Driver/Src/stm32f7xx_hal_flash_ex.c ****   * @param  Stdby: Reset event when entering Standby mode.
 572:Drivers/STM32F7xx_HAL_Driver/Src/stm32f7xx_hal_flash_ex.c ****   *          This parameter  can be one of the following values:
 573:Drivers/STM32F7xx_HAL_Driver/Src/stm32f7xx_hal_flash_ex.c ****   *            @arg OB_STDBY_NO_RST: No reset generated when entering in STANDBY
 574:Drivers/STM32F7xx_HAL_Driver/Src/stm32f7xx_hal_flash_ex.c ****   *            @arg OB_STDBY_RST: Reset generated when entering in STANDBY
 575:Drivers/STM32F7xx_HAL_Driver/Src/stm32f7xx_hal_flash_ex.c ****   * @param  Iwdgstop: Independent watchdog counter freeze in Stop mode.
 576:Drivers/STM32F7xx_HAL_Driver/Src/stm32f7xx_hal_flash_ex.c ****   *          This parameter  can be one of the following values:
 577:Drivers/STM32F7xx_HAL_Driver/Src/stm32f7xx_hal_flash_ex.c ****   *            @arg OB_IWDG_STOP_FREEZE: Freeze IWDG counter in STOP
 578:Drivers/STM32F7xx_HAL_Driver/Src/stm32f7xx_hal_flash_ex.c ****   *            @arg OB_IWDG_STOP_ACTIVE: IWDG counter active in STOP
 579:Drivers/STM32F7xx_HAL_Driver/Src/stm32f7xx_hal_flash_ex.c ****   * @param  Iwdgstdby: Independent watchdog counter freeze in standby mode.
 580:Drivers/STM32F7xx_HAL_Driver/Src/stm32f7xx_hal_flash_ex.c ****   *          This parameter  can be one of the following values:
 581:Drivers/STM32F7xx_HAL_Driver/Src/stm32f7xx_hal_flash_ex.c ****   *            @arg OB_IWDG_STDBY_FREEZE: Freeze IWDG counter in STANDBY
 582:Drivers/STM32F7xx_HAL_Driver/Src/stm32f7xx_hal_flash_ex.c ****   *            @arg OB_IWDG_STDBY_ACTIVE: IWDG counter active in STANDBY
 583:Drivers/STM32F7xx_HAL_Driver/Src/stm32f7xx_hal_flash_ex.c ****   * @param  NDBank: Flash Single Bank mode enabled.
ARM GAS  /tmp/ccmMriQ8.s 			page 21


 584:Drivers/STM32F7xx_HAL_Driver/Src/stm32f7xx_hal_flash_ex.c ****   *          This parameter  can be one of the following values:
 585:Drivers/STM32F7xx_HAL_Driver/Src/stm32f7xx_hal_flash_ex.c ****   *            @arg OB_NDBANK_SINGLE_BANK: enable 256 bits mode (Flash is a single bank)
 586:Drivers/STM32F7xx_HAL_Driver/Src/stm32f7xx_hal_flash_ex.c ****   *            @arg OB_NDBANK_DUAL_BANK: disable 256 bits mode (Flash is a dual bank in 128 bits mo
 587:Drivers/STM32F7xx_HAL_Driver/Src/stm32f7xx_hal_flash_ex.c ****   * @param  NDBoot: Flash Dual boot mode disable.
 588:Drivers/STM32F7xx_HAL_Driver/Src/stm32f7xx_hal_flash_ex.c ****   *          This parameter  can be one of the following values:
 589:Drivers/STM32F7xx_HAL_Driver/Src/stm32f7xx_hal_flash_ex.c ****   *            @arg OB_DUAL_BOOT_DISABLE: Disable Dual Boot
 590:Drivers/STM32F7xx_HAL_Driver/Src/stm32f7xx_hal_flash_ex.c ****   *            @arg OB_DUAL_BOOT_ENABLE: Enable Dual Boot
 591:Drivers/STM32F7xx_HAL_Driver/Src/stm32f7xx_hal_flash_ex.c **** 
 592:Drivers/STM32F7xx_HAL_Driver/Src/stm32f7xx_hal_flash_ex.c ****   * @retval HAL Status
 593:Drivers/STM32F7xx_HAL_Driver/Src/stm32f7xx_hal_flash_ex.c ****   */
 594:Drivers/STM32F7xx_HAL_Driver/Src/stm32f7xx_hal_flash_ex.c **** static HAL_StatusTypeDef FLASH_OB_UserConfig(uint32_t Wwdg, uint32_t Iwdg, uint32_t Stop, uint32_t 
 595:Drivers/STM32F7xx_HAL_Driver/Src/stm32f7xx_hal_flash_ex.c ****                                              uint32_t Iwdgstdby, uint32_t NDBank, uint32_t NDBoot)
 596:Drivers/STM32F7xx_HAL_Driver/Src/stm32f7xx_hal_flash_ex.c **** {
 597:Drivers/STM32F7xx_HAL_Driver/Src/stm32f7xx_hal_flash_ex.c ****   uint32_t useroptionmask = 0x00;
 598:Drivers/STM32F7xx_HAL_Driver/Src/stm32f7xx_hal_flash_ex.c ****   uint32_t useroptionvalue = 0x00;
 599:Drivers/STM32F7xx_HAL_Driver/Src/stm32f7xx_hal_flash_ex.c **** 
 600:Drivers/STM32F7xx_HAL_Driver/Src/stm32f7xx_hal_flash_ex.c ****   HAL_StatusTypeDef status = HAL_OK;
 601:Drivers/STM32F7xx_HAL_Driver/Src/stm32f7xx_hal_flash_ex.c **** 
 602:Drivers/STM32F7xx_HAL_Driver/Src/stm32f7xx_hal_flash_ex.c ****   /* Check the parameters */
 603:Drivers/STM32F7xx_HAL_Driver/Src/stm32f7xx_hal_flash_ex.c ****   assert_param(IS_OB_WWDG_SOURCE(Wwdg));
 604:Drivers/STM32F7xx_HAL_Driver/Src/stm32f7xx_hal_flash_ex.c ****   assert_param(IS_OB_IWDG_SOURCE(Iwdg));
 605:Drivers/STM32F7xx_HAL_Driver/Src/stm32f7xx_hal_flash_ex.c ****   assert_param(IS_OB_STOP_SOURCE(Stop));
 606:Drivers/STM32F7xx_HAL_Driver/Src/stm32f7xx_hal_flash_ex.c ****   assert_param(IS_OB_STDBY_SOURCE(Stdby));
 607:Drivers/STM32F7xx_HAL_Driver/Src/stm32f7xx_hal_flash_ex.c ****   assert_param(IS_OB_IWDG_STOP_FREEZE(Iwdgstop));
 608:Drivers/STM32F7xx_HAL_Driver/Src/stm32f7xx_hal_flash_ex.c ****   assert_param(IS_OB_IWDG_STDBY_FREEZE(Iwdgstdby));
 609:Drivers/STM32F7xx_HAL_Driver/Src/stm32f7xx_hal_flash_ex.c ****   assert_param(IS_OB_NDBANK(NDBank));
 610:Drivers/STM32F7xx_HAL_Driver/Src/stm32f7xx_hal_flash_ex.c ****   assert_param(IS_OB_NDBOOT(NDBoot));
 611:Drivers/STM32F7xx_HAL_Driver/Src/stm32f7xx_hal_flash_ex.c ****   
 612:Drivers/STM32F7xx_HAL_Driver/Src/stm32f7xx_hal_flash_ex.c ****   /* Wait for last operation to be completed */
 613:Drivers/STM32F7xx_HAL_Driver/Src/stm32f7xx_hal_flash_ex.c ****   status = FLASH_WaitForLastOperation((uint32_t)FLASH_TIMEOUT_VALUE);
 614:Drivers/STM32F7xx_HAL_Driver/Src/stm32f7xx_hal_flash_ex.c ****   
 615:Drivers/STM32F7xx_HAL_Driver/Src/stm32f7xx_hal_flash_ex.c ****   if(status == HAL_OK)
 616:Drivers/STM32F7xx_HAL_Driver/Src/stm32f7xx_hal_flash_ex.c ****   {
 617:Drivers/STM32F7xx_HAL_Driver/Src/stm32f7xx_hal_flash_ex.c ****     useroptionmask = (FLASH_OPTCR_WWDG_SW | FLASH_OPTCR_IWDG_SW | FLASH_OPTCR_nRST_STOP | \
 618:Drivers/STM32F7xx_HAL_Driver/Src/stm32f7xx_hal_flash_ex.c ****                       FLASH_OPTCR_nRST_STDBY | FLASH_OPTCR_IWDG_STOP | FLASH_OPTCR_IWDG_STDBY | \
 619:Drivers/STM32F7xx_HAL_Driver/Src/stm32f7xx_hal_flash_ex.c ****                       FLASH_OPTCR_nDBOOT | FLASH_OPTCR_nDBANK);
 620:Drivers/STM32F7xx_HAL_Driver/Src/stm32f7xx_hal_flash_ex.c ****                       
 621:Drivers/STM32F7xx_HAL_Driver/Src/stm32f7xx_hal_flash_ex.c ****     useroptionvalue = (Iwdg | Wwdg | Stop | Stdby | Iwdgstop | Iwdgstdby | NDBoot | NDBank);
 622:Drivers/STM32F7xx_HAL_Driver/Src/stm32f7xx_hal_flash_ex.c ****         
 623:Drivers/STM32F7xx_HAL_Driver/Src/stm32f7xx_hal_flash_ex.c ****     /* Update User Option Byte */               
 624:Drivers/STM32F7xx_HAL_Driver/Src/stm32f7xx_hal_flash_ex.c ****     MODIFY_REG(FLASH->OPTCR, useroptionmask, useroptionvalue);
 625:Drivers/STM32F7xx_HAL_Driver/Src/stm32f7xx_hal_flash_ex.c ****   }
 626:Drivers/STM32F7xx_HAL_Driver/Src/stm32f7xx_hal_flash_ex.c ****   
 627:Drivers/STM32F7xx_HAL_Driver/Src/stm32f7xx_hal_flash_ex.c ****   return status; 
 628:Drivers/STM32F7xx_HAL_Driver/Src/stm32f7xx_hal_flash_ex.c **** }
 629:Drivers/STM32F7xx_HAL_Driver/Src/stm32f7xx_hal_flash_ex.c **** 
 630:Drivers/STM32F7xx_HAL_Driver/Src/stm32f7xx_hal_flash_ex.c **** /**
 631:Drivers/STM32F7xx_HAL_Driver/Src/stm32f7xx_hal_flash_ex.c ****   * @brief  Return the FLASH User Option Byte value.
 632:Drivers/STM32F7xx_HAL_Driver/Src/stm32f7xx_hal_flash_ex.c ****   * @retval uint32_t FLASH User Option Bytes values: WWDG_SW(Bit4), IWDG_SW(Bit5), nRST_STOP(Bit6),
 633:Drivers/STM32F7xx_HAL_Driver/Src/stm32f7xx_hal_flash_ex.c ****   *         nRST_STDBY(Bit7), nDBOOT(Bit28), nDBANK(Bit29), IWDG_STDBY(Bit30) and IWDG_STOP(Bit31).
 634:Drivers/STM32F7xx_HAL_Driver/Src/stm32f7xx_hal_flash_ex.c ****   */
 635:Drivers/STM32F7xx_HAL_Driver/Src/stm32f7xx_hal_flash_ex.c **** static uint32_t FLASH_OB_GetUser(void)
 636:Drivers/STM32F7xx_HAL_Driver/Src/stm32f7xx_hal_flash_ex.c **** {
 132              		.loc 1 636 0
 133              		.cfi_startproc
 134              		@ args = 0, pretend = 0, frame = 0
 135              		@ frame_needed = 0, uses_anonymous_args = 0
ARM GAS  /tmp/ccmMriQ8.s 			page 22


 136              		@ link register save eliminated.
 637:Drivers/STM32F7xx_HAL_Driver/Src/stm32f7xx_hal_flash_ex.c ****   /* Return the User Option Byte */
 638:Drivers/STM32F7xx_HAL_Driver/Src/stm32f7xx_hal_flash_ex.c ****   return ((uint32_t)(FLASH->OPTCR & 0xF00000F0U));
 137              		.loc 1 638 0
 138 0000 024B     		ldr	r3, .L13
 139 0002 5B69     		ldr	r3, [r3, #20]
 639:Drivers/STM32F7xx_HAL_Driver/Src/stm32f7xx_hal_flash_ex.c **** }
 140              		.loc 1 639 0
 141 0004 0248     		ldr	r0, .L13+4
 142 0006 1840     		ands	r0, r0, r3
 143 0008 7047     		bx	lr
 144              	.L14:
 145 000a 00BF     		.align	2
 146              	.L13:
 147 000c 003C0240 		.word	1073888256
 148 0010 F00000F0 		.word	-268435216
 149              		.cfi_endproc
 150              	.LFE144:
 152              		.section	.text.FLASH_OB_BOR_LevelConfig,"ax",%progbits
 153              		.align	1
 154              		.syntax unified
 155              		.thumb
 156              		.thumb_func
 157              		.fpu fpv5-d16
 159              	FLASH_OB_BOR_LevelConfig:
 160              	.LFB148:
 640:Drivers/STM32F7xx_HAL_Driver/Src/stm32f7xx_hal_flash_ex.c **** #else
 641:Drivers/STM32F7xx_HAL_Driver/Src/stm32f7xx_hal_flash_ex.c **** 
 642:Drivers/STM32F7xx_HAL_Driver/Src/stm32f7xx_hal_flash_ex.c **** /**
 643:Drivers/STM32F7xx_HAL_Driver/Src/stm32f7xx_hal_flash_ex.c ****   * @brief  Full erase of FLASH memory sectors 
 644:Drivers/STM32F7xx_HAL_Driver/Src/stm32f7xx_hal_flash_ex.c ****   * @param  VoltageRange: The device voltage range which defines the erase parallelism.  
 645:Drivers/STM32F7xx_HAL_Driver/Src/stm32f7xx_hal_flash_ex.c ****   *          This parameter can be one of the following values:
 646:Drivers/STM32F7xx_HAL_Driver/Src/stm32f7xx_hal_flash_ex.c ****   *            @arg VOLTAGE_RANGE_1: when the device voltage range is 1.8V to 2.1V, 
 647:Drivers/STM32F7xx_HAL_Driver/Src/stm32f7xx_hal_flash_ex.c ****   *                                  the operation will be done by byte (8-bit) 
 648:Drivers/STM32F7xx_HAL_Driver/Src/stm32f7xx_hal_flash_ex.c ****   *            @arg VOLTAGE_RANGE_2: when the device voltage range is 2.1V to 2.7V,
 649:Drivers/STM32F7xx_HAL_Driver/Src/stm32f7xx_hal_flash_ex.c ****   *                                  the operation will be done by half word (16-bit)
 650:Drivers/STM32F7xx_HAL_Driver/Src/stm32f7xx_hal_flash_ex.c ****   *            @arg VOLTAGE_RANGE_3: when the device voltage range is 2.7V to 3.6V,
 651:Drivers/STM32F7xx_HAL_Driver/Src/stm32f7xx_hal_flash_ex.c ****   *                                  the operation will be done by word (32-bit)
 652:Drivers/STM32F7xx_HAL_Driver/Src/stm32f7xx_hal_flash_ex.c ****   *            @arg VOLTAGE_RANGE_4: when the device voltage range is 2.7V to 3.6V + External Vpp, 
 653:Drivers/STM32F7xx_HAL_Driver/Src/stm32f7xx_hal_flash_ex.c ****   *                                  the operation will be done by double word (64-bit)
 654:Drivers/STM32F7xx_HAL_Driver/Src/stm32f7xx_hal_flash_ex.c ****   *
 655:Drivers/STM32F7xx_HAL_Driver/Src/stm32f7xx_hal_flash_ex.c ****   * @retval HAL Status
 656:Drivers/STM32F7xx_HAL_Driver/Src/stm32f7xx_hal_flash_ex.c ****   */
 657:Drivers/STM32F7xx_HAL_Driver/Src/stm32f7xx_hal_flash_ex.c **** static void FLASH_MassErase(uint8_t VoltageRange)
 658:Drivers/STM32F7xx_HAL_Driver/Src/stm32f7xx_hal_flash_ex.c **** {
 659:Drivers/STM32F7xx_HAL_Driver/Src/stm32f7xx_hal_flash_ex.c ****   /* Check the parameters */
 660:Drivers/STM32F7xx_HAL_Driver/Src/stm32f7xx_hal_flash_ex.c ****   assert_param(IS_VOLTAGERANGE(VoltageRange));
 661:Drivers/STM32F7xx_HAL_Driver/Src/stm32f7xx_hal_flash_ex.c **** 
 662:Drivers/STM32F7xx_HAL_Driver/Src/stm32f7xx_hal_flash_ex.c ****   /* if the previous operation is completed, proceed to erase all sectors */
 663:Drivers/STM32F7xx_HAL_Driver/Src/stm32f7xx_hal_flash_ex.c ****   FLASH->CR &= CR_PSIZE_MASK;
 664:Drivers/STM32F7xx_HAL_Driver/Src/stm32f7xx_hal_flash_ex.c ****   FLASH->CR |= FLASH_CR_MER;
 665:Drivers/STM32F7xx_HAL_Driver/Src/stm32f7xx_hal_flash_ex.c ****   FLASH->CR |= FLASH_CR_STRT | ((uint32_t)VoltageRange <<8);
 666:Drivers/STM32F7xx_HAL_Driver/Src/stm32f7xx_hal_flash_ex.c ****   /* Data synchronous Barrier (DSB) Just after the write operation
 667:Drivers/STM32F7xx_HAL_Driver/Src/stm32f7xx_hal_flash_ex.c ****      This will force the CPU to respect the sequence of instruction (no optimization).*/
 668:Drivers/STM32F7xx_HAL_Driver/Src/stm32f7xx_hal_flash_ex.c ****   __DSB();
 669:Drivers/STM32F7xx_HAL_Driver/Src/stm32f7xx_hal_flash_ex.c **** }
 670:Drivers/STM32F7xx_HAL_Driver/Src/stm32f7xx_hal_flash_ex.c **** 
ARM GAS  /tmp/ccmMriQ8.s 			page 23


 671:Drivers/STM32F7xx_HAL_Driver/Src/stm32f7xx_hal_flash_ex.c **** /**
 672:Drivers/STM32F7xx_HAL_Driver/Src/stm32f7xx_hal_flash_ex.c ****   * @brief  Erase the specified FLASH memory sector
 673:Drivers/STM32F7xx_HAL_Driver/Src/stm32f7xx_hal_flash_ex.c ****   * @param  Sector: FLASH sector to erase
 674:Drivers/STM32F7xx_HAL_Driver/Src/stm32f7xx_hal_flash_ex.c ****   *         The value of this parameter depend on device used within the same series      
 675:Drivers/STM32F7xx_HAL_Driver/Src/stm32f7xx_hal_flash_ex.c ****   * @param  VoltageRange: The device voltage range which defines the erase parallelism.  
 676:Drivers/STM32F7xx_HAL_Driver/Src/stm32f7xx_hal_flash_ex.c ****   *          This parameter can be one of the following values:
 677:Drivers/STM32F7xx_HAL_Driver/Src/stm32f7xx_hal_flash_ex.c ****   *            @arg FLASH_VOLTAGE_RANGE_1: when the device voltage range is 1.8V to 2.1V, 
 678:Drivers/STM32F7xx_HAL_Driver/Src/stm32f7xx_hal_flash_ex.c ****   *                                  the operation will be done by byte (8-bit) 
 679:Drivers/STM32F7xx_HAL_Driver/Src/stm32f7xx_hal_flash_ex.c ****   *            @arg FLASH_VOLTAGE_RANGE_2: when the device voltage range is 2.1V to 2.7V,
 680:Drivers/STM32F7xx_HAL_Driver/Src/stm32f7xx_hal_flash_ex.c ****   *                                  the operation will be done by half word (16-bit)
 681:Drivers/STM32F7xx_HAL_Driver/Src/stm32f7xx_hal_flash_ex.c ****   *            @arg FLASH_VOLTAGE_RANGE_3: when the device voltage range is 2.7V to 3.6V,
 682:Drivers/STM32F7xx_HAL_Driver/Src/stm32f7xx_hal_flash_ex.c ****   *                                  the operation will be done by word (32-bit)
 683:Drivers/STM32F7xx_HAL_Driver/Src/stm32f7xx_hal_flash_ex.c ****   *            @arg FLASH_VOLTAGE_RANGE_4: when the device voltage range is 2.7V to 3.6V + External
 684:Drivers/STM32F7xx_HAL_Driver/Src/stm32f7xx_hal_flash_ex.c ****   *                                  the operation will be done by double word (64-bit)
 685:Drivers/STM32F7xx_HAL_Driver/Src/stm32f7xx_hal_flash_ex.c ****   * 
 686:Drivers/STM32F7xx_HAL_Driver/Src/stm32f7xx_hal_flash_ex.c ****   * @retval None
 687:Drivers/STM32F7xx_HAL_Driver/Src/stm32f7xx_hal_flash_ex.c ****   */
 688:Drivers/STM32F7xx_HAL_Driver/Src/stm32f7xx_hal_flash_ex.c **** void FLASH_Erase_Sector(uint32_t Sector, uint8_t VoltageRange)
 689:Drivers/STM32F7xx_HAL_Driver/Src/stm32f7xx_hal_flash_ex.c **** {
 690:Drivers/STM32F7xx_HAL_Driver/Src/stm32f7xx_hal_flash_ex.c ****   uint32_t tmp_psize = 0;
 691:Drivers/STM32F7xx_HAL_Driver/Src/stm32f7xx_hal_flash_ex.c **** 
 692:Drivers/STM32F7xx_HAL_Driver/Src/stm32f7xx_hal_flash_ex.c ****   /* Check the parameters */
 693:Drivers/STM32F7xx_HAL_Driver/Src/stm32f7xx_hal_flash_ex.c ****   assert_param(IS_FLASH_SECTOR(Sector));
 694:Drivers/STM32F7xx_HAL_Driver/Src/stm32f7xx_hal_flash_ex.c ****   assert_param(IS_VOLTAGERANGE(VoltageRange));
 695:Drivers/STM32F7xx_HAL_Driver/Src/stm32f7xx_hal_flash_ex.c ****   
 696:Drivers/STM32F7xx_HAL_Driver/Src/stm32f7xx_hal_flash_ex.c ****   if(VoltageRange == FLASH_VOLTAGE_RANGE_1)
 697:Drivers/STM32F7xx_HAL_Driver/Src/stm32f7xx_hal_flash_ex.c ****   {
 698:Drivers/STM32F7xx_HAL_Driver/Src/stm32f7xx_hal_flash_ex.c ****      tmp_psize = FLASH_PSIZE_BYTE;
 699:Drivers/STM32F7xx_HAL_Driver/Src/stm32f7xx_hal_flash_ex.c ****   }
 700:Drivers/STM32F7xx_HAL_Driver/Src/stm32f7xx_hal_flash_ex.c ****   else if(VoltageRange == FLASH_VOLTAGE_RANGE_2)
 701:Drivers/STM32F7xx_HAL_Driver/Src/stm32f7xx_hal_flash_ex.c ****   {
 702:Drivers/STM32F7xx_HAL_Driver/Src/stm32f7xx_hal_flash_ex.c ****     tmp_psize = FLASH_PSIZE_HALF_WORD;
 703:Drivers/STM32F7xx_HAL_Driver/Src/stm32f7xx_hal_flash_ex.c ****   }
 704:Drivers/STM32F7xx_HAL_Driver/Src/stm32f7xx_hal_flash_ex.c ****   else if(VoltageRange == FLASH_VOLTAGE_RANGE_3)
 705:Drivers/STM32F7xx_HAL_Driver/Src/stm32f7xx_hal_flash_ex.c ****   {
 706:Drivers/STM32F7xx_HAL_Driver/Src/stm32f7xx_hal_flash_ex.c ****     tmp_psize = FLASH_PSIZE_WORD;
 707:Drivers/STM32F7xx_HAL_Driver/Src/stm32f7xx_hal_flash_ex.c ****   }
 708:Drivers/STM32F7xx_HAL_Driver/Src/stm32f7xx_hal_flash_ex.c ****   else
 709:Drivers/STM32F7xx_HAL_Driver/Src/stm32f7xx_hal_flash_ex.c ****   {
 710:Drivers/STM32F7xx_HAL_Driver/Src/stm32f7xx_hal_flash_ex.c ****     tmp_psize = FLASH_PSIZE_DOUBLE_WORD;
 711:Drivers/STM32F7xx_HAL_Driver/Src/stm32f7xx_hal_flash_ex.c ****   }
 712:Drivers/STM32F7xx_HAL_Driver/Src/stm32f7xx_hal_flash_ex.c **** 
 713:Drivers/STM32F7xx_HAL_Driver/Src/stm32f7xx_hal_flash_ex.c ****   /* If the previous operation is completed, proceed to erase the sector */
 714:Drivers/STM32F7xx_HAL_Driver/Src/stm32f7xx_hal_flash_ex.c ****   FLASH->CR &= CR_PSIZE_MASK;
 715:Drivers/STM32F7xx_HAL_Driver/Src/stm32f7xx_hal_flash_ex.c ****   FLASH->CR |= tmp_psize;
 716:Drivers/STM32F7xx_HAL_Driver/Src/stm32f7xx_hal_flash_ex.c ****   FLASH->CR &= SECTOR_MASK;
 717:Drivers/STM32F7xx_HAL_Driver/Src/stm32f7xx_hal_flash_ex.c ****   FLASH->CR |= FLASH_CR_SER | (Sector << FLASH_CR_SNB_Pos);
 718:Drivers/STM32F7xx_HAL_Driver/Src/stm32f7xx_hal_flash_ex.c ****   FLASH->CR |= FLASH_CR_STRT;
 719:Drivers/STM32F7xx_HAL_Driver/Src/stm32f7xx_hal_flash_ex.c ****   
 720:Drivers/STM32F7xx_HAL_Driver/Src/stm32f7xx_hal_flash_ex.c ****   /* Data synchronous Barrier (DSB) Just after the write operation
 721:Drivers/STM32F7xx_HAL_Driver/Src/stm32f7xx_hal_flash_ex.c ****      This will force the CPU to respect the sequence of instruction (no optimization).*/
 722:Drivers/STM32F7xx_HAL_Driver/Src/stm32f7xx_hal_flash_ex.c ****   __DSB();
 723:Drivers/STM32F7xx_HAL_Driver/Src/stm32f7xx_hal_flash_ex.c **** }
 724:Drivers/STM32F7xx_HAL_Driver/Src/stm32f7xx_hal_flash_ex.c **** 
 725:Drivers/STM32F7xx_HAL_Driver/Src/stm32f7xx_hal_flash_ex.c **** /**
 726:Drivers/STM32F7xx_HAL_Driver/Src/stm32f7xx_hal_flash_ex.c ****   * @brief  Return the FLASH Write Protection Option Bytes value.
 727:Drivers/STM32F7xx_HAL_Driver/Src/stm32f7xx_hal_flash_ex.c ****   * @retval uint32_t FLASH Write Protection Option Bytes value
ARM GAS  /tmp/ccmMriQ8.s 			page 24


 728:Drivers/STM32F7xx_HAL_Driver/Src/stm32f7xx_hal_flash_ex.c ****   */
 729:Drivers/STM32F7xx_HAL_Driver/Src/stm32f7xx_hal_flash_ex.c **** static uint32_t FLASH_OB_GetWRP(void)
 730:Drivers/STM32F7xx_HAL_Driver/Src/stm32f7xx_hal_flash_ex.c **** {
 731:Drivers/STM32F7xx_HAL_Driver/Src/stm32f7xx_hal_flash_ex.c ****   /* Return the FLASH write protection Register value */
 732:Drivers/STM32F7xx_HAL_Driver/Src/stm32f7xx_hal_flash_ex.c ****   return ((uint32_t)(FLASH->OPTCR & 0x00FF0000));
 733:Drivers/STM32F7xx_HAL_Driver/Src/stm32f7xx_hal_flash_ex.c **** }
 734:Drivers/STM32F7xx_HAL_Driver/Src/stm32f7xx_hal_flash_ex.c **** 
 735:Drivers/STM32F7xx_HAL_Driver/Src/stm32f7xx_hal_flash_ex.c **** /**
 736:Drivers/STM32F7xx_HAL_Driver/Src/stm32f7xx_hal_flash_ex.c ****   * @brief  Program the FLASH User Option Byte: IWDG_SW / RST_STOP / RST_STDBY.    
 737:Drivers/STM32F7xx_HAL_Driver/Src/stm32f7xx_hal_flash_ex.c ****   * @param  Wwdg: Selects the IWDG mode
 738:Drivers/STM32F7xx_HAL_Driver/Src/stm32f7xx_hal_flash_ex.c ****   *          This parameter can be one of the following values:
 739:Drivers/STM32F7xx_HAL_Driver/Src/stm32f7xx_hal_flash_ex.c ****   *            @arg OB_WWDG_SW: Software WWDG selected
 740:Drivers/STM32F7xx_HAL_Driver/Src/stm32f7xx_hal_flash_ex.c ****   *            @arg OB_WWDG_HW: Hardware WWDG selected
 741:Drivers/STM32F7xx_HAL_Driver/Src/stm32f7xx_hal_flash_ex.c ****   * @param  Iwdg: Selects the WWDG mode
 742:Drivers/STM32F7xx_HAL_Driver/Src/stm32f7xx_hal_flash_ex.c ****   *          This parameter can be one of the following values:
 743:Drivers/STM32F7xx_HAL_Driver/Src/stm32f7xx_hal_flash_ex.c ****   *            @arg OB_IWDG_SW: Software IWDG selected
 744:Drivers/STM32F7xx_HAL_Driver/Src/stm32f7xx_hal_flash_ex.c ****   *            @arg OB_IWDG_HW: Hardware IWDG selected
 745:Drivers/STM32F7xx_HAL_Driver/Src/stm32f7xx_hal_flash_ex.c ****   * @param  Stop: Reset event when entering STOP mode.
 746:Drivers/STM32F7xx_HAL_Driver/Src/stm32f7xx_hal_flash_ex.c ****   *          This parameter  can be one of the following values:
 747:Drivers/STM32F7xx_HAL_Driver/Src/stm32f7xx_hal_flash_ex.c ****   *            @arg OB_STOP_NO_RST: No reset generated when entering in STOP
 748:Drivers/STM32F7xx_HAL_Driver/Src/stm32f7xx_hal_flash_ex.c ****   *            @arg OB_STOP_RST: Reset generated when entering in STOP
 749:Drivers/STM32F7xx_HAL_Driver/Src/stm32f7xx_hal_flash_ex.c ****   * @param  Stdby: Reset event when entering Standby mode.
 750:Drivers/STM32F7xx_HAL_Driver/Src/stm32f7xx_hal_flash_ex.c ****   *          This parameter  can be one of the following values:
 751:Drivers/STM32F7xx_HAL_Driver/Src/stm32f7xx_hal_flash_ex.c ****   *            @arg OB_STDBY_NO_RST: No reset generated when entering in STANDBY
 752:Drivers/STM32F7xx_HAL_Driver/Src/stm32f7xx_hal_flash_ex.c ****   *            @arg OB_STDBY_RST: Reset generated when entering in STANDBY
 753:Drivers/STM32F7xx_HAL_Driver/Src/stm32f7xx_hal_flash_ex.c ****   * @param  Iwdgstop: Independent watchdog counter freeze in Stop mode.
 754:Drivers/STM32F7xx_HAL_Driver/Src/stm32f7xx_hal_flash_ex.c ****   *          This parameter  can be one of the following values:
 755:Drivers/STM32F7xx_HAL_Driver/Src/stm32f7xx_hal_flash_ex.c ****   *            @arg OB_IWDG_STOP_FREEZE: Freeze IWDG counter in STOP
 756:Drivers/STM32F7xx_HAL_Driver/Src/stm32f7xx_hal_flash_ex.c ****   *            @arg OB_IWDG_STOP_ACTIVE: IWDG counter active in STOP
 757:Drivers/STM32F7xx_HAL_Driver/Src/stm32f7xx_hal_flash_ex.c ****   * @param  Iwdgstdby: Independent watchdog counter freeze in standby mode.
 758:Drivers/STM32F7xx_HAL_Driver/Src/stm32f7xx_hal_flash_ex.c ****   *          This parameter  can be one of the following values:
 759:Drivers/STM32F7xx_HAL_Driver/Src/stm32f7xx_hal_flash_ex.c ****   *            @arg OB_IWDG_STDBY_FREEZE: Freeze IWDG counter in STANDBY
 760:Drivers/STM32F7xx_HAL_Driver/Src/stm32f7xx_hal_flash_ex.c ****   *            @arg OB_IWDG_STDBY_ACTIVE: IWDG counter active in STANDBY           
 761:Drivers/STM32F7xx_HAL_Driver/Src/stm32f7xx_hal_flash_ex.c ****   * @retval HAL Status
 762:Drivers/STM32F7xx_HAL_Driver/Src/stm32f7xx_hal_flash_ex.c ****   */
 763:Drivers/STM32F7xx_HAL_Driver/Src/stm32f7xx_hal_flash_ex.c **** static HAL_StatusTypeDef FLASH_OB_UserConfig(uint32_t Wwdg, uint32_t Iwdg, uint32_t Stop, uint32_t 
 764:Drivers/STM32F7xx_HAL_Driver/Src/stm32f7xx_hal_flash_ex.c **** {
 765:Drivers/STM32F7xx_HAL_Driver/Src/stm32f7xx_hal_flash_ex.c ****   uint32_t useroptionmask = 0x00;
 766:Drivers/STM32F7xx_HAL_Driver/Src/stm32f7xx_hal_flash_ex.c ****   uint32_t useroptionvalue = 0x00;
 767:Drivers/STM32F7xx_HAL_Driver/Src/stm32f7xx_hal_flash_ex.c **** 
 768:Drivers/STM32F7xx_HAL_Driver/Src/stm32f7xx_hal_flash_ex.c ****   HAL_StatusTypeDef status = HAL_OK;
 769:Drivers/STM32F7xx_HAL_Driver/Src/stm32f7xx_hal_flash_ex.c **** 
 770:Drivers/STM32F7xx_HAL_Driver/Src/stm32f7xx_hal_flash_ex.c ****   /* Check the parameters */
 771:Drivers/STM32F7xx_HAL_Driver/Src/stm32f7xx_hal_flash_ex.c ****   assert_param(IS_OB_WWDG_SOURCE(Wwdg));
 772:Drivers/STM32F7xx_HAL_Driver/Src/stm32f7xx_hal_flash_ex.c ****   assert_param(IS_OB_IWDG_SOURCE(Iwdg));
 773:Drivers/STM32F7xx_HAL_Driver/Src/stm32f7xx_hal_flash_ex.c ****   assert_param(IS_OB_STOP_SOURCE(Stop));
 774:Drivers/STM32F7xx_HAL_Driver/Src/stm32f7xx_hal_flash_ex.c ****   assert_param(IS_OB_STDBY_SOURCE(Stdby));
 775:Drivers/STM32F7xx_HAL_Driver/Src/stm32f7xx_hal_flash_ex.c ****   assert_param(IS_OB_IWDG_STOP_FREEZE(Iwdgstop));
 776:Drivers/STM32F7xx_HAL_Driver/Src/stm32f7xx_hal_flash_ex.c ****   assert_param(IS_OB_IWDG_STDBY_FREEZE(Iwdgstdby));
 777:Drivers/STM32F7xx_HAL_Driver/Src/stm32f7xx_hal_flash_ex.c **** 
 778:Drivers/STM32F7xx_HAL_Driver/Src/stm32f7xx_hal_flash_ex.c ****   /* Wait for last operation to be completed */
 779:Drivers/STM32F7xx_HAL_Driver/Src/stm32f7xx_hal_flash_ex.c ****   status = FLASH_WaitForLastOperation((uint32_t)FLASH_TIMEOUT_VALUE);
 780:Drivers/STM32F7xx_HAL_Driver/Src/stm32f7xx_hal_flash_ex.c ****   
 781:Drivers/STM32F7xx_HAL_Driver/Src/stm32f7xx_hal_flash_ex.c ****   if(status == HAL_OK)
 782:Drivers/STM32F7xx_HAL_Driver/Src/stm32f7xx_hal_flash_ex.c ****   {
 783:Drivers/STM32F7xx_HAL_Driver/Src/stm32f7xx_hal_flash_ex.c ****     useroptionmask = (FLASH_OPTCR_WWDG_SW | FLASH_OPTCR_IWDG_SW | FLASH_OPTCR_nRST_STOP | \
 784:Drivers/STM32F7xx_HAL_Driver/Src/stm32f7xx_hal_flash_ex.c ****                       FLASH_OPTCR_nRST_STDBY | FLASH_OPTCR_IWDG_STOP | FLASH_OPTCR_IWDG_STDBY);
ARM GAS  /tmp/ccmMriQ8.s 			page 25


 785:Drivers/STM32F7xx_HAL_Driver/Src/stm32f7xx_hal_flash_ex.c ****                       
 786:Drivers/STM32F7xx_HAL_Driver/Src/stm32f7xx_hal_flash_ex.c ****     useroptionvalue = (Iwdg | Wwdg | Stop | Stdby | Iwdgstop | Iwdgstdby);
 787:Drivers/STM32F7xx_HAL_Driver/Src/stm32f7xx_hal_flash_ex.c ****         
 788:Drivers/STM32F7xx_HAL_Driver/Src/stm32f7xx_hal_flash_ex.c ****     /* Update User Option Byte */               
 789:Drivers/STM32F7xx_HAL_Driver/Src/stm32f7xx_hal_flash_ex.c ****     MODIFY_REG(FLASH->OPTCR, useroptionmask, useroptionvalue);
 790:Drivers/STM32F7xx_HAL_Driver/Src/stm32f7xx_hal_flash_ex.c ****   }
 791:Drivers/STM32F7xx_HAL_Driver/Src/stm32f7xx_hal_flash_ex.c ****   
 792:Drivers/STM32F7xx_HAL_Driver/Src/stm32f7xx_hal_flash_ex.c ****   return status; 
 793:Drivers/STM32F7xx_HAL_Driver/Src/stm32f7xx_hal_flash_ex.c **** 
 794:Drivers/STM32F7xx_HAL_Driver/Src/stm32f7xx_hal_flash_ex.c **** }
 795:Drivers/STM32F7xx_HAL_Driver/Src/stm32f7xx_hal_flash_ex.c **** 
 796:Drivers/STM32F7xx_HAL_Driver/Src/stm32f7xx_hal_flash_ex.c **** /**
 797:Drivers/STM32F7xx_HAL_Driver/Src/stm32f7xx_hal_flash_ex.c ****   * @brief  Return the FLASH User Option Byte value.
 798:Drivers/STM32F7xx_HAL_Driver/Src/stm32f7xx_hal_flash_ex.c ****   * @retval uint32_t FLASH User Option Bytes values: WWDG_SW(Bit4), IWDG_SW(Bit5), nRST_STOP(Bit6),
 799:Drivers/STM32F7xx_HAL_Driver/Src/stm32f7xx_hal_flash_ex.c ****   *         nRST_STDBY(Bit7), IWDG_STDBY(Bit30) and IWDG_STOP(Bit31).
 800:Drivers/STM32F7xx_HAL_Driver/Src/stm32f7xx_hal_flash_ex.c ****   */
 801:Drivers/STM32F7xx_HAL_Driver/Src/stm32f7xx_hal_flash_ex.c **** static uint32_t FLASH_OB_GetUser(void)
 802:Drivers/STM32F7xx_HAL_Driver/Src/stm32f7xx_hal_flash_ex.c **** {
 803:Drivers/STM32F7xx_HAL_Driver/Src/stm32f7xx_hal_flash_ex.c ****   /* Return the User Option Byte */
 804:Drivers/STM32F7xx_HAL_Driver/Src/stm32f7xx_hal_flash_ex.c ****   return ((uint32_t)(FLASH->OPTCR & 0xC00000F0U));
 805:Drivers/STM32F7xx_HAL_Driver/Src/stm32f7xx_hal_flash_ex.c **** }
 806:Drivers/STM32F7xx_HAL_Driver/Src/stm32f7xx_hal_flash_ex.c **** #endif /* FLASH_OPTCR_nDBANK */
 807:Drivers/STM32F7xx_HAL_Driver/Src/stm32f7xx_hal_flash_ex.c **** 
 808:Drivers/STM32F7xx_HAL_Driver/Src/stm32f7xx_hal_flash_ex.c **** /**
 809:Drivers/STM32F7xx_HAL_Driver/Src/stm32f7xx_hal_flash_ex.c ****   * @brief  Enable the write protection of the desired bank1 or bank2 sectors
 810:Drivers/STM32F7xx_HAL_Driver/Src/stm32f7xx_hal_flash_ex.c ****   *
 811:Drivers/STM32F7xx_HAL_Driver/Src/stm32f7xx_hal_flash_ex.c ****   * @note   When the memory read protection level is selected (RDP level = 1), 
 812:Drivers/STM32F7xx_HAL_Driver/Src/stm32f7xx_hal_flash_ex.c ****   *         it is not possible to program or erase the flash sector i if CortexM7  
 813:Drivers/STM32F7xx_HAL_Driver/Src/stm32f7xx_hal_flash_ex.c ****   *         debug features are connected or boot code is executed in RAM, even if nWRPi = 1    
 814:Drivers/STM32F7xx_HAL_Driver/Src/stm32f7xx_hal_flash_ex.c ****   * 
 815:Drivers/STM32F7xx_HAL_Driver/Src/stm32f7xx_hal_flash_ex.c ****   * @param  WRPSector: specifies the sector(s) to be write protected.
 816:Drivers/STM32F7xx_HAL_Driver/Src/stm32f7xx_hal_flash_ex.c ****   *          This parameter can be one of the following values:
 817:Drivers/STM32F7xx_HAL_Driver/Src/stm32f7xx_hal_flash_ex.c ****   *            @arg WRPSector: A value between OB_WRP_SECTOR_0 and OB_WRP_SECTOR_7 (for STM32F74xxx
 818:Drivers/STM32F7xx_HAL_Driver/Src/stm32f7xx_hal_flash_ex.c ****   *              or a value between OB_WRP_SECTOR_0 and OB_WRP_SECTOR_11 (in Single Bank mode for S
 819:Drivers/STM32F7xx_HAL_Driver/Src/stm32f7xx_hal_flash_ex.c ****   *              or a value between OB_WRP_DB_SECTOR_0 and OB_WRP_DB_SECTOR_23 (in Dual Bank mode f
 820:Drivers/STM32F7xx_HAL_Driver/Src/stm32f7xx_hal_flash_ex.c ****   *            @arg OB_WRP_SECTOR_All
 821:Drivers/STM32F7xx_HAL_Driver/Src/stm32f7xx_hal_flash_ex.c ****   *
 822:Drivers/STM32F7xx_HAL_Driver/Src/stm32f7xx_hal_flash_ex.c ****   * @retval HAL FLASH State   
 823:Drivers/STM32F7xx_HAL_Driver/Src/stm32f7xx_hal_flash_ex.c ****   */
 824:Drivers/STM32F7xx_HAL_Driver/Src/stm32f7xx_hal_flash_ex.c **** static HAL_StatusTypeDef FLASH_OB_EnableWRP(uint32_t WRPSector)
 825:Drivers/STM32F7xx_HAL_Driver/Src/stm32f7xx_hal_flash_ex.c **** {
 826:Drivers/STM32F7xx_HAL_Driver/Src/stm32f7xx_hal_flash_ex.c ****   HAL_StatusTypeDef status = HAL_OK;
 827:Drivers/STM32F7xx_HAL_Driver/Src/stm32f7xx_hal_flash_ex.c ****   
 828:Drivers/STM32F7xx_HAL_Driver/Src/stm32f7xx_hal_flash_ex.c ****   /* Check the parameters */
 829:Drivers/STM32F7xx_HAL_Driver/Src/stm32f7xx_hal_flash_ex.c ****   assert_param(IS_OB_WRP_SECTOR(WRPSector));
 830:Drivers/STM32F7xx_HAL_Driver/Src/stm32f7xx_hal_flash_ex.c ****     
 831:Drivers/STM32F7xx_HAL_Driver/Src/stm32f7xx_hal_flash_ex.c ****   /* Wait for last operation to be completed */
 832:Drivers/STM32F7xx_HAL_Driver/Src/stm32f7xx_hal_flash_ex.c ****   status = FLASH_WaitForLastOperation((uint32_t)FLASH_TIMEOUT_VALUE);
 833:Drivers/STM32F7xx_HAL_Driver/Src/stm32f7xx_hal_flash_ex.c **** 
 834:Drivers/STM32F7xx_HAL_Driver/Src/stm32f7xx_hal_flash_ex.c ****   if(status == HAL_OK)
 835:Drivers/STM32F7xx_HAL_Driver/Src/stm32f7xx_hal_flash_ex.c ****   {
 836:Drivers/STM32F7xx_HAL_Driver/Src/stm32f7xx_hal_flash_ex.c ****     /*Write protection enabled on sectors */
 837:Drivers/STM32F7xx_HAL_Driver/Src/stm32f7xx_hal_flash_ex.c ****     FLASH->OPTCR &= (~WRPSector);  
 838:Drivers/STM32F7xx_HAL_Driver/Src/stm32f7xx_hal_flash_ex.c ****   }
 839:Drivers/STM32F7xx_HAL_Driver/Src/stm32f7xx_hal_flash_ex.c ****   
 840:Drivers/STM32F7xx_HAL_Driver/Src/stm32f7xx_hal_flash_ex.c ****   return status;
 841:Drivers/STM32F7xx_HAL_Driver/Src/stm32f7xx_hal_flash_ex.c **** }
ARM GAS  /tmp/ccmMriQ8.s 			page 26


 842:Drivers/STM32F7xx_HAL_Driver/Src/stm32f7xx_hal_flash_ex.c **** 
 843:Drivers/STM32F7xx_HAL_Driver/Src/stm32f7xx_hal_flash_ex.c **** /**
 844:Drivers/STM32F7xx_HAL_Driver/Src/stm32f7xx_hal_flash_ex.c ****   * @brief  Disable the write protection of the desired bank1 or bank 2 sectors
 845:Drivers/STM32F7xx_HAL_Driver/Src/stm32f7xx_hal_flash_ex.c ****   *
 846:Drivers/STM32F7xx_HAL_Driver/Src/stm32f7xx_hal_flash_ex.c ****   * @note   When the memory read protection level is selected (RDP level = 1), 
 847:Drivers/STM32F7xx_HAL_Driver/Src/stm32f7xx_hal_flash_ex.c ****   *         it is not possible to program or erase the flash sector i if CortexM4  
 848:Drivers/STM32F7xx_HAL_Driver/Src/stm32f7xx_hal_flash_ex.c ****   *         debug features are connected or boot code is executed in RAM, even if nWRPi = 1  
 849:Drivers/STM32F7xx_HAL_Driver/Src/stm32f7xx_hal_flash_ex.c ****   * 
 850:Drivers/STM32F7xx_HAL_Driver/Src/stm32f7xx_hal_flash_ex.c ****   * @param  WRPSector: specifies the sector(s) to be write protected.
 851:Drivers/STM32F7xx_HAL_Driver/Src/stm32f7xx_hal_flash_ex.c ****   *          This parameter can be one of the following values:
 852:Drivers/STM32F7xx_HAL_Driver/Src/stm32f7xx_hal_flash_ex.c ****   *            @arg WRPSector: A value between OB_WRP_SECTOR_0 and OB_WRP_SECTOR_7 (for STM32F74xxx
 853:Drivers/STM32F7xx_HAL_Driver/Src/stm32f7xx_hal_flash_ex.c ****   *              or a value between OB_WRP_SECTOR_0 and OB_WRP_SECTOR_11 (in Single Bank mode for S
 854:Drivers/STM32F7xx_HAL_Driver/Src/stm32f7xx_hal_flash_ex.c ****   *              or a value between OB_WRP_DB_SECTOR_0 and OB_WRP_DB_SECTOR_23 (in Dual Bank mode f
 855:Drivers/STM32F7xx_HAL_Driver/Src/stm32f7xx_hal_flash_ex.c ****   *            @arg OB_WRP_Sector_All
 856:Drivers/STM32F7xx_HAL_Driver/Src/stm32f7xx_hal_flash_ex.c ****   *
 857:Drivers/STM32F7xx_HAL_Driver/Src/stm32f7xx_hal_flash_ex.c ****   *
 858:Drivers/STM32F7xx_HAL_Driver/Src/stm32f7xx_hal_flash_ex.c ****   * @retval HAL Status   
 859:Drivers/STM32F7xx_HAL_Driver/Src/stm32f7xx_hal_flash_ex.c ****   */
 860:Drivers/STM32F7xx_HAL_Driver/Src/stm32f7xx_hal_flash_ex.c **** static HAL_StatusTypeDef FLASH_OB_DisableWRP(uint32_t WRPSector)
 861:Drivers/STM32F7xx_HAL_Driver/Src/stm32f7xx_hal_flash_ex.c **** {
 862:Drivers/STM32F7xx_HAL_Driver/Src/stm32f7xx_hal_flash_ex.c ****   HAL_StatusTypeDef status = HAL_OK;
 863:Drivers/STM32F7xx_HAL_Driver/Src/stm32f7xx_hal_flash_ex.c ****   
 864:Drivers/STM32F7xx_HAL_Driver/Src/stm32f7xx_hal_flash_ex.c ****   /* Check the parameters */
 865:Drivers/STM32F7xx_HAL_Driver/Src/stm32f7xx_hal_flash_ex.c ****   assert_param(IS_OB_WRP_SECTOR(WRPSector));
 866:Drivers/STM32F7xx_HAL_Driver/Src/stm32f7xx_hal_flash_ex.c ****     
 867:Drivers/STM32F7xx_HAL_Driver/Src/stm32f7xx_hal_flash_ex.c ****   /* Wait for last operation to be completed */
 868:Drivers/STM32F7xx_HAL_Driver/Src/stm32f7xx_hal_flash_ex.c ****   status = FLASH_WaitForLastOperation((uint32_t)FLASH_TIMEOUT_VALUE);
 869:Drivers/STM32F7xx_HAL_Driver/Src/stm32f7xx_hal_flash_ex.c **** 
 870:Drivers/STM32F7xx_HAL_Driver/Src/stm32f7xx_hal_flash_ex.c ****   if(status == HAL_OK)
 871:Drivers/STM32F7xx_HAL_Driver/Src/stm32f7xx_hal_flash_ex.c ****   {
 872:Drivers/STM32F7xx_HAL_Driver/Src/stm32f7xx_hal_flash_ex.c ****     /* Write protection disabled on sectors */
 873:Drivers/STM32F7xx_HAL_Driver/Src/stm32f7xx_hal_flash_ex.c ****     FLASH->OPTCR |= (WRPSector); 
 874:Drivers/STM32F7xx_HAL_Driver/Src/stm32f7xx_hal_flash_ex.c ****   }
 875:Drivers/STM32F7xx_HAL_Driver/Src/stm32f7xx_hal_flash_ex.c **** 
 876:Drivers/STM32F7xx_HAL_Driver/Src/stm32f7xx_hal_flash_ex.c ****   return status;
 877:Drivers/STM32F7xx_HAL_Driver/Src/stm32f7xx_hal_flash_ex.c **** }
 878:Drivers/STM32F7xx_HAL_Driver/Src/stm32f7xx_hal_flash_ex.c **** 
 879:Drivers/STM32F7xx_HAL_Driver/Src/stm32f7xx_hal_flash_ex.c **** /**
 880:Drivers/STM32F7xx_HAL_Driver/Src/stm32f7xx_hal_flash_ex.c ****   * @brief  Set the read protection level.
 881:Drivers/STM32F7xx_HAL_Driver/Src/stm32f7xx_hal_flash_ex.c ****   * @param  Level: specifies the read protection level.
 882:Drivers/STM32F7xx_HAL_Driver/Src/stm32f7xx_hal_flash_ex.c ****   *          This parameter can be one of the following values:
 883:Drivers/STM32F7xx_HAL_Driver/Src/stm32f7xx_hal_flash_ex.c ****   *            @arg OB_RDP_LEVEL_0: No protection
 884:Drivers/STM32F7xx_HAL_Driver/Src/stm32f7xx_hal_flash_ex.c ****   *            @arg OB_RDP_LEVEL_1: Read protection of the memory
 885:Drivers/STM32F7xx_HAL_Driver/Src/stm32f7xx_hal_flash_ex.c ****   *            @arg OB_RDP_LEVEL_2: Full chip protection
 886:Drivers/STM32F7xx_HAL_Driver/Src/stm32f7xx_hal_flash_ex.c ****   *   
 887:Drivers/STM32F7xx_HAL_Driver/Src/stm32f7xx_hal_flash_ex.c ****   * @note WARNING: When enabling OB_RDP level 2 it's no more possible to go back to level 1 or 0
 888:Drivers/STM32F7xx_HAL_Driver/Src/stm32f7xx_hal_flash_ex.c ****   *    
 889:Drivers/STM32F7xx_HAL_Driver/Src/stm32f7xx_hal_flash_ex.c ****   * @retval HAL Status
 890:Drivers/STM32F7xx_HAL_Driver/Src/stm32f7xx_hal_flash_ex.c ****   */
 891:Drivers/STM32F7xx_HAL_Driver/Src/stm32f7xx_hal_flash_ex.c **** static HAL_StatusTypeDef FLASH_OB_RDP_LevelConfig(uint8_t Level)
 892:Drivers/STM32F7xx_HAL_Driver/Src/stm32f7xx_hal_flash_ex.c **** {
 893:Drivers/STM32F7xx_HAL_Driver/Src/stm32f7xx_hal_flash_ex.c ****   HAL_StatusTypeDef status = HAL_OK;
 894:Drivers/STM32F7xx_HAL_Driver/Src/stm32f7xx_hal_flash_ex.c ****   
 895:Drivers/STM32F7xx_HAL_Driver/Src/stm32f7xx_hal_flash_ex.c ****   /* Check the parameters */
 896:Drivers/STM32F7xx_HAL_Driver/Src/stm32f7xx_hal_flash_ex.c ****   assert_param(IS_OB_RDP_LEVEL(Level));
 897:Drivers/STM32F7xx_HAL_Driver/Src/stm32f7xx_hal_flash_ex.c ****     
 898:Drivers/STM32F7xx_HAL_Driver/Src/stm32f7xx_hal_flash_ex.c ****   /* Wait for last operation to be completed */
ARM GAS  /tmp/ccmMriQ8.s 			page 27


 899:Drivers/STM32F7xx_HAL_Driver/Src/stm32f7xx_hal_flash_ex.c ****   status = FLASH_WaitForLastOperation((uint32_t)FLASH_TIMEOUT_VALUE);
 900:Drivers/STM32F7xx_HAL_Driver/Src/stm32f7xx_hal_flash_ex.c **** 
 901:Drivers/STM32F7xx_HAL_Driver/Src/stm32f7xx_hal_flash_ex.c ****   if(status == HAL_OK)
 902:Drivers/STM32F7xx_HAL_Driver/Src/stm32f7xx_hal_flash_ex.c ****   { 
 903:Drivers/STM32F7xx_HAL_Driver/Src/stm32f7xx_hal_flash_ex.c ****     *(__IO uint8_t*)OPTCR_BYTE1_ADDRESS = Level;
 904:Drivers/STM32F7xx_HAL_Driver/Src/stm32f7xx_hal_flash_ex.c ****   }
 905:Drivers/STM32F7xx_HAL_Driver/Src/stm32f7xx_hal_flash_ex.c ****   
 906:Drivers/STM32F7xx_HAL_Driver/Src/stm32f7xx_hal_flash_ex.c ****   return status;
 907:Drivers/STM32F7xx_HAL_Driver/Src/stm32f7xx_hal_flash_ex.c **** }
 908:Drivers/STM32F7xx_HAL_Driver/Src/stm32f7xx_hal_flash_ex.c **** 
 909:Drivers/STM32F7xx_HAL_Driver/Src/stm32f7xx_hal_flash_ex.c **** /**
 910:Drivers/STM32F7xx_HAL_Driver/Src/stm32f7xx_hal_flash_ex.c ****   * @brief  Set the BOR Level. 
 911:Drivers/STM32F7xx_HAL_Driver/Src/stm32f7xx_hal_flash_ex.c ****   * @param  Level: specifies the Option Bytes BOR Reset Level.
 912:Drivers/STM32F7xx_HAL_Driver/Src/stm32f7xx_hal_flash_ex.c ****   *          This parameter can be one of the following values:
 913:Drivers/STM32F7xx_HAL_Driver/Src/stm32f7xx_hal_flash_ex.c ****   *            @arg OB_BOR_LEVEL3: Supply voltage ranges from 2.7 to 3.6 V
 914:Drivers/STM32F7xx_HAL_Driver/Src/stm32f7xx_hal_flash_ex.c ****   *            @arg OB_BOR_LEVEL2: Supply voltage ranges from 2.4 to 2.7 V
 915:Drivers/STM32F7xx_HAL_Driver/Src/stm32f7xx_hal_flash_ex.c ****   *            @arg OB_BOR_LEVEL1: Supply voltage ranges from 2.1 to 2.4 V
 916:Drivers/STM32F7xx_HAL_Driver/Src/stm32f7xx_hal_flash_ex.c ****   *            @arg OB_BOR_OFF: Supply voltage ranges from 1.62 to 2.1 V
 917:Drivers/STM32F7xx_HAL_Driver/Src/stm32f7xx_hal_flash_ex.c ****   * @retval HAL Status
 918:Drivers/STM32F7xx_HAL_Driver/Src/stm32f7xx_hal_flash_ex.c ****   */
 919:Drivers/STM32F7xx_HAL_Driver/Src/stm32f7xx_hal_flash_ex.c **** static HAL_StatusTypeDef FLASH_OB_BOR_LevelConfig(uint8_t Level)
 920:Drivers/STM32F7xx_HAL_Driver/Src/stm32f7xx_hal_flash_ex.c **** {
 161              		.loc 1 920 0
 162              		.cfi_startproc
 163              		@ args = 0, pretend = 0, frame = 0
 164              		@ frame_needed = 0, uses_anonymous_args = 0
 165              		@ link register save eliminated.
 166              	.LVL6:
 921:Drivers/STM32F7xx_HAL_Driver/Src/stm32f7xx_hal_flash_ex.c ****   /* Check the parameters */
 922:Drivers/STM32F7xx_HAL_Driver/Src/stm32f7xx_hal_flash_ex.c ****   assert_param(IS_OB_BOR_LEVEL(Level));
 923:Drivers/STM32F7xx_HAL_Driver/Src/stm32f7xx_hal_flash_ex.c **** 
 924:Drivers/STM32F7xx_HAL_Driver/Src/stm32f7xx_hal_flash_ex.c ****   /* Set the BOR Level */
 925:Drivers/STM32F7xx_HAL_Driver/Src/stm32f7xx_hal_flash_ex.c ****   MODIFY_REG(FLASH->OPTCR, FLASH_OPTCR_BOR_LEV, Level);
 167              		.loc 1 925 0
 168 0000 034A     		ldr	r2, .L16
 169 0002 5369     		ldr	r3, [r2, #20]
 170 0004 23F00C03 		bic	r3, r3, #12
 171 0008 1843     		orrs	r0, r0, r3
 172              	.LVL7:
 173 000a 5061     		str	r0, [r2, #20]
 926:Drivers/STM32F7xx_HAL_Driver/Src/stm32f7xx_hal_flash_ex.c ****   
 927:Drivers/STM32F7xx_HAL_Driver/Src/stm32f7xx_hal_flash_ex.c ****   return HAL_OK;
 928:Drivers/STM32F7xx_HAL_Driver/Src/stm32f7xx_hal_flash_ex.c ****   
 929:Drivers/STM32F7xx_HAL_Driver/Src/stm32f7xx_hal_flash_ex.c **** }
 174              		.loc 1 929 0
 175 000c 0020     		movs	r0, #0
 176 000e 7047     		bx	lr
 177              	.L17:
 178              		.align	2
 179              	.L16:
 180 0010 003C0240 		.word	1073888256
 181              		.cfi_endproc
 182              	.LFE148:
 184              		.section	.text.FLASH_OB_GetRDP,"ax",%progbits
 185              		.align	1
 186              		.syntax unified
 187              		.thumb
ARM GAS  /tmp/ccmMriQ8.s 			page 28


 188              		.thumb_func
 189              		.fpu fpv5-d16
 191              	FLASH_OB_GetRDP:
 192              	.LFB150:
 930:Drivers/STM32F7xx_HAL_Driver/Src/stm32f7xx_hal_flash_ex.c **** 
 931:Drivers/STM32F7xx_HAL_Driver/Src/stm32f7xx_hal_flash_ex.c **** /**
 932:Drivers/STM32F7xx_HAL_Driver/Src/stm32f7xx_hal_flash_ex.c ****   * @brief  Configure Boot base address.
 933:Drivers/STM32F7xx_HAL_Driver/Src/stm32f7xx_hal_flash_ex.c ****   * 
 934:Drivers/STM32F7xx_HAL_Driver/Src/stm32f7xx_hal_flash_ex.c ****   * @param   BootOption : specifies Boot base address depending from Boot pin = 0 or pin = 1
 935:Drivers/STM32F7xx_HAL_Driver/Src/stm32f7xx_hal_flash_ex.c ****   *          This parameter can be one of the following values:
 936:Drivers/STM32F7xx_HAL_Driver/Src/stm32f7xx_hal_flash_ex.c ****   *            @arg OPTIONBYTE_BOOTADDR_0 : Boot address based when Boot pin = 0                 
 937:Drivers/STM32F7xx_HAL_Driver/Src/stm32f7xx_hal_flash_ex.c ****   *            @arg OPTIONBYTE_BOOTADDR_1 : Boot address based when Boot pin = 1  
 938:Drivers/STM32F7xx_HAL_Driver/Src/stm32f7xx_hal_flash_ex.c ****   * @param   Address: specifies Boot base address
 939:Drivers/STM32F7xx_HAL_Driver/Src/stm32f7xx_hal_flash_ex.c ****   *          This parameter can be one of the following values:
 940:Drivers/STM32F7xx_HAL_Driver/Src/stm32f7xx_hal_flash_ex.c ****   *            @arg OB_BOOTADDR_ITCM_RAM : Boot from ITCM RAM (0x00000000)                 
 941:Drivers/STM32F7xx_HAL_Driver/Src/stm32f7xx_hal_flash_ex.c ****   *            @arg OB_BOOTADDR_SYSTEM : Boot from System memory bootloader (0x00100000) 
 942:Drivers/STM32F7xx_HAL_Driver/Src/stm32f7xx_hal_flash_ex.c ****   *            @arg OB_BOOTADDR_ITCM_FLASH : Boot from Flash on ITCM interface (0x00200000)  
 943:Drivers/STM32F7xx_HAL_Driver/Src/stm32f7xx_hal_flash_ex.c ****   *            @arg OB_BOOTADDR_AXIM_FLASH : Boot from Flash on AXIM interface (0x08000000)  
 944:Drivers/STM32F7xx_HAL_Driver/Src/stm32f7xx_hal_flash_ex.c ****   *            @arg OB_BOOTADDR_DTCM_RAM : Boot from DTCM RAM (0x20000000)                 
 945:Drivers/STM32F7xx_HAL_Driver/Src/stm32f7xx_hal_flash_ex.c ****   *            @arg OB_BOOTADDR_SRAM1 : Boot from SRAM1 (0x20010000)                    
 946:Drivers/STM32F7xx_HAL_Driver/Src/stm32f7xx_hal_flash_ex.c ****   *            @arg OB_BOOTADDR_SRAM2 : Boot from SRAM2 (0x2004C000)              
 947:Drivers/STM32F7xx_HAL_Driver/Src/stm32f7xx_hal_flash_ex.c ****   *    
 948:Drivers/STM32F7xx_HAL_Driver/Src/stm32f7xx_hal_flash_ex.c ****   * @retval HAL Status
 949:Drivers/STM32F7xx_HAL_Driver/Src/stm32f7xx_hal_flash_ex.c ****   */
 950:Drivers/STM32F7xx_HAL_Driver/Src/stm32f7xx_hal_flash_ex.c **** static HAL_StatusTypeDef FLASH_OB_BootAddressConfig(uint32_t BootOption, uint32_t Address)
 951:Drivers/STM32F7xx_HAL_Driver/Src/stm32f7xx_hal_flash_ex.c **** {
 952:Drivers/STM32F7xx_HAL_Driver/Src/stm32f7xx_hal_flash_ex.c ****   HAL_StatusTypeDef status = HAL_OK;
 953:Drivers/STM32F7xx_HAL_Driver/Src/stm32f7xx_hal_flash_ex.c ****   
 954:Drivers/STM32F7xx_HAL_Driver/Src/stm32f7xx_hal_flash_ex.c ****   /* Check the parameters */
 955:Drivers/STM32F7xx_HAL_Driver/Src/stm32f7xx_hal_flash_ex.c ****   assert_param(IS_OB_BOOT_ADDRESS(Address));
 956:Drivers/STM32F7xx_HAL_Driver/Src/stm32f7xx_hal_flash_ex.c ****     
 957:Drivers/STM32F7xx_HAL_Driver/Src/stm32f7xx_hal_flash_ex.c ****   /* Wait for last operation to be completed */
 958:Drivers/STM32F7xx_HAL_Driver/Src/stm32f7xx_hal_flash_ex.c ****   status = FLASH_WaitForLastOperation((uint32_t)FLASH_TIMEOUT_VALUE);
 959:Drivers/STM32F7xx_HAL_Driver/Src/stm32f7xx_hal_flash_ex.c ****   
 960:Drivers/STM32F7xx_HAL_Driver/Src/stm32f7xx_hal_flash_ex.c ****   if(status == HAL_OK)
 961:Drivers/STM32F7xx_HAL_Driver/Src/stm32f7xx_hal_flash_ex.c ****   {
 962:Drivers/STM32F7xx_HAL_Driver/Src/stm32f7xx_hal_flash_ex.c ****     if(BootOption == OPTIONBYTE_BOOTADDR_0)
 963:Drivers/STM32F7xx_HAL_Driver/Src/stm32f7xx_hal_flash_ex.c ****     {			
 964:Drivers/STM32F7xx_HAL_Driver/Src/stm32f7xx_hal_flash_ex.c ****       MODIFY_REG(FLASH->OPTCR1, FLASH_OPTCR1_BOOT_ADD0, Address);
 965:Drivers/STM32F7xx_HAL_Driver/Src/stm32f7xx_hal_flash_ex.c ****     }
 966:Drivers/STM32F7xx_HAL_Driver/Src/stm32f7xx_hal_flash_ex.c ****     else
 967:Drivers/STM32F7xx_HAL_Driver/Src/stm32f7xx_hal_flash_ex.c ****     {
 968:Drivers/STM32F7xx_HAL_Driver/Src/stm32f7xx_hal_flash_ex.c ****       MODIFY_REG(FLASH->OPTCR1, FLASH_OPTCR1_BOOT_ADD1, (Address << 16));
 969:Drivers/STM32F7xx_HAL_Driver/Src/stm32f7xx_hal_flash_ex.c ****     }
 970:Drivers/STM32F7xx_HAL_Driver/Src/stm32f7xx_hal_flash_ex.c ****   }
 971:Drivers/STM32F7xx_HAL_Driver/Src/stm32f7xx_hal_flash_ex.c ****   
 972:Drivers/STM32F7xx_HAL_Driver/Src/stm32f7xx_hal_flash_ex.c ****   return status;
 973:Drivers/STM32F7xx_HAL_Driver/Src/stm32f7xx_hal_flash_ex.c **** }
 974:Drivers/STM32F7xx_HAL_Driver/Src/stm32f7xx_hal_flash_ex.c **** 
 975:Drivers/STM32F7xx_HAL_Driver/Src/stm32f7xx_hal_flash_ex.c **** /**
 976:Drivers/STM32F7xx_HAL_Driver/Src/stm32f7xx_hal_flash_ex.c ****   * @brief  Returns the FLASH Read Protection level.
 977:Drivers/STM32F7xx_HAL_Driver/Src/stm32f7xx_hal_flash_ex.c ****   * @retval FlagStatus FLASH ReadOut Protection Status:
 978:Drivers/STM32F7xx_HAL_Driver/Src/stm32f7xx_hal_flash_ex.c ****   *         This parameter can be one of the following values:
 979:Drivers/STM32F7xx_HAL_Driver/Src/stm32f7xx_hal_flash_ex.c ****   *            @arg OB_RDP_LEVEL_0: No protection
 980:Drivers/STM32F7xx_HAL_Driver/Src/stm32f7xx_hal_flash_ex.c ****   *            @arg OB_RDP_LEVEL_1: Read protection of the memory
 981:Drivers/STM32F7xx_HAL_Driver/Src/stm32f7xx_hal_flash_ex.c ****   *            @arg OB_RDP_LEVEL_2: Full chip protection
 982:Drivers/STM32F7xx_HAL_Driver/Src/stm32f7xx_hal_flash_ex.c ****   */
ARM GAS  /tmp/ccmMriQ8.s 			page 29


 983:Drivers/STM32F7xx_HAL_Driver/Src/stm32f7xx_hal_flash_ex.c **** static uint8_t FLASH_OB_GetRDP(void)
 984:Drivers/STM32F7xx_HAL_Driver/Src/stm32f7xx_hal_flash_ex.c **** {
 193              		.loc 1 984 0
 194              		.cfi_startproc
 195              		@ args = 0, pretend = 0, frame = 0
 196              		@ frame_needed = 0, uses_anonymous_args = 0
 197              		@ link register save eliminated.
 198              	.LVL8:
 985:Drivers/STM32F7xx_HAL_Driver/Src/stm32f7xx_hal_flash_ex.c ****   uint8_t readstatus = OB_RDP_LEVEL_0;
 986:Drivers/STM32F7xx_HAL_Driver/Src/stm32f7xx_hal_flash_ex.c ****   
 987:Drivers/STM32F7xx_HAL_Driver/Src/stm32f7xx_hal_flash_ex.c ****   if ((*(__IO uint8_t*)(OPTCR_BYTE1_ADDRESS)) == OB_RDP_LEVEL_0)
 199              		.loc 1 987 0
 200 0000 074B     		ldr	r3, .L23
 201 0002 1B78     		ldrb	r3, [r3]	@ zero_extendqisi2
 202 0004 DBB2     		uxtb	r3, r3
 203 0006 AA2B     		cmp	r3, #170
 204 0008 08D0     		beq	.L20
 988:Drivers/STM32F7xx_HAL_Driver/Src/stm32f7xx_hal_flash_ex.c ****   {
 989:Drivers/STM32F7xx_HAL_Driver/Src/stm32f7xx_hal_flash_ex.c ****     readstatus = OB_RDP_LEVEL_0;
 990:Drivers/STM32F7xx_HAL_Driver/Src/stm32f7xx_hal_flash_ex.c ****   }
 991:Drivers/STM32F7xx_HAL_Driver/Src/stm32f7xx_hal_flash_ex.c ****   else if ((*(__IO uint8_t*)(OPTCR_BYTE1_ADDRESS)) == OB_RDP_LEVEL_2)
 205              		.loc 1 991 0
 206 000a 054B     		ldr	r3, .L23
 207 000c 1B78     		ldrb	r3, [r3]	@ zero_extendqisi2
 208 000e DBB2     		uxtb	r3, r3
 209 0010 CC2B     		cmp	r3, #204
 210 0012 01D0     		beq	.L22
 992:Drivers/STM32F7xx_HAL_Driver/Src/stm32f7xx_hal_flash_ex.c ****   {
 993:Drivers/STM32F7xx_HAL_Driver/Src/stm32f7xx_hal_flash_ex.c ****     readstatus = OB_RDP_LEVEL_2;
 994:Drivers/STM32F7xx_HAL_Driver/Src/stm32f7xx_hal_flash_ex.c ****   }
 995:Drivers/STM32F7xx_HAL_Driver/Src/stm32f7xx_hal_flash_ex.c ****   else 
 996:Drivers/STM32F7xx_HAL_Driver/Src/stm32f7xx_hal_flash_ex.c ****   {
 997:Drivers/STM32F7xx_HAL_Driver/Src/stm32f7xx_hal_flash_ex.c ****     readstatus = OB_RDP_LEVEL_1;
 211              		.loc 1 997 0
 212 0014 5520     		movs	r0, #85
 213              	.LVL9:
 998:Drivers/STM32F7xx_HAL_Driver/Src/stm32f7xx_hal_flash_ex.c ****   }
 999:Drivers/STM32F7xx_HAL_Driver/Src/stm32f7xx_hal_flash_ex.c **** 
1000:Drivers/STM32F7xx_HAL_Driver/Src/stm32f7xx_hal_flash_ex.c ****   return readstatus;
1001:Drivers/STM32F7xx_HAL_Driver/Src/stm32f7xx_hal_flash_ex.c **** }
 214              		.loc 1 1001 0
 215 0016 7047     		bx	lr
 216              	.LVL10:
 217              	.L22:
 993:Drivers/STM32F7xx_HAL_Driver/Src/stm32f7xx_hal_flash_ex.c ****   }
 218              		.loc 1 993 0
 219 0018 CC20     		movs	r0, #204
 220 001a 7047     		bx	lr
 221              	.L20:
 989:Drivers/STM32F7xx_HAL_Driver/Src/stm32f7xx_hal_flash_ex.c ****   }
 222              		.loc 1 989 0
 223 001c AA20     		movs	r0, #170
 224 001e 7047     		bx	lr
 225              	.L24:
 226              		.align	2
 227              	.L23:
 228 0020 153C0240 		.word	1073888277
ARM GAS  /tmp/ccmMriQ8.s 			page 30


 229              		.cfi_endproc
 230              	.LFE150:
 232              		.section	.text.FLASH_OB_GetBOR,"ax",%progbits
 233              		.align	1
 234              		.syntax unified
 235              		.thumb
 236              		.thumb_func
 237              		.fpu fpv5-d16
 239              	FLASH_OB_GetBOR:
 240              	.LFB151:
1002:Drivers/STM32F7xx_HAL_Driver/Src/stm32f7xx_hal_flash_ex.c **** 
1003:Drivers/STM32F7xx_HAL_Driver/Src/stm32f7xx_hal_flash_ex.c **** /**
1004:Drivers/STM32F7xx_HAL_Driver/Src/stm32f7xx_hal_flash_ex.c ****   * @brief  Returns the FLASH BOR level.
1005:Drivers/STM32F7xx_HAL_Driver/Src/stm32f7xx_hal_flash_ex.c ****   * @retval uint32_t The FLASH BOR level:
1006:Drivers/STM32F7xx_HAL_Driver/Src/stm32f7xx_hal_flash_ex.c ****   *           - OB_BOR_LEVEL3: Supply voltage ranges from 2.7 to 3.6 V
1007:Drivers/STM32F7xx_HAL_Driver/Src/stm32f7xx_hal_flash_ex.c ****   *           - OB_BOR_LEVEL2: Supply voltage ranges from 2.4 to 2.7 V
1008:Drivers/STM32F7xx_HAL_Driver/Src/stm32f7xx_hal_flash_ex.c ****   *           - OB_BOR_LEVEL1: Supply voltage ranges from 2.1 to 2.4 V
1009:Drivers/STM32F7xx_HAL_Driver/Src/stm32f7xx_hal_flash_ex.c ****   *           - OB_BOR_OFF   : Supply voltage ranges from 1.62 to 2.1 V  
1010:Drivers/STM32F7xx_HAL_Driver/Src/stm32f7xx_hal_flash_ex.c ****   */
1011:Drivers/STM32F7xx_HAL_Driver/Src/stm32f7xx_hal_flash_ex.c **** static uint32_t FLASH_OB_GetBOR(void)
1012:Drivers/STM32F7xx_HAL_Driver/Src/stm32f7xx_hal_flash_ex.c **** {
 241              		.loc 1 1012 0
 242              		.cfi_startproc
 243              		@ args = 0, pretend = 0, frame = 0
 244              		@ frame_needed = 0, uses_anonymous_args = 0
 245              		@ link register save eliminated.
1013:Drivers/STM32F7xx_HAL_Driver/Src/stm32f7xx_hal_flash_ex.c ****   /* Return the FLASH BOR level */
1014:Drivers/STM32F7xx_HAL_Driver/Src/stm32f7xx_hal_flash_ex.c ****   return ((uint32_t)(FLASH->OPTCR & 0x0C));
 246              		.loc 1 1014 0
 247 0000 024B     		ldr	r3, .L26
 248 0002 5869     		ldr	r0, [r3, #20]
1015:Drivers/STM32F7xx_HAL_Driver/Src/stm32f7xx_hal_flash_ex.c **** }
 249              		.loc 1 1015 0
 250 0004 00F00C00 		and	r0, r0, #12
 251 0008 7047     		bx	lr
 252              	.L27:
 253 000a 00BF     		.align	2
 254              	.L26:
 255 000c 003C0240 		.word	1073888256
 256              		.cfi_endproc
 257              	.LFE151:
 259              		.section	.text.FLASH_OB_GetBootAddress,"ax",%progbits
 260              		.align	1
 261              		.syntax unified
 262              		.thumb
 263              		.thumb_func
 264              		.fpu fpv5-d16
 266              	FLASH_OB_GetBootAddress:
 267              	.LFB152:
1016:Drivers/STM32F7xx_HAL_Driver/Src/stm32f7xx_hal_flash_ex.c **** 
1017:Drivers/STM32F7xx_HAL_Driver/Src/stm32f7xx_hal_flash_ex.c **** /**
1018:Drivers/STM32F7xx_HAL_Driver/Src/stm32f7xx_hal_flash_ex.c ****   * @brief  Configure Boot base address.
1019:Drivers/STM32F7xx_HAL_Driver/Src/stm32f7xx_hal_flash_ex.c ****   * 
1020:Drivers/STM32F7xx_HAL_Driver/Src/stm32f7xx_hal_flash_ex.c ****   * @param   BootOption : specifies Boot base address depending from Boot pin = 0 or pin = 1
1021:Drivers/STM32F7xx_HAL_Driver/Src/stm32f7xx_hal_flash_ex.c ****   *          This parameter can be one of the following values:
1022:Drivers/STM32F7xx_HAL_Driver/Src/stm32f7xx_hal_flash_ex.c ****   *            @arg OPTIONBYTE_BOOTADDR_0 : Boot address based when Boot pin = 0                 
1023:Drivers/STM32F7xx_HAL_Driver/Src/stm32f7xx_hal_flash_ex.c ****   *            @arg OPTIONBYTE_BOOTADDR_1 : Boot address based when Boot pin = 1       
ARM GAS  /tmp/ccmMriQ8.s 			page 31


1024:Drivers/STM32F7xx_HAL_Driver/Src/stm32f7xx_hal_flash_ex.c ****   *    
1025:Drivers/STM32F7xx_HAL_Driver/Src/stm32f7xx_hal_flash_ex.c ****   * @retval uint32_t Boot Base Address:
1026:Drivers/STM32F7xx_HAL_Driver/Src/stm32f7xx_hal_flash_ex.c ****   *            - OB_BOOTADDR_ITCM_RAM : Boot from ITCM RAM (0x00000000)                 
1027:Drivers/STM32F7xx_HAL_Driver/Src/stm32f7xx_hal_flash_ex.c ****   *            - OB_BOOTADDR_SYSTEM : Boot from System memory bootloader (0x00100000) 
1028:Drivers/STM32F7xx_HAL_Driver/Src/stm32f7xx_hal_flash_ex.c ****   *            - OB_BOOTADDR_ITCM_FLASH : Boot from Flash on ITCM interface (0x00200000)  
1029:Drivers/STM32F7xx_HAL_Driver/Src/stm32f7xx_hal_flash_ex.c ****   *            - OB_BOOTADDR_AXIM_FLASH : Boot from Flash on AXIM interface (0x08000000)  
1030:Drivers/STM32F7xx_HAL_Driver/Src/stm32f7xx_hal_flash_ex.c ****   *            - OB_BOOTADDR_DTCM_RAM : Boot from DTCM RAM (0x20000000)                 
1031:Drivers/STM32F7xx_HAL_Driver/Src/stm32f7xx_hal_flash_ex.c ****   *            - OB_BOOTADDR_SRAM1 : Boot from SRAM1 (0x20010000)                    
1032:Drivers/STM32F7xx_HAL_Driver/Src/stm32f7xx_hal_flash_ex.c ****   *            - OB_BOOTADDR_SRAM2 : Boot from SRAM2 (0x2004C000) 
1033:Drivers/STM32F7xx_HAL_Driver/Src/stm32f7xx_hal_flash_ex.c ****   */
1034:Drivers/STM32F7xx_HAL_Driver/Src/stm32f7xx_hal_flash_ex.c **** static uint32_t FLASH_OB_GetBootAddress(uint32_t BootOption)
1035:Drivers/STM32F7xx_HAL_Driver/Src/stm32f7xx_hal_flash_ex.c **** {  
 268              		.loc 1 1035 0
 269              		.cfi_startproc
 270              		@ args = 0, pretend = 0, frame = 0
 271              		@ frame_needed = 0, uses_anonymous_args = 0
 272              		@ link register save eliminated.
 273              	.LVL11:
1036:Drivers/STM32F7xx_HAL_Driver/Src/stm32f7xx_hal_flash_ex.c ****   uint32_t Address = 0;
1037:Drivers/STM32F7xx_HAL_Driver/Src/stm32f7xx_hal_flash_ex.c ****     
1038:Drivers/STM32F7xx_HAL_Driver/Src/stm32f7xx_hal_flash_ex.c **** 	/* Return the Boot base Address */
1039:Drivers/STM32F7xx_HAL_Driver/Src/stm32f7xx_hal_flash_ex.c ****   if(BootOption == OPTIONBYTE_BOOTADDR_0)
 274              		.loc 1 1039 0
 275 0000 1028     		cmp	r0, #16
 276 0002 03D0     		beq	.L31
1040:Drivers/STM32F7xx_HAL_Driver/Src/stm32f7xx_hal_flash_ex.c ****   {			
1041:Drivers/STM32F7xx_HAL_Driver/Src/stm32f7xx_hal_flash_ex.c ****     Address = FLASH->OPTCR1 & FLASH_OPTCR1_BOOT_ADD0;
1042:Drivers/STM32F7xx_HAL_Driver/Src/stm32f7xx_hal_flash_ex.c **** 	}
1043:Drivers/STM32F7xx_HAL_Driver/Src/stm32f7xx_hal_flash_ex.c ****   else
1044:Drivers/STM32F7xx_HAL_Driver/Src/stm32f7xx_hal_flash_ex.c **** 	{
1045:Drivers/STM32F7xx_HAL_Driver/Src/stm32f7xx_hal_flash_ex.c **** 		Address = ((FLASH->OPTCR1 & FLASH_OPTCR1_BOOT_ADD1) >> 16);
 277              		.loc 1 1045 0
 278 0004 034B     		ldr	r3, .L32
 279 0006 9869     		ldr	r0, [r3, #24]
 280              	.LVL12:
 281 0008 000C     		lsrs	r0, r0, #16
 282              	.LVL13:
1046:Drivers/STM32F7xx_HAL_Driver/Src/stm32f7xx_hal_flash_ex.c **** 	}
1047:Drivers/STM32F7xx_HAL_Driver/Src/stm32f7xx_hal_flash_ex.c **** 
1048:Drivers/STM32F7xx_HAL_Driver/Src/stm32f7xx_hal_flash_ex.c ****   return Address;
1049:Drivers/STM32F7xx_HAL_Driver/Src/stm32f7xx_hal_flash_ex.c **** }
 283              		.loc 1 1049 0
 284 000a 7047     		bx	lr
 285              	.LVL14:
 286              	.L31:
1041:Drivers/STM32F7xx_HAL_Driver/Src/stm32f7xx_hal_flash_ex.c **** 	}
 287              		.loc 1 1041 0
 288 000c 014B     		ldr	r3, .L32
 289 000e 9869     		ldr	r0, [r3, #24]
 290              	.LVL15:
 291 0010 80B2     		uxth	r0, r0
 292              	.LVL16:
 293 0012 7047     		bx	lr
 294              	.L33:
 295              		.align	2
 296              	.L32:
 297 0014 003C0240 		.word	1073888256
ARM GAS  /tmp/ccmMriQ8.s 			page 32


 298              		.cfi_endproc
 299              	.LFE152:
 301              		.section	.text.FLASH_OB_EnableWRP,"ax",%progbits
 302              		.align	1
 303              		.syntax unified
 304              		.thumb
 305              		.thumb_func
 306              		.fpu fpv5-d16
 308              	FLASH_OB_EnableWRP:
 309              	.LFB145:
 825:Drivers/STM32F7xx_HAL_Driver/Src/stm32f7xx_hal_flash_ex.c ****   HAL_StatusTypeDef status = HAL_OK;
 310              		.loc 1 825 0
 311              		.cfi_startproc
 312              		@ args = 0, pretend = 0, frame = 0
 313              		@ frame_needed = 0, uses_anonymous_args = 0
 314              	.LVL17:
 315 0000 10B5     		push	{r4, lr}
 316              	.LCFI0:
 317              		.cfi_def_cfa_offset 8
 318              		.cfi_offset 4, -8
 319              		.cfi_offset 14, -4
 320 0002 0446     		mov	r4, r0
 321              	.LVL18:
 832:Drivers/STM32F7xx_HAL_Driver/Src/stm32f7xx_hal_flash_ex.c **** 
 322              		.loc 1 832 0
 323 0004 4CF25030 		movw	r0, #50000
 324              	.LVL19:
 325 0008 FFF7FEFF 		bl	FLASH_WaitForLastOperation
 326              	.LVL20:
 834:Drivers/STM32F7xx_HAL_Driver/Src/stm32f7xx_hal_flash_ex.c ****   {
 327              		.loc 1 834 0
 328 000c 0346     		mov	r3, r0
 329 000e 20B9     		cbnz	r0, .L35
 837:Drivers/STM32F7xx_HAL_Driver/Src/stm32f7xx_hal_flash_ex.c ****   }
 330              		.loc 1 837 0
 331 0010 034A     		ldr	r2, .L37
 332 0012 5069     		ldr	r0, [r2, #20]
 333              	.LVL21:
 334 0014 20EA0400 		bic	r0, r0, r4
 335 0018 5061     		str	r0, [r2, #20]
 336              	.L35:
 841:Drivers/STM32F7xx_HAL_Driver/Src/stm32f7xx_hal_flash_ex.c **** 
 337              		.loc 1 841 0
 338 001a 1846     		mov	r0, r3
 339 001c 10BD     		pop	{r4, pc}
 340              	.LVL22:
 341              	.L38:
 342 001e 00BF     		.align	2
 343              	.L37:
 344 0020 003C0240 		.word	1073888256
 345              		.cfi_endproc
 346              	.LFE145:
 348              		.section	.text.FLASH_OB_DisableWRP,"ax",%progbits
 349              		.align	1
 350              		.syntax unified
 351              		.thumb
 352              		.thumb_func
ARM GAS  /tmp/ccmMriQ8.s 			page 33


 353              		.fpu fpv5-d16
 355              	FLASH_OB_DisableWRP:
 356              	.LFB146:
 861:Drivers/STM32F7xx_HAL_Driver/Src/stm32f7xx_hal_flash_ex.c ****   HAL_StatusTypeDef status = HAL_OK;
 357              		.loc 1 861 0
 358              		.cfi_startproc
 359              		@ args = 0, pretend = 0, frame = 0
 360              		@ frame_needed = 0, uses_anonymous_args = 0
 361              	.LVL23:
 362 0000 10B5     		push	{r4, lr}
 363              	.LCFI1:
 364              		.cfi_def_cfa_offset 8
 365              		.cfi_offset 4, -8
 366              		.cfi_offset 14, -4
 367 0002 0446     		mov	r4, r0
 368              	.LVL24:
 868:Drivers/STM32F7xx_HAL_Driver/Src/stm32f7xx_hal_flash_ex.c **** 
 369              		.loc 1 868 0
 370 0004 4CF25030 		movw	r0, #50000
 371              	.LVL25:
 372 0008 FFF7FEFF 		bl	FLASH_WaitForLastOperation
 373              	.LVL26:
 870:Drivers/STM32F7xx_HAL_Driver/Src/stm32f7xx_hal_flash_ex.c ****   {
 374              		.loc 1 870 0
 375 000c 0346     		mov	r3, r0
 376 000e 18B9     		cbnz	r0, .L40
 873:Drivers/STM32F7xx_HAL_Driver/Src/stm32f7xx_hal_flash_ex.c ****   }
 377              		.loc 1 873 0
 378 0010 024A     		ldr	r2, .L42
 379 0012 5069     		ldr	r0, [r2, #20]
 380              	.LVL27:
 381 0014 2043     		orrs	r0, r0, r4
 382 0016 5061     		str	r0, [r2, #20]
 383              	.L40:
 877:Drivers/STM32F7xx_HAL_Driver/Src/stm32f7xx_hal_flash_ex.c **** 
 384              		.loc 1 877 0
 385 0018 1846     		mov	r0, r3
 386 001a 10BD     		pop	{r4, pc}
 387              	.LVL28:
 388              	.L43:
 389              		.align	2
 390              	.L42:
 391 001c 003C0240 		.word	1073888256
 392              		.cfi_endproc
 393              	.LFE146:
 395              		.section	.text.FLASH_OB_RDP_LevelConfig,"ax",%progbits
 396              		.align	1
 397              		.syntax unified
 398              		.thumb
 399              		.thumb_func
 400              		.fpu fpv5-d16
 402              	FLASH_OB_RDP_LevelConfig:
 403              	.LFB147:
 892:Drivers/STM32F7xx_HAL_Driver/Src/stm32f7xx_hal_flash_ex.c ****   HAL_StatusTypeDef status = HAL_OK;
 404              		.loc 1 892 0
 405              		.cfi_startproc
 406              		@ args = 0, pretend = 0, frame = 0
ARM GAS  /tmp/ccmMriQ8.s 			page 34


 407              		@ frame_needed = 0, uses_anonymous_args = 0
 408              	.LVL29:
 409 0000 10B5     		push	{r4, lr}
 410              	.LCFI2:
 411              		.cfi_def_cfa_offset 8
 412              		.cfi_offset 4, -8
 413              		.cfi_offset 14, -4
 414 0002 0446     		mov	r4, r0
 415              	.LVL30:
 899:Drivers/STM32F7xx_HAL_Driver/Src/stm32f7xx_hal_flash_ex.c **** 
 416              		.loc 1 899 0
 417 0004 4CF25030 		movw	r0, #50000
 418              	.LVL31:
 419 0008 FFF7FEFF 		bl	FLASH_WaitForLastOperation
 420              	.LVL32:
 901:Drivers/STM32F7xx_HAL_Driver/Src/stm32f7xx_hal_flash_ex.c ****   { 
 421              		.loc 1 901 0
 422 000c 0346     		mov	r3, r0
 423 000e 08B9     		cbnz	r0, .L45
 903:Drivers/STM32F7xx_HAL_Driver/Src/stm32f7xx_hal_flash_ex.c ****   }
 424              		.loc 1 903 0
 425 0010 014A     		ldr	r2, .L47
 426 0012 1470     		strb	r4, [r2]
 427              	.L45:
 907:Drivers/STM32F7xx_HAL_Driver/Src/stm32f7xx_hal_flash_ex.c **** 
 428              		.loc 1 907 0
 429 0014 1846     		mov	r0, r3
 430              	.LVL33:
 431 0016 10BD     		pop	{r4, pc}
 432              	.L48:
 433              		.align	2
 434              	.L47:
 435 0018 153C0240 		.word	1073888277
 436              		.cfi_endproc
 437              	.LFE147:
 439              		.section	.text.FLASH_OB_UserConfig,"ax",%progbits
 440              		.align	1
 441              		.syntax unified
 442              		.thumb
 443              		.thumb_func
 444              		.fpu fpv5-d16
 446              	FLASH_OB_UserConfig:
 447              	.LFB143:
 596:Drivers/STM32F7xx_HAL_Driver/Src/stm32f7xx_hal_flash_ex.c ****   uint32_t useroptionmask = 0x00;
 448              		.loc 1 596 0
 449              		.cfi_startproc
 450              		@ args = 16, pretend = 0, frame = 0
 451              		@ frame_needed = 0, uses_anonymous_args = 0
 452              	.LVL34:
 453 0000 F8B5     		push	{r3, r4, r5, r6, r7, lr}
 454              	.LCFI3:
 455              		.cfi_def_cfa_offset 24
 456              		.cfi_offset 3, -24
 457              		.cfi_offset 4, -20
 458              		.cfi_offset 5, -16
 459              		.cfi_offset 6, -12
 460              		.cfi_offset 7, -8
ARM GAS  /tmp/ccmMriQ8.s 			page 35


 461              		.cfi_offset 14, -4
 462 0002 0746     		mov	r7, r0
 463 0004 0C46     		mov	r4, r1
 464 0006 1646     		mov	r6, r2
 465 0008 1D46     		mov	r5, r3
 466              	.LVL35:
 613:Drivers/STM32F7xx_HAL_Driver/Src/stm32f7xx_hal_flash_ex.c ****   
 467              		.loc 1 613 0
 468 000a 4CF25030 		movw	r0, #50000
 469              	.LVL36:
 470 000e FFF7FEFF 		bl	FLASH_WaitForLastOperation
 471              	.LVL37:
 615:Drivers/STM32F7xx_HAL_Driver/Src/stm32f7xx_hal_flash_ex.c ****   {
 472              		.loc 1 615 0
 473 0012 0146     		mov	r1, r0
 474 0014 88B9     		cbnz	r0, .L50
 475              	.LVL38:
 621:Drivers/STM32F7xx_HAL_Driver/Src/stm32f7xx_hal_flash_ex.c ****         
 476              		.loc 1 621 0
 477 0016 44EA0703 		orr	r3, r4, r7
 478 001a 3343     		orrs	r3, r3, r6
 479 001c 2B43     		orrs	r3, r3, r5
 480 001e 069C     		ldr	r4, [sp, #24]
 481              	.LVL39:
 482 0020 2343     		orrs	r3, r3, r4
 483 0022 079A     		ldr	r2, [sp, #28]
 484 0024 1343     		orrs	r3, r3, r2
 485 0026 099A     		ldr	r2, [sp, #36]
 486 0028 1343     		orrs	r3, r3, r2
 487 002a 089A     		ldr	r2, [sp, #32]
 488 002c 1343     		orrs	r3, r3, r2
 489              	.LVL40:
 624:Drivers/STM32F7xx_HAL_Driver/Src/stm32f7xx_hal_flash_ex.c ****   }
 490              		.loc 1 624 0
 491 002e 0448     		ldr	r0, .L52
 492              	.LVL41:
 493 0030 4469     		ldr	r4, [r0, #20]
 494 0032 044A     		ldr	r2, .L52+4
 495 0034 2240     		ands	r2, r2, r4
 496 0036 1343     		orrs	r3, r3, r2
 497              	.LVL42:
 498 0038 4361     		str	r3, [r0, #20]
 499              	.LVL43:
 500              	.L50:
 628:Drivers/STM32F7xx_HAL_Driver/Src/stm32f7xx_hal_flash_ex.c **** 
 501              		.loc 1 628 0
 502 003a 0846     		mov	r0, r1
 503 003c F8BD     		pop	{r3, r4, r5, r6, r7, pc}
 504              	.LVL44:
 505              	.L53:
 506 003e 00BF     		.align	2
 507              	.L52:
 508 0040 003C0240 		.word	1073888256
 509 0044 0FFFFF0F 		.word	268435215
 510              		.cfi_endproc
 511              	.LFE143:
 513              		.section	.text.FLASH_OB_BootAddressConfig,"ax",%progbits
ARM GAS  /tmp/ccmMriQ8.s 			page 36


 514              		.align	1
 515              		.syntax unified
 516              		.thumb
 517              		.thumb_func
 518              		.fpu fpv5-d16
 520              	FLASH_OB_BootAddressConfig:
 521              	.LFB149:
 951:Drivers/STM32F7xx_HAL_Driver/Src/stm32f7xx_hal_flash_ex.c ****   HAL_StatusTypeDef status = HAL_OK;
 522              		.loc 1 951 0
 523              		.cfi_startproc
 524              		@ args = 0, pretend = 0, frame = 0
 525              		@ frame_needed = 0, uses_anonymous_args = 0
 526              	.LVL45:
 527 0000 38B5     		push	{r3, r4, r5, lr}
 528              	.LCFI4:
 529              		.cfi_def_cfa_offset 16
 530              		.cfi_offset 3, -16
 531              		.cfi_offset 4, -12
 532              		.cfi_offset 5, -8
 533              		.cfi_offset 14, -4
 534 0002 0446     		mov	r4, r0
 535 0004 0D46     		mov	r5, r1
 536              	.LVL46:
 958:Drivers/STM32F7xx_HAL_Driver/Src/stm32f7xx_hal_flash_ex.c ****   
 537              		.loc 1 958 0
 538 0006 4CF25030 		movw	r0, #50000
 539              	.LVL47:
 540 000a FFF7FEFF 		bl	FLASH_WaitForLastOperation
 541              	.LVL48:
 960:Drivers/STM32F7xx_HAL_Driver/Src/stm32f7xx_hal_flash_ex.c ****   {
 542              		.loc 1 960 0
 543 000e 0346     		mov	r3, r0
 544 0010 38B9     		cbnz	r0, .L55
 962:Drivers/STM32F7xx_HAL_Driver/Src/stm32f7xx_hal_flash_ex.c ****     {			
 545              		.loc 1 962 0
 546 0012 102C     		cmp	r4, #16
 547 0014 07D0     		beq	.L58
 968:Drivers/STM32F7xx_HAL_Driver/Src/stm32f7xx_hal_flash_ex.c ****     }
 548              		.loc 1 968 0
 549 0016 074A     		ldr	r2, .L59
 550 0018 9169     		ldr	r1, [r2, #24]
 551 001a 89B2     		uxth	r1, r1
 552 001c 41EA0541 		orr	r1, r1, r5, lsl #16
 553 0020 9161     		str	r1, [r2, #24]
 554              	.LVL49:
 555              	.L55:
 973:Drivers/STM32F7xx_HAL_Driver/Src/stm32f7xx_hal_flash_ex.c **** 
 556              		.loc 1 973 0
 557 0022 1846     		mov	r0, r3
 558 0024 38BD     		pop	{r3, r4, r5, pc}
 559              	.LVL50:
 560              	.L58:
 964:Drivers/STM32F7xx_HAL_Driver/Src/stm32f7xx_hal_flash_ex.c ****     }
 561              		.loc 1 964 0
 562 0026 034A     		ldr	r2, .L59
 563 0028 9069     		ldr	r0, [r2, #24]
 564              	.LVL51:
ARM GAS  /tmp/ccmMriQ8.s 			page 37


 565 002a 0349     		ldr	r1, .L59+4
 566 002c 0140     		ands	r1, r1, r0
 567 002e 2943     		orrs	r1, r1, r5
 568 0030 9161     		str	r1, [r2, #24]
 569 0032 F6E7     		b	.L55
 570              	.L60:
 571              		.align	2
 572              	.L59:
 573 0034 003C0240 		.word	1073888256
 574 0038 0000FFFF 		.word	-65536
 575              		.cfi_endproc
 576              	.LFE149:
 578              		.section	.text.HAL_FLASHEx_OBProgram,"ax",%progbits
 579              		.align	1
 580              		.global	HAL_FLASHEx_OBProgram
 581              		.syntax unified
 582              		.thumb
 583              		.thumb_func
 584              		.fpu fpv5-d16
 586              	HAL_FLASHEx_OBProgram:
 587              	.LFB138:
 304:Drivers/STM32F7xx_HAL_Driver/Src/stm32f7xx_hal_flash_ex.c ****   HAL_StatusTypeDef status = HAL_ERROR;
 588              		.loc 1 304 0
 589              		.cfi_startproc
 590              		@ args = 0, pretend = 0, frame = 0
 591              		@ frame_needed = 0, uses_anonymous_args = 0
 592              	.LVL52:
 308:Drivers/STM32F7xx_HAL_Driver/Src/stm32f7xx_hal_flash_ex.c **** 
 593              		.loc 1 308 0
 594 0000 2F4B     		ldr	r3, .L82
 595 0002 1B7D     		ldrb	r3, [r3, #20]	@ zero_extendqisi2
 596 0004 012B     		cmp	r3, #1
 597 0006 58D0     		beq	.L70
 304:Drivers/STM32F7xx_HAL_Driver/Src/stm32f7xx_hal_flash_ex.c ****   HAL_StatusTypeDef status = HAL_ERROR;
 598              		.loc 1 304 0 discriminator 2
 599 0008 30B5     		push	{r4, r5, lr}
 600              	.LCFI5:
 601              		.cfi_def_cfa_offset 12
 602              		.cfi_offset 4, -12
 603              		.cfi_offset 5, -8
 604              		.cfi_offset 14, -4
 605 000a 85B0     		sub	sp, sp, #20
 606              	.LCFI6:
 607              		.cfi_def_cfa_offset 32
 608 000c 0446     		mov	r4, r0
 308:Drivers/STM32F7xx_HAL_Driver/Src/stm32f7xx_hal_flash_ex.c **** 
 609              		.loc 1 308 0 discriminator 2
 610 000e 0122     		movs	r2, #1
 611 0010 2B4B     		ldr	r3, .L82
 612 0012 1A75     		strb	r2, [r3, #20]
 314:Drivers/STM32F7xx_HAL_Driver/Src/stm32f7xx_hal_flash_ex.c ****   {
 613              		.loc 1 314 0 discriminator 2
 614 0014 0368     		ldr	r3, [r0]
 615 0016 13F0010F 		tst	r3, #1
 616 001a 0AD0     		beq	.L71
 317:Drivers/STM32F7xx_HAL_Driver/Src/stm32f7xx_hal_flash_ex.c ****     {
 617              		.loc 1 317 0
ARM GAS  /tmp/ccmMriQ8.s 			page 38


 618 001c 4368     		ldr	r3, [r0, #4]
 619 001e 9342     		cmp	r3, r2
 620 0020 03D0     		beq	.L76
 325:Drivers/STM32F7xx_HAL_Driver/Src/stm32f7xx_hal_flash_ex.c ****     }
 621              		.loc 1 325 0
 622 0022 8068     		ldr	r0, [r0, #8]
 623              	.LVL53:
 624 0024 FFF7FEFF 		bl	FLASH_OB_DisableWRP
 625              	.LVL54:
 626 0028 04E0     		b	.L63
 627              	.LVL55:
 628              	.L76:
 320:Drivers/STM32F7xx_HAL_Driver/Src/stm32f7xx_hal_flash_ex.c ****     }
 629              		.loc 1 320 0
 630 002a 8068     		ldr	r0, [r0, #8]
 631              	.LVL56:
 632 002c FFF7FEFF 		bl	FLASH_OB_EnableWRP
 633              	.LVL57:
 634 0030 00E0     		b	.L63
 635              	.LVL58:
 636              	.L71:
 305:Drivers/STM32F7xx_HAL_Driver/Src/stm32f7xx_hal_flash_ex.c ****   
 637              		.loc 1 305 0
 638 0032 0120     		movs	r0, #1
 639              	.LVL59:
 640              	.L63:
 330:Drivers/STM32F7xx_HAL_Driver/Src/stm32f7xx_hal_flash_ex.c ****   {
 641              		.loc 1 330 0
 642 0034 2368     		ldr	r3, [r4]
 643 0036 13F0020F 		tst	r3, #2
 644 003a 14D1     		bne	.L77
 645              	.L65:
 336:Drivers/STM32F7xx_HAL_Driver/Src/stm32f7xx_hal_flash_ex.c ****   {
 646              		.loc 1 336 0
 647 003c 2368     		ldr	r3, [r4]
 648 003e 13F0040F 		tst	r3, #4
 649 0042 14D1     		bne	.L78
 650              	.L66:
 358:Drivers/STM32F7xx_HAL_Driver/Src/stm32f7xx_hal_flash_ex.c ****   {
 651              		.loc 1 358 0
 652 0044 2368     		ldr	r3, [r4]
 653 0046 13F0080F 		tst	r3, #8
 654 004a 28D1     		bne	.L79
 655              	.L67:
 364:Drivers/STM32F7xx_HAL_Driver/Src/stm32f7xx_hal_flash_ex.c ****   {
 656              		.loc 1 364 0
 657 004c 2368     		ldr	r3, [r4]
 658 004e 13F0100F 		tst	r3, #16
 659 0052 28D1     		bne	.L80
 660              	.L68:
 370:Drivers/STM32F7xx_HAL_Driver/Src/stm32f7xx_hal_flash_ex.c ****   {
 661              		.loc 1 370 0
 662 0054 2368     		ldr	r3, [r4]
 663 0056 13F0200F 		tst	r3, #32
 664 005a 29D1     		bne	.L81
 665              	.L69:
 390:Drivers/STM32F7xx_HAL_Driver/Src/stm32f7xx_hal_flash_ex.c **** 
ARM GAS  /tmp/ccmMriQ8.s 			page 39


 666              		.loc 1 390 0
 667 005c 0022     		movs	r2, #0
 668 005e 184B     		ldr	r3, .L82
 669 0060 1A75     		strb	r2, [r3, #20]
 393:Drivers/STM32F7xx_HAL_Driver/Src/stm32f7xx_hal_flash_ex.c **** 
 670              		.loc 1 393 0
 671 0062 05B0     		add	sp, sp, #20
 672              	.LCFI7:
 673              		.cfi_remember_state
 674              		.cfi_def_cfa_offset 12
 675              		@ sp needed
 676 0064 30BD     		pop	{r4, r5, pc}
 677              	.LVL60:
 678              	.L77:
 679              	.LCFI8:
 680              		.cfi_restore_state
 332:Drivers/STM32F7xx_HAL_Driver/Src/stm32f7xx_hal_flash_ex.c ****   }
 681              		.loc 1 332 0
 682 0066 207B     		ldrb	r0, [r4, #12]	@ zero_extendqisi2
 683              	.LVL61:
 684 0068 FFF7FEFF 		bl	FLASH_OB_RDP_LevelConfig
 685              	.LVL62:
 686 006c E6E7     		b	.L65
 687              	.L78:
 339:Drivers/STM32F7xx_HAL_Driver/Src/stm32f7xx_hal_flash_ex.c ****                                  pOBInit->USERConfig & OB_IWDG_SW,
 688              		.loc 1 339 0
 689 006e 6069     		ldr	r0, [r4, #20]
 690              	.LVL63:
 691 0070 00F00043 		and	r3, r0, #-2147483648
 692 0074 00F08042 		and	r2, r0, #1073741824
 693 0078 00F00051 		and	r1, r0, #536870912
 694 007c 00F08055 		and	r5, r0, #268435456
 695 0080 0395     		str	r5, [sp, #12]
 696 0082 0291     		str	r1, [sp, #8]
 697 0084 0192     		str	r2, [sp, #4]
 698 0086 0093     		str	r3, [sp]
 699 0088 00F08003 		and	r3, r0, #128
 700 008c 00F04002 		and	r2, r0, #64
 701 0090 00F02001 		and	r1, r0, #32
 702 0094 00F01000 		and	r0, r0, #16
 703 0098 FFF7FEFF 		bl	FLASH_OB_UserConfig
 704              	.LVL64:
 705 009c D2E7     		b	.L66
 706              	.L79:
 360:Drivers/STM32F7xx_HAL_Driver/Src/stm32f7xx_hal_flash_ex.c ****   }
 707              		.loc 1 360 0
 708 009e 207C     		ldrb	r0, [r4, #16]	@ zero_extendqisi2
 709              	.LVL65:
 710 00a0 FFF7FEFF 		bl	FLASH_OB_BOR_LevelConfig
 711              	.LVL66:
 712 00a4 D2E7     		b	.L67
 713              	.L80:
 366:Drivers/STM32F7xx_HAL_Driver/Src/stm32f7xx_hal_flash_ex.c ****   }
 714              		.loc 1 366 0
 715 00a6 A169     		ldr	r1, [r4, #24]
 716 00a8 1020     		movs	r0, #16
 717              	.LVL67:
ARM GAS  /tmp/ccmMriQ8.s 			page 40


 718 00aa FFF7FEFF 		bl	FLASH_OB_BootAddressConfig
 719              	.LVL68:
 720 00ae D1E7     		b	.L68
 721              	.L81:
 372:Drivers/STM32F7xx_HAL_Driver/Src/stm32f7xx_hal_flash_ex.c ****   }
 722              		.loc 1 372 0
 723 00b0 E169     		ldr	r1, [r4, #28]
 724 00b2 2020     		movs	r0, #32
 725              	.LVL69:
 726 00b4 FFF7FEFF 		bl	FLASH_OB_BootAddressConfig
 727              	.LVL70:
 728 00b8 D0E7     		b	.L69
 729              	.LVL71:
 730              	.L70:
 731              	.LCFI9:
 732              		.cfi_def_cfa_offset 0
 733              		.cfi_restore 4
 734              		.cfi_restore 5
 735              		.cfi_restore 14
 308:Drivers/STM32F7xx_HAL_Driver/Src/stm32f7xx_hal_flash_ex.c **** 
 736              		.loc 1 308 0
 737 00ba 0220     		movs	r0, #2
 738              	.LVL72:
 739 00bc 7047     		bx	lr
 740              	.L83:
 741 00be 00BF     		.align	2
 742              	.L82:
 743 00c0 00000000 		.word	pFlash
 744              		.cfi_endproc
 745              	.LFE138:
 747              		.section	.text.HAL_FLASHEx_OBGetConfig,"ax",%progbits
 748              		.align	1
 749              		.global	HAL_FLASHEx_OBGetConfig
 750              		.syntax unified
 751              		.thumb
 752              		.thumb_func
 753              		.fpu fpv5-d16
 755              	HAL_FLASHEx_OBGetConfig:
 756              	.LFB139:
 403:Drivers/STM32F7xx_HAL_Driver/Src/stm32f7xx_hal_flash_ex.c ****   pOBInit->OptionType = OPTIONBYTE_WRP | OPTIONBYTE_RDP | OPTIONBYTE_USER |\
 757              		.loc 1 403 0
 758              		.cfi_startproc
 759              		@ args = 0, pretend = 0, frame = 0
 760              		@ frame_needed = 0, uses_anonymous_args = 0
 761              	.LVL73:
 762 0000 10B5     		push	{r4, lr}
 763              	.LCFI10:
 764              		.cfi_def_cfa_offset 8
 765              		.cfi_offset 4, -8
 766              		.cfi_offset 14, -4
 767 0002 0446     		mov	r4, r0
 404:Drivers/STM32F7xx_HAL_Driver/Src/stm32f7xx_hal_flash_ex.c **** 	                OPTIONBYTE_BOR | OPTIONBYTE_BOOTADDR_0 | OPTIONBYTE_BOOTADDR_1;
 768              		.loc 1 404 0
 769 0004 3F23     		movs	r3, #63
 770 0006 0360     		str	r3, [r0]
 408:Drivers/STM32F7xx_HAL_Driver/Src/stm32f7xx_hal_flash_ex.c **** 
 771              		.loc 1 408 0
ARM GAS  /tmp/ccmMriQ8.s 			page 41


 772 0008 FFF7FEFF 		bl	FLASH_OB_GetWRP
 773              	.LVL74:
 774 000c A060     		str	r0, [r4, #8]
 411:Drivers/STM32F7xx_HAL_Driver/Src/stm32f7xx_hal_flash_ex.c **** 
 775              		.loc 1 411 0
 776 000e FFF7FEFF 		bl	FLASH_OB_GetRDP
 777              	.LVL75:
 778 0012 E060     		str	r0, [r4, #12]
 414:Drivers/STM32F7xx_HAL_Driver/Src/stm32f7xx_hal_flash_ex.c **** 
 779              		.loc 1 414 0
 780 0014 FFF7FEFF 		bl	FLASH_OB_GetUser
 781              	.LVL76:
 782 0018 6061     		str	r0, [r4, #20]
 417:Drivers/STM32F7xx_HAL_Driver/Src/stm32f7xx_hal_flash_ex.c ****   
 783              		.loc 1 417 0
 784 001a FFF7FEFF 		bl	FLASH_OB_GetBOR
 785              	.LVL77:
 786 001e 2061     		str	r0, [r4, #16]
 420:Drivers/STM32F7xx_HAL_Driver/Src/stm32f7xx_hal_flash_ex.c ****   
 787              		.loc 1 420 0
 788 0020 1020     		movs	r0, #16
 789 0022 FFF7FEFF 		bl	FLASH_OB_GetBootAddress
 790              	.LVL78:
 791 0026 A061     		str	r0, [r4, #24]
 423:Drivers/STM32F7xx_HAL_Driver/Src/stm32f7xx_hal_flash_ex.c **** 
 792              		.loc 1 423 0
 793 0028 2020     		movs	r0, #32
 794 002a FFF7FEFF 		bl	FLASH_OB_GetBootAddress
 795              	.LVL79:
 796 002e E061     		str	r0, [r4, #28]
 797 0030 10BD     		pop	{r4, pc}
 798              		.cfi_endproc
 799              	.LFE139:
 801              		.section	.text.FLASH_Erase_Sector,"ax",%progbits
 802              		.align	1
 803              		.global	FLASH_Erase_Sector
 804              		.syntax unified
 805              		.thumb
 806              		.thumb_func
 807              		.fpu fpv5-d16
 809              	FLASH_Erase_Sector:
 810              	.LFB141:
 505:Drivers/STM32F7xx_HAL_Driver/Src/stm32f7xx_hal_flash_ex.c ****   uint32_t tmp_psize = 0;
 811              		.loc 1 505 0
 812              		.cfi_startproc
 813              		@ args = 0, pretend = 0, frame = 0
 814              		@ frame_needed = 0, uses_anonymous_args = 0
 815              		@ link register save eliminated.
 816              	.LVL80:
 512:Drivers/STM32F7xx_HAL_Driver/Src/stm32f7xx_hal_flash_ex.c ****   {
 817              		.loc 1 512 0
 818 0000 49B1     		cbz	r1, .L89
 516:Drivers/STM32F7xx_HAL_Driver/Src/stm32f7xx_hal_flash_ex.c ****   {
 819              		.loc 1 516 0
 820 0002 0129     		cmp	r1, #1
 821 0004 24D0     		beq	.L90
 520:Drivers/STM32F7xx_HAL_Driver/Src/stm32f7xx_hal_flash_ex.c ****   {
ARM GAS  /tmp/ccmMriQ8.s 			page 42


 822              		.loc 1 520 0
 823 0006 0229     		cmp	r1, #2
 824 0008 02D0     		beq	.L92
 526:Drivers/STM32F7xx_HAL_Driver/Src/stm32f7xx_hal_flash_ex.c ****   }
 825              		.loc 1 526 0
 826 000a 4FF44071 		mov	r1, #768
 827              	.LVL81:
 828 000e 03E0     		b	.L87
 829              	.LVL82:
 830              	.L92:
 522:Drivers/STM32F7xx_HAL_Driver/Src/stm32f7xx_hal_flash_ex.c ****   }
 831              		.loc 1 522 0
 832 0010 4FF40071 		mov	r1, #512
 833              	.LVL83:
 834 0014 00E0     		b	.L87
 835              	.LVL84:
 836              	.L89:
 514:Drivers/STM32F7xx_HAL_Driver/Src/stm32f7xx_hal_flash_ex.c ****   }
 837              		.loc 1 514 0
 838 0016 0021     		movs	r1, #0
 839              	.LVL85:
 840              	.L87:
 530:Drivers/STM32F7xx_HAL_Driver/Src/stm32f7xx_hal_flash_ex.c ****   {
 841              		.loc 1 530 0
 842 0018 0B28     		cmp	r0, #11
 843 001a 00D9     		bls	.L88
 532:Drivers/STM32F7xx_HAL_Driver/Src/stm32f7xx_hal_flash_ex.c ****   }  
 844              		.loc 1 532 0
 845 001c 0430     		adds	r0, r0, #4
 846              	.LVL86:
 847              	.L88:
 536:Drivers/STM32F7xx_HAL_Driver/Src/stm32f7xx_hal_flash_ex.c ****   FLASH->CR |= tmp_psize;
 848              		.loc 1 536 0
 849 001e 0E4B     		ldr	r3, .L93
 850 0020 1A69     		ldr	r2, [r3, #16]
 851 0022 22F44072 		bic	r2, r2, #768
 852 0026 1A61     		str	r2, [r3, #16]
 537:Drivers/STM32F7xx_HAL_Driver/Src/stm32f7xx_hal_flash_ex.c ****   CLEAR_BIT(FLASH->CR, FLASH_CR_SNB);
 853              		.loc 1 537 0
 854 0028 1A69     		ldr	r2, [r3, #16]
 855 002a 0A43     		orrs	r2, r2, r1
 856 002c 1A61     		str	r2, [r3, #16]
 538:Drivers/STM32F7xx_HAL_Driver/Src/stm32f7xx_hal_flash_ex.c ****   FLASH->CR |= FLASH_CR_SER | (Sector << FLASH_CR_SNB_Pos);
 857              		.loc 1 538 0
 858 002e 1A69     		ldr	r2, [r3, #16]
 859 0030 22F0F802 		bic	r2, r2, #248
 860 0034 1A61     		str	r2, [r3, #16]
 539:Drivers/STM32F7xx_HAL_Driver/Src/stm32f7xx_hal_flash_ex.c ****   FLASH->CR |= FLASH_CR_STRT;
 861              		.loc 1 539 0
 862 0036 1A69     		ldr	r2, [r3, #16]
 863 0038 42EAC000 		orr	r0, r2, r0, lsl #3
 864              	.LVL87:
 865 003c 40F00200 		orr	r0, r0, #2
 866 0040 1861     		str	r0, [r3, #16]
 540:Drivers/STM32F7xx_HAL_Driver/Src/stm32f7xx_hal_flash_ex.c ****   
 867              		.loc 1 540 0
 868 0042 1A69     		ldr	r2, [r3, #16]
ARM GAS  /tmp/ccmMriQ8.s 			page 43


 869 0044 42F48032 		orr	r2, r2, #65536
 870 0048 1A61     		str	r2, [r3, #16]
 871              	.LBB8:
 872              	.LBB9:
 873              		.loc 2 429 0
 874              		.syntax unified
 875              	@ 429 "Drivers/CMSIS/Include/cmsis_gcc.h" 1
 876 004a BFF34F8F 		dsb 0xF
 877              	@ 0 "" 2
 878              		.thumb
 879              		.syntax unified
 880 004e 7047     		bx	lr
 881              	.LVL88:
 882              	.L90:
 883              	.LBE9:
 884              	.LBE8:
 518:Drivers/STM32F7xx_HAL_Driver/Src/stm32f7xx_hal_flash_ex.c ****   }
 885              		.loc 1 518 0
 886 0050 4FF48071 		mov	r1, #256
 887              	.LVL89:
 888 0054 E0E7     		b	.L87
 889              	.L94:
 890 0056 00BF     		.align	2
 891              	.L93:
 892 0058 003C0240 		.word	1073888256
 893              		.cfi_endproc
 894              	.LFE141:
 896              		.section	.text.HAL_FLASHEx_Erase,"ax",%progbits
 897              		.align	1
 898              		.global	HAL_FLASHEx_Erase
 899              		.syntax unified
 900              		.thumb
 901              		.thumb_func
 902              		.fpu fpv5-d16
 904              	HAL_FLASHEx_Erase:
 905              	.LFB136:
 175:Drivers/STM32F7xx_HAL_Driver/Src/stm32f7xx_hal_flash_ex.c ****   HAL_StatusTypeDef status = HAL_ERROR;
 906              		.loc 1 175 0
 907              		.cfi_startproc
 908              		@ args = 0, pretend = 0, frame = 0
 909              		@ frame_needed = 0, uses_anonymous_args = 0
 910              	.LVL90:
 180:Drivers/STM32F7xx_HAL_Driver/Src/stm32f7xx_hal_flash_ex.c **** 
 911              		.loc 1 180 0
 912 0000 224B     		ldr	r3, .L110
 913 0002 1B7D     		ldrb	r3, [r3, #20]	@ zero_extendqisi2
 914 0004 012B     		cmp	r3, #1
 915 0006 02D1     		bne	.L107
 916 0008 0222     		movs	r2, #2
 238:Drivers/STM32F7xx_HAL_Driver/Src/stm32f7xx_hal_flash_ex.c **** 
 917              		.loc 1 238 0
 918 000a 1046     		mov	r0, r2
 919              	.LVL91:
 920 000c 7047     		bx	lr
 921              	.LVL92:
 922              	.L107:
 175:Drivers/STM32F7xx_HAL_Driver/Src/stm32f7xx_hal_flash_ex.c ****   HAL_StatusTypeDef status = HAL_ERROR;
ARM GAS  /tmp/ccmMriQ8.s 			page 44


 923              		.loc 1 175 0 discriminator 2
 924 000e 70B5     		push	{r4, r5, r6, lr}
 925              	.LCFI11:
 926              		.cfi_def_cfa_offset 16
 927              		.cfi_offset 4, -16
 928              		.cfi_offset 5, -12
 929              		.cfi_offset 6, -8
 930              		.cfi_offset 14, -4
 931 0010 0E46     		mov	r6, r1
 932 0012 0446     		mov	r4, r0
 180:Drivers/STM32F7xx_HAL_Driver/Src/stm32f7xx_hal_flash_ex.c **** 
 933              		.loc 1 180 0 discriminator 2
 934 0014 0122     		movs	r2, #1
 935 0016 1D4B     		ldr	r3, .L110
 936 0018 1A75     		strb	r2, [r3, #20]
 186:Drivers/STM32F7xx_HAL_Driver/Src/stm32f7xx_hal_flash_ex.c **** 
 937              		.loc 1 186 0 discriminator 2
 938 001a 4CF25030 		movw	r0, #50000
 939              	.LVL93:
 940 001e FFF7FEFF 		bl	FLASH_WaitForLastOperation
 941              	.LVL94:
 188:Drivers/STM32F7xx_HAL_Driver/Src/stm32f7xx_hal_flash_ex.c ****   {
 942              		.loc 1 188 0 discriminator 2
 943 0022 0246     		mov	r2, r0
 944 0024 60BB     		cbnz	r0, .L97
 191:Drivers/STM32F7xx_HAL_Driver/Src/stm32f7xx_hal_flash_ex.c ****     
 945              		.loc 1 191 0
 946 0026 4FF0FF33 		mov	r3, #-1
 947 002a 3360     		str	r3, [r6]
 193:Drivers/STM32F7xx_HAL_Driver/Src/stm32f7xx_hal_flash_ex.c ****     {
 948              		.loc 1 193 0
 949 002c 2368     		ldr	r3, [r4]
 950 002e 012B     		cmp	r3, #1
 951 0030 16D0     		beq	.L108
 214:Drivers/STM32F7xx_HAL_Driver/Src/stm32f7xx_hal_flash_ex.c ****       {
 952              		.loc 1 214 0
 953 0032 A568     		ldr	r5, [r4, #8]
 954              	.LVL95:
 955              	.L99:
 214:Drivers/STM32F7xx_HAL_Driver/Src/stm32f7xx_hal_flash_ex.c ****       {
 956              		.loc 1 214 0 is_stmt 0 discriminator 1
 957 0034 E368     		ldr	r3, [r4, #12]
 958 0036 A168     		ldr	r1, [r4, #8]
 959 0038 0B44     		add	r3, r3, r1
 960 003a 9D42     		cmp	r5, r3
 961 003c 20D2     		bcs	.L97
 216:Drivers/STM32F7xx_HAL_Driver/Src/stm32f7xx_hal_flash_ex.c **** 
 962              		.loc 1 216 0 is_stmt 1
 963 003e 217C     		ldrb	r1, [r4, #16]	@ zero_extendqisi2
 964 0040 2846     		mov	r0, r5
 965 0042 FFF7FEFF 		bl	FLASH_Erase_Sector
 966              	.LVL96:
 219:Drivers/STM32F7xx_HAL_Driver/Src/stm32f7xx_hal_flash_ex.c ****         
 967              		.loc 1 219 0
 968 0046 4CF25030 		movw	r0, #50000
 969 004a FFF7FEFF 		bl	FLASH_WaitForLastOperation
 970              	.LVL97:
ARM GAS  /tmp/ccmMriQ8.s 			page 45


 222:Drivers/STM32F7xx_HAL_Driver/Src/stm32f7xx_hal_flash_ex.c **** 
 971              		.loc 1 222 0
 972 004e 104A     		ldr	r2, .L110+4
 973 0050 1369     		ldr	r3, [r2, #16]
 974 0052 23F0FA03 		bic	r3, r3, #250
 975 0056 1361     		str	r3, [r2, #16]
 224:Drivers/STM32F7xx_HAL_Driver/Src/stm32f7xx_hal_flash_ex.c ****         {
 976              		.loc 1 224 0
 977 0058 0246     		mov	r2, r0
 978 005a 80B9     		cbnz	r0, .L109
 214:Drivers/STM32F7xx_HAL_Driver/Src/stm32f7xx_hal_flash_ex.c ****       {
 979              		.loc 1 214 0 discriminator 2
 980 005c 0135     		adds	r5, r5, #1
 981              	.LVL98:
 982 005e E9E7     		b	.L99
 983              	.LVL99:
 984              	.L108:
 197:Drivers/STM32F7xx_HAL_Driver/Src/stm32f7xx_hal_flash_ex.c **** #else
 985              		.loc 1 197 0
 986 0060 6168     		ldr	r1, [r4, #4]
 987 0062 207C     		ldrb	r0, [r4, #16]	@ zero_extendqisi2
 988              	.LVL100:
 989 0064 FFF7FEFF 		bl	FLASH_MassErase
 990              	.LVL101:
 203:Drivers/STM32F7xx_HAL_Driver/Src/stm32f7xx_hal_flash_ex.c ****       
 991              		.loc 1 203 0
 992 0068 4CF25030 		movw	r0, #50000
 993 006c FFF7FEFF 		bl	FLASH_WaitForLastOperation
 994              	.LVL102:
 995 0070 0246     		mov	r2, r0
 996              	.LVL103:
 206:Drivers/STM32F7xx_HAL_Driver/Src/stm32f7xx_hal_flash_ex.c ****     }
 997              		.loc 1 206 0
 998 0072 0749     		ldr	r1, .L110+4
 999 0074 0869     		ldr	r0, [r1, #16]
 1000 0076 074B     		ldr	r3, .L110+8
 1001 0078 0340     		ands	r3, r3, r0
 1002 007a 0B61     		str	r3, [r1, #16]
 1003 007c 00E0     		b	.L97
 1004              	.LVL104:
 1005              	.L109:
 227:Drivers/STM32F7xx_HAL_Driver/Src/stm32f7xx_hal_flash_ex.c ****           break;
 1006              		.loc 1 227 0
 1007 007e 3560     		str	r5, [r6]
 1008              	.LVL105:
 1009              	.L97:
 235:Drivers/STM32F7xx_HAL_Driver/Src/stm32f7xx_hal_flash_ex.c **** 
 1010              		.loc 1 235 0
 1011 0080 0021     		movs	r1, #0
 1012 0082 024B     		ldr	r3, .L110
 1013 0084 1975     		strb	r1, [r3, #20]
 238:Drivers/STM32F7xx_HAL_Driver/Src/stm32f7xx_hal_flash_ex.c **** 
 1014              		.loc 1 238 0
 1015 0086 1046     		mov	r0, r2
 1016 0088 70BD     		pop	{r4, r5, r6, pc}
 1017              	.LVL106:
 1018              	.L111:
ARM GAS  /tmp/ccmMriQ8.s 			page 46


 1019 008a 00BF     		.align	2
 1020              	.L110:
 1021 008c 00000000 		.word	pFlash
 1022 0090 003C0240 		.word	1073888256
 1023 0094 FB7FFFFF 		.word	-32773
 1024              		.cfi_endproc
 1025              	.LFE136:
 1027              		.section	.text.HAL_FLASHEx_Erase_IT,"ax",%progbits
 1028              		.align	1
 1029              		.global	HAL_FLASHEx_Erase_IT
 1030              		.syntax unified
 1031              		.thumb
 1032              		.thumb_func
 1033              		.fpu fpv5-d16
 1035              	HAL_FLASHEx_Erase_IT:
 1036              	.LFB137:
 248:Drivers/STM32F7xx_HAL_Driver/Src/stm32f7xx_hal_flash_ex.c ****   HAL_StatusTypeDef status = HAL_OK;
 1037              		.loc 1 248 0
 1038              		.cfi_startproc
 1039              		@ args = 0, pretend = 0, frame = 0
 1040              		@ frame_needed = 0, uses_anonymous_args = 0
 1041              	.LVL107:
 1042 0000 08B5     		push	{r3, lr}
 1043              	.LCFI12:
 1044              		.cfi_def_cfa_offset 8
 1045              		.cfi_offset 3, -8
 1046              		.cfi_offset 14, -4
 1047              	.LVL108:
 252:Drivers/STM32F7xx_HAL_Driver/Src/stm32f7xx_hal_flash_ex.c **** 
 1048              		.loc 1 252 0
 1049 0002 174B     		ldr	r3, .L118
 1050 0004 1B7D     		ldrb	r3, [r3, #20]	@ zero_extendqisi2
 1051 0006 012B     		cmp	r3, #1
 1052 0008 27D0     		beq	.L115
 252:Drivers/STM32F7xx_HAL_Driver/Src/stm32f7xx_hal_flash_ex.c **** 
 1053              		.loc 1 252 0 is_stmt 0 discriminator 2
 1054 000a 0122     		movs	r2, #1
 1055 000c 144B     		ldr	r3, .L118
 1056 000e 1A75     		strb	r2, [r3, #20]
 258:Drivers/STM32F7xx_HAL_Driver/Src/stm32f7xx_hal_flash_ex.c ****   
 1057              		.loc 1 258 0 is_stmt 1 discriminator 2
 1058 0010 144B     		ldr	r3, .L118+4
 1059 0012 1A69     		ldr	r2, [r3, #16]
 1060 0014 42F08072 		orr	r2, r2, #16777216
 1061 0018 1A61     		str	r2, [r3, #16]
 261:Drivers/STM32F7xx_HAL_Driver/Src/stm32f7xx_hal_flash_ex.c ****   
 1062              		.loc 1 261 0 discriminator 2
 1063 001a 1A69     		ldr	r2, [r3, #16]
 1064 001c 42F00072 		orr	r2, r2, #33554432
 1065 0020 1A61     		str	r2, [r3, #16]
 264:Drivers/STM32F7xx_HAL_Driver/Src/stm32f7xx_hal_flash_ex.c ****                          FLASH_FLAG_PGAERR | FLASH_FLAG_PGPERR| FLASH_FLAG_ERSERR);  
 1066              		.loc 1 264 0 discriminator 2
 1067 0022 F322     		movs	r2, #243
 1068 0024 DA60     		str	r2, [r3, #12]
 267:Drivers/STM32F7xx_HAL_Driver/Src/stm32f7xx_hal_flash_ex.c ****   {
 1069              		.loc 1 267 0 discriminator 2
 1070 0026 0368     		ldr	r3, [r0]
ARM GAS  /tmp/ccmMriQ8.s 			page 47


 1071 0028 012B     		cmp	r3, #1
 1072 002a 0DD0     		beq	.L117
 284:Drivers/STM32F7xx_HAL_Driver/Src/stm32f7xx_hal_flash_ex.c ****     pFlash.NbSectorsToErase = pEraseInit->NbSectors;
 1073              		.loc 1 284 0
 1074 002c 0C4B     		ldr	r3, .L118
 1075 002e 0122     		movs	r2, #1
 1076 0030 1A70     		strb	r2, [r3]
 285:Drivers/STM32F7xx_HAL_Driver/Src/stm32f7xx_hal_flash_ex.c ****     pFlash.Sector = pEraseInit->Sector;
 1077              		.loc 1 285 0
 1078 0032 C268     		ldr	r2, [r0, #12]
 1079 0034 5A60     		str	r2, [r3, #4]
 286:Drivers/STM32F7xx_HAL_Driver/Src/stm32f7xx_hal_flash_ex.c ****     pFlash.VoltageForErase = (uint8_t)pEraseInit->VoltageRange;
 1080              		.loc 1 286 0
 1081 0036 8268     		ldr	r2, [r0, #8]
 1082 0038 DA60     		str	r2, [r3, #12]
 287:Drivers/STM32F7xx_HAL_Driver/Src/stm32f7xx_hal_flash_ex.c **** 
 1083              		.loc 1 287 0
 1084 003a 017C     		ldrb	r1, [r0, #16]	@ zero_extendqisi2
 1085 003c 1972     		strb	r1, [r3, #8]
 290:Drivers/STM32F7xx_HAL_Driver/Src/stm32f7xx_hal_flash_ex.c ****   }
 1086              		.loc 1 290 0
 1087 003e 8068     		ldr	r0, [r0, #8]
 1088              	.LVL109:
 1089 0040 FFF7FEFF 		bl	FLASH_Erase_Sector
 1090              	.LVL110:
 293:Drivers/STM32F7xx_HAL_Driver/Src/stm32f7xx_hal_flash_ex.c **** }
 1091              		.loc 1 293 0
 1092 0044 0020     		movs	r0, #0
 1093 0046 08BD     		pop	{r3, pc}
 1094              	.LVL111:
 1095              	.L117:
 270:Drivers/STM32F7xx_HAL_Driver/Src/stm32f7xx_hal_flash_ex.c **** #if defined (FLASH_OPTCR_nDBANK)    
 1096              		.loc 1 270 0
 1097 0048 0222     		movs	r2, #2
 1098 004a 054B     		ldr	r3, .L118
 1099 004c 1A70     		strb	r2, [r3]
 272:Drivers/STM32F7xx_HAL_Driver/Src/stm32f7xx_hal_flash_ex.c **** #else
 1100              		.loc 1 272 0
 1101 004e 4168     		ldr	r1, [r0, #4]
 1102 0050 007C     		ldrb	r0, [r0, #16]	@ zero_extendqisi2
 1103              	.LVL112:
 1104 0052 FFF7FEFF 		bl	FLASH_MassErase
 1105              	.LVL113:
 293:Drivers/STM32F7xx_HAL_Driver/Src/stm32f7xx_hal_flash_ex.c **** }
 1106              		.loc 1 293 0
 1107 0056 0020     		movs	r0, #0
 1108 0058 08BD     		pop	{r3, pc}
 1109              	.LVL114:
 1110              	.L115:
 252:Drivers/STM32F7xx_HAL_Driver/Src/stm32f7xx_hal_flash_ex.c **** 
 1111              		.loc 1 252 0
 1112 005a 0220     		movs	r0, #2
 1113              	.LVL115:
 294:Drivers/STM32F7xx_HAL_Driver/Src/stm32f7xx_hal_flash_ex.c **** 
 1114              		.loc 1 294 0
 1115 005c 08BD     		pop	{r3, pc}
 1116              	.L119:
ARM GAS  /tmp/ccmMriQ8.s 			page 48


 1117 005e 00BF     		.align	2
 1118              	.L118:
 1119 0060 00000000 		.word	pFlash
 1120 0064 003C0240 		.word	1073888256
 1121              		.cfi_endproc
 1122              	.LFE137:
 1124              		.text
 1125              	.Letext0:
 1126              		.file 3 "/home/ainur/.prog/gcc-arm-none-eabi-6-2017/arm-none-eabi/include/machine/_default_types.h
 1127              		.file 4 "/home/ainur/.prog/gcc-arm-none-eabi-6-2017/arm-none-eabi/include/sys/_stdint.h"
 1128              		.file 5 "Drivers/CMSIS/Include/core_cm7.h"
 1129              		.file 6 "Drivers/CMSIS/Device/ST/STM32F7xx/Include/system_stm32f7xx.h"
 1130              		.file 7 "Drivers/CMSIS/Device/ST/STM32F7xx/Include/stm32f767xx.h"
 1131              		.file 8 "/home/ainur/.prog/gcc-arm-none-eabi-6-2017/arm-none-eabi/include/sys/lock.h"
 1132              		.file 9 "/home/ainur/.prog/gcc-arm-none-eabi-6-2017/arm-none-eabi/include/sys/_types.h"
 1133              		.file 10 "/home/ainur/.prog/gcc-arm-none-eabi-6-2017/lib/gcc/arm-none-eabi/6.3.1/include/stddef.h"
 1134              		.file 11 "/home/ainur/.prog/gcc-arm-none-eabi-6-2017/arm-none-eabi/include/sys/reent.h"
 1135              		.file 12 "Drivers/STM32F7xx_HAL_Driver/Inc/stm32f7xx_hal_def.h"
 1136              		.file 13 "Drivers/STM32F7xx_HAL_Driver/Inc/stm32f7xx_hal_flash.h"
 1137              		.file 14 "Drivers/STM32F7xx_HAL_Driver/Inc/stm32f7xx_hal_flash_ex.h"
ARM GAS  /tmp/ccmMriQ8.s 			page 49


DEFINED SYMBOLS
                            *ABS*:0000000000000000 stm32f7xx_hal_flash_ex.c
     /tmp/ccmMriQ8.s:17     .text.FLASH_MassErase:0000000000000000 $t
     /tmp/ccmMriQ8.s:23     .text.FLASH_MassErase:0000000000000000 FLASH_MassErase
     /tmp/ccmMriQ8.s:90     .text.FLASH_MassErase:0000000000000048 $d
     /tmp/ccmMriQ8.s:95     .text.FLASH_OB_GetWRP:0000000000000000 $t
     /tmp/ccmMriQ8.s:101    .text.FLASH_OB_GetWRP:0000000000000000 FLASH_OB_GetWRP
     /tmp/ccmMriQ8.s:118    .text.FLASH_OB_GetWRP:000000000000000c $d
     /tmp/ccmMriQ8.s:124    .text.FLASH_OB_GetUser:0000000000000000 $t
     /tmp/ccmMriQ8.s:130    .text.FLASH_OB_GetUser:0000000000000000 FLASH_OB_GetUser
     /tmp/ccmMriQ8.s:147    .text.FLASH_OB_GetUser:000000000000000c $d
     /tmp/ccmMriQ8.s:153    .text.FLASH_OB_BOR_LevelConfig:0000000000000000 $t
     /tmp/ccmMriQ8.s:159    .text.FLASH_OB_BOR_LevelConfig:0000000000000000 FLASH_OB_BOR_LevelConfig
     /tmp/ccmMriQ8.s:180    .text.FLASH_OB_BOR_LevelConfig:0000000000000010 $d
     /tmp/ccmMriQ8.s:185    .text.FLASH_OB_GetRDP:0000000000000000 $t
     /tmp/ccmMriQ8.s:191    .text.FLASH_OB_GetRDP:0000000000000000 FLASH_OB_GetRDP
     /tmp/ccmMriQ8.s:228    .text.FLASH_OB_GetRDP:0000000000000020 $d
     /tmp/ccmMriQ8.s:233    .text.FLASH_OB_GetBOR:0000000000000000 $t
     /tmp/ccmMriQ8.s:239    .text.FLASH_OB_GetBOR:0000000000000000 FLASH_OB_GetBOR
     /tmp/ccmMriQ8.s:255    .text.FLASH_OB_GetBOR:000000000000000c $d
     /tmp/ccmMriQ8.s:260    .text.FLASH_OB_GetBootAddress:0000000000000000 $t
     /tmp/ccmMriQ8.s:266    .text.FLASH_OB_GetBootAddress:0000000000000000 FLASH_OB_GetBootAddress
     /tmp/ccmMriQ8.s:297    .text.FLASH_OB_GetBootAddress:0000000000000014 $d
     /tmp/ccmMriQ8.s:302    .text.FLASH_OB_EnableWRP:0000000000000000 $t
     /tmp/ccmMriQ8.s:308    .text.FLASH_OB_EnableWRP:0000000000000000 FLASH_OB_EnableWRP
     /tmp/ccmMriQ8.s:344    .text.FLASH_OB_EnableWRP:0000000000000020 $d
     /tmp/ccmMriQ8.s:349    .text.FLASH_OB_DisableWRP:0000000000000000 $t
     /tmp/ccmMriQ8.s:355    .text.FLASH_OB_DisableWRP:0000000000000000 FLASH_OB_DisableWRP
     /tmp/ccmMriQ8.s:391    .text.FLASH_OB_DisableWRP:000000000000001c $d
     /tmp/ccmMriQ8.s:396    .text.FLASH_OB_RDP_LevelConfig:0000000000000000 $t
     /tmp/ccmMriQ8.s:402    .text.FLASH_OB_RDP_LevelConfig:0000000000000000 FLASH_OB_RDP_LevelConfig
     /tmp/ccmMriQ8.s:435    .text.FLASH_OB_RDP_LevelConfig:0000000000000018 $d
     /tmp/ccmMriQ8.s:440    .text.FLASH_OB_UserConfig:0000000000000000 $t
     /tmp/ccmMriQ8.s:446    .text.FLASH_OB_UserConfig:0000000000000000 FLASH_OB_UserConfig
     /tmp/ccmMriQ8.s:508    .text.FLASH_OB_UserConfig:0000000000000040 $d
     /tmp/ccmMriQ8.s:514    .text.FLASH_OB_BootAddressConfig:0000000000000000 $t
     /tmp/ccmMriQ8.s:520    .text.FLASH_OB_BootAddressConfig:0000000000000000 FLASH_OB_BootAddressConfig
     /tmp/ccmMriQ8.s:573    .text.FLASH_OB_BootAddressConfig:0000000000000034 $d
     /tmp/ccmMriQ8.s:579    .text.HAL_FLASHEx_OBProgram:0000000000000000 $t
     /tmp/ccmMriQ8.s:586    .text.HAL_FLASHEx_OBProgram:0000000000000000 HAL_FLASHEx_OBProgram
     /tmp/ccmMriQ8.s:743    .text.HAL_FLASHEx_OBProgram:00000000000000c0 $d
     /tmp/ccmMriQ8.s:748    .text.HAL_FLASHEx_OBGetConfig:0000000000000000 $t
     /tmp/ccmMriQ8.s:755    .text.HAL_FLASHEx_OBGetConfig:0000000000000000 HAL_FLASHEx_OBGetConfig
     /tmp/ccmMriQ8.s:802    .text.FLASH_Erase_Sector:0000000000000000 $t
     /tmp/ccmMriQ8.s:809    .text.FLASH_Erase_Sector:0000000000000000 FLASH_Erase_Sector
     /tmp/ccmMriQ8.s:892    .text.FLASH_Erase_Sector:0000000000000058 $d
     /tmp/ccmMriQ8.s:897    .text.HAL_FLASHEx_Erase:0000000000000000 $t
     /tmp/ccmMriQ8.s:904    .text.HAL_FLASHEx_Erase:0000000000000000 HAL_FLASHEx_Erase
     /tmp/ccmMriQ8.s:1021   .text.HAL_FLASHEx_Erase:000000000000008c $d
     /tmp/ccmMriQ8.s:1028   .text.HAL_FLASHEx_Erase_IT:0000000000000000 $t
     /tmp/ccmMriQ8.s:1035   .text.HAL_FLASHEx_Erase_IT:0000000000000000 HAL_FLASHEx_Erase_IT
     /tmp/ccmMriQ8.s:1119   .text.HAL_FLASHEx_Erase_IT:0000000000000060 $d
                     .debug_frame:0000000000000010 $d

UNDEFINED SYMBOLS
FLASH_WaitForLastOperation
pFlash
ARM GAS  /tmp/ccmMriQ8.s 			page 50


